{"abi":[{"type":"constructor","inputs":[],"stateMutability":"nonpayable"},{"type":"function","name":"balanceOf","inputs":[{"name":"account","type":"address","internalType":"address"},{"name":"id","type":"uint256","internalType":"uint256"}],"outputs":[{"name":"","type":"uint256","internalType":"uint256"}],"stateMutability":"view"},{"type":"function","name":"balanceOfBatch","inputs":[{"name":"accounts","type":"address[]","internalType":"address[]"},{"name":"ids","type":"uint256[]","internalType":"uint256[]"}],"outputs":[{"name":"","type":"uint256[]","internalType":"uint256[]"}],"stateMutability":"view"},{"type":"function","name":"isApprovedForAll","inputs":[{"name":"account","type":"address","internalType":"address"},{"name":"operator","type":"address","internalType":"address"}],"outputs":[{"name":"","type":"bool","internalType":"bool"}],"stateMutability":"view"},{"type":"function","name":"mint","inputs":[{"name":"account","type":"address","internalType":"address"},{"name":"id","type":"uint256","internalType":"uint256"},{"name":"amount","type":"uint256","internalType":"uint256"}],"outputs":[],"stateMutability":"nonpayable"},{"type":"function","name":"safeBatchTransferFrom","inputs":[{"name":"from","type":"address","internalType":"address"},{"name":"to","type":"address","internalType":"address"},{"name":"ids","type":"uint256[]","internalType":"uint256[]"},{"name":"amounts","type":"uint256[]","internalType":"uint256[]"},{"name":"data","type":"bytes","internalType":"bytes"}],"outputs":[],"stateMutability":"nonpayable"},{"type":"function","name":"safeTransferFrom","inputs":[{"name":"from","type":"address","internalType":"address"},{"name":"to","type":"address","internalType":"address"},{"name":"id","type":"uint256","internalType":"uint256"},{"name":"amount","type":"uint256","internalType":"uint256"},{"name":"data","type":"bytes","internalType":"bytes"}],"outputs":[],"stateMutability":"nonpayable"},{"type":"function","name":"setApprovalForAll","inputs":[{"name":"operator","type":"address","internalType":"address"},{"name":"approved","type":"bool","internalType":"bool"}],"outputs":[],"stateMutability":"nonpayable"},{"type":"function","name":"supportsInterface","inputs":[{"name":"interfaceId","type":"bytes4","internalType":"bytes4"}],"outputs":[{"name":"","type":"bool","internalType":"bool"}],"stateMutability":"view"},{"type":"function","name":"uri","inputs":[{"name":"","type":"uint256","internalType":"uint256"}],"outputs":[{"name":"","type":"string","internalType":"string"}],"stateMutability":"view"},{"type":"event","name":"ApprovalForAll","inputs":[{"name":"account","type":"address","indexed":true,"internalType":"address"},{"name":"operator","type":"address","indexed":true,"internalType":"address"},{"name":"approved","type":"bool","indexed":false,"internalType":"bool"}],"anonymous":false},{"type":"event","name":"TransferBatch","inputs":[{"name":"operator","type":"address","indexed":true,"internalType":"address"},{"name":"from","type":"address","indexed":true,"internalType":"address"},{"name":"to","type":"address","indexed":true,"internalType":"address"},{"name":"ids","type":"uint256[]","indexed":false,"internalType":"uint256[]"},{"name":"values","type":"uint256[]","indexed":false,"internalType":"uint256[]"}],"anonymous":false},{"type":"event","name":"TransferSingle","inputs":[{"name":"operator","type":"address","indexed":true,"internalType":"address"},{"name":"from","type":"address","indexed":true,"internalType":"address"},{"name":"to","type":"address","indexed":true,"internalType":"address"},{"name":"id","type":"uint256","indexed":false,"internalType":"uint256"},{"name":"value","type":"uint256","indexed":false,"internalType":"uint256"}],"anonymous":false},{"type":"event","name":"URI","inputs":[{"name":"value","type":"string","indexed":false,"internalType":"string"},{"name":"id","type":"uint256","indexed":true,"internalType":"uint256"}],"anonymous":false}],"bytecode":{"object":"0x6080346100d757602081016001600160401b038111828210176100c15760405260008091526002546001908181811c911680156100b7575b60208210146100a357601f811161005c575b8260025560405161154490816100dd8239f35b60028352601f0160051c7f405787fa12a823e0f2b7631cc41b3ba8828b3321ca811111fa75cd3aa3bb5ace908101905b8181106100995750610049565b838155820161008c565b634e487b7160e01b83526022600452602483fd5b90607f1690610037565b634e487b7160e01b600052604160045260246000fd5b600080fdfe60406080815260048036101561001457600080fd5b600091823560e01c8062fdd58e14610f2e57806301ffc9a714610e5c5780630e89341c14610d0d578063156e29f614610aae5780632eb2c2d6146107475780634e1273f41461055a578063a22cb4651461043f578063e985e9c5146103e05763f242432a1461008257600080fd5b346103dc5760a06003193601126103dc5761009b610f5e565b836100a4610f86565b916044359060643560843567ffffffffffffffff81116103d8576100cb90369089016110ed565b9273ffffffffffffffffffffffffffffffffffffffff8093169233841480156103b9575b6100f8906112d9565b86169061010682151561134a565b61010f81611501565b5061011983611501565b508086526020968688528887208588528852838988205461013c828210156113bb565b838952888a528a8920878a528a520389882055818752868852888720838852885288872061016b85825461142c565b905582858a51848152868b8201527fc3d58168c5ae7397731d063d5bbf3d657854427343f4c083240f7aacaa2d0f628c3392a43b6101a7578580f35b889587946102018a51978896879586947ff23a6e61000000000000000000000000000000000000000000000000000000009c8d8752339087015260248601526044850152606484015260a0608484015260a4830190610fa9565b03925af186918161038a575b506102e857505060019061021f611471565b6308c379a0146102b5575b5061023f5750505b3880808381808080808580f35b6102b192505191829162461bcd60e51b8352820160809060208152603460208201527f455243313135353a207472616e7366657220746f206e6f6e2d4552433131353560408201527f526563656976657220696d706c656d656e74657200000000000000000000000060608201520190565b0390fd5b6102bd61148f565b806102c8575061022a565b6102b18591855193849362461bcd60e51b85528401526024830190610fa9565b7fffffffff0000000000000000000000000000000000000000000000000000000016039050610318575050610232565b6102b192505191829162461bcd60e51b8352820160809060208152602860208201527f455243313135353a204552433131353552656365697665722072656a6563746560408201527f6420746f6b656e7300000000000000000000000000000000000000000000000060608201520190565b6103ab919250843d86116103b2575b6103a38183611007565b810190611439565b903861020d565b503d610399565b508386526001602090815288872033885290528786205460ff166100ef565b8480fd5b8280fd5b83823461043b578060031936011261043b5760ff81602093610400610f5e565b610408610f86565b73ffffffffffffffffffffffffffffffffffffffff91821683526001875283832091168252855220549151911615158152f35b5080fd5b50346103dc57806003193601126103dc57610458610f5e565b90602435918215158093036103d85773ffffffffffffffffffffffffffffffffffffffff16928333146104f2575033845260016020528084208385526020528084207fffffffffffffffffffffffffffffffffffffffffffffffffffffffffffffff0081541660ff8416179055519081527f17307eab39ab6107e8899845ad3d59bd9653f200f220920489ca2b5937696c3160203392a380f35b6020608492519162461bcd60e51b8352820152602960248201527f455243313135353a2073657474696e6720617070726f76616c2073746174757360448201527f20666f722073656c6600000000000000000000000000000000000000000000006064820152fd5b5090346103dc57816003193601126103dc57803567ffffffffffffffff8082116103d857366023830112156103d857818301359061059782611077565b926105a486519485611007565b82845260209260248486019160051b8301019136831161074357602401905b8282106107135750505060243590811161070f576105e4903690850161108f565b9282518451036106a857508151947fffffffffffffffffffffffffffffffffffffffffffffffffffffffffffffffe061063461061f88611077565b9761062c8851998a611007565b808952611077565b0136838801375b8251811015610692578061067d73ffffffffffffffffffffffffffffffffffffffff61066a61068d9487611296565b51166106768388611296565b5190611196565b6106878289611296565b5261123a565b61063b565b8451828152806106a481850189611162565b0390f35b60849185519162461bcd60e51b8352820152602960248201527f455243313135353a206163636f756e747320616e6420696473206c656e67746860448201527f206d69736d6174636800000000000000000000000000000000000000000000006064820152fd5b8580fd5b813573ffffffffffffffffffffffffffffffffffffffff8116810361073f5781529084019084016105c3565b8980fd5b8880fd5b5090346103dc576003199160a083360112610aaa57610764610f5e565b9261076d610f86565b9367ffffffffffffffff93604435858111610aa65761078f903690830161108f565b90606435868111610743576107a7903690830161108f565b95608435908111610743576107bf90369083016110ed565b9373ffffffffffffffffffffffffffffffffffffffff809416933385148015610a87575b6107ec906112d9565b8351885103610a1e5788169461080386151561134a565b895b8a855182101561088957908961087d8a6108849461082e85610827818d611296565b5195611296565b51938082526020908282528383208d84528252858d8585205490610854838310156113bb565b838652858552868620908652845203848420558252818152828220908d8352522091825461142c565b905561123a565b610805565b50509094939596929197848789518a81527f4a39dc06d4c0dbc64b70af90fd698a233a518aa5d07e595d983b8c0526c8f7fb6108c78c830188611162565b918083036020820152806108dc33948b611162565b0390a43b6108e8578880f35b865194859384937fbc197c810000000000000000000000000000000000000000000000000000000098898652338c87015260248601526044850160a0905260a4850161093391611162565b8285820301606486015261094691611162565b9083820301608484015261095991610fa9565b0381885a94602095f18591816109fe575b506109d0575050600161097b611471565b6308c379a014610999575b61023f5750505b38808080808080808880f35b6109a161148f565b806109ac5750610986565b90506102b191602094505193849362461bcd60e51b85528401526024830190610fa9565b7fffffffff00000000000000000000000000000000000000000000000000000000160361031857505061098d565b610a1791925060203d81116103b2576103a38183611007565b903861096a565b608483602089519162461bcd60e51b8352820152602860248201527f455243313135353a2069647320616e6420616d6f756e7473206c656e6774682060448201527f6d69736d617463680000000000000000000000000000000000000000000000006064820152fd5b50848a5260016020908152878b20338c529052868a205460ff166107e3565b8780fd5b8380fd5b50346103dc5760606003193601126103dc57610ac8610f5e565b60243560443590835160209384820182811067ffffffffffffffff821117610ce157865287825273ffffffffffffffffffffffffffffffffffffffff8116908115610c795790839291610b1b8a95611501565b50610b2586611501565b508385528487528785208286528752878520610b4287825461142c565b905581858951868152888a8201527fc3d58168c5ae7397731d063d5bbf3d657854427343f4c083240f7aacaa2d0f628b3392a43b610b7e578380f35b8794610bda9487948951968795869485937ff23a6e61000000000000000000000000000000000000000000000000000000009b8c865233908601528560248601526044850152606484015260a0608484015260a4830190610fa9565b03925af1869181610c5a575b50610c2a575050600190610bf8611471565b6308c379a014610c17575b5061023f5750505b38808080848180808380f35b610c1f61148f565b806102c85750610c03565b7fffffffff0000000000000000000000000000000000000000000000000000000016039050610318575050610c0b565b610c72919250843d86116103b2576103a38183611007565b9038610be6565b6084888789519162461bcd60e51b8352820152602160248201527f455243313135353a206d696e7420746f20746865207a65726f2061646472657360448201527f73000000000000000000000000000000000000000000000000000000000000006064820152fd5b60248960418a7f4e487b7100000000000000000000000000000000000000000000000000000000835252fd5b5082903461043b57602090816003193601126103dc57805192806002549060019082821c928281168015610e52575b8785108114610e26578899509688969785829a529182600014610de1575050600114610d85575b5050506106a49291610d76910385611007565b51928284938452830190610fa9565b9190869350600283527f405787fa12a823e0f2b7631cc41b3ba8828b3321ca811111fa75cd3aa3bb5ace5b828410610dc95750505082010181610d766106a4610d63565b8054848a018601528895508794909301928101610db0565b7fffffffffffffffffffffffffffffffffffffffffffffffffffffffffffffff00168782015293151560051b86019093019350849250610d7691506106a49050610d63565b60248360228c7f4e487b7100000000000000000000000000000000000000000000000000000000835252fd5b93607f1693610d3c565b5090346103dc5760206003193601126103dc5735907fffffffff0000000000000000000000000000000000000000000000000000000082168092036103dc57602092507fd9b67a26000000000000000000000000000000000000000000000000000000008214918215610f04575b8215610eda575b50519015158152f35b7f01ffc9a70000000000000000000000000000000000000000000000000000000014915038610ed1565b7f0e89341c0000000000000000000000000000000000000000000000000000000081149250610eca565b83823461043b578060031936011261043b57602090610f57610f4e610f5e565b60243590611196565b9051908152f35b6004359073ffffffffffffffffffffffffffffffffffffffff82168203610f8157565b600080fd5b6024359073ffffffffffffffffffffffffffffffffffffffff82168203610f8157565b919082519283825260005b848110610ff35750507fffffffffffffffffffffffffffffffffffffffffffffffffffffffffffffffe0601f8460006020809697860101520116010190565b602081830181015184830182015201610fb4565b90601f7fffffffffffffffffffffffffffffffffffffffffffffffffffffffffffffffe0910116810190811067ffffffffffffffff82111761104857604052565b7f4e487b7100000000000000000000000000000000000000000000000000000000600052604160045260246000fd5b67ffffffffffffffff81116110485760051b60200190565b81601f82011215610f81578035916110a683611077565b926110b46040519485611007565b808452602092838086019260051b820101928311610f81578301905b8282106110de575050505090565b813581529083019083016110d0565b81601f82011215610f815780359067ffffffffffffffff8211611048576040519261114060207fffffffffffffffffffffffffffffffffffffffffffffffffffffffffffffffe0601f8601160185611007565b82845260208383010111610f8157816000926020809301838601378301015290565b90815180825260208080930193019160005b828110611182575050505090565b835185529381019392810192600101611174565b73ffffffffffffffffffffffffffffffffffffffff169081156111d057600052600060205260406000209060005260205260406000205490565b608460405162461bcd60e51b815260206004820152602a60248201527f455243313135353a2061646472657373207a65726f206973206e6f742061207660448201527f616c6964206f776e6572000000000000000000000000000000000000000000006064820152fd5b7fffffffffffffffffffffffffffffffffffffffffffffffffffffffffffffffff81146112675760010190565b7f4e487b7100000000000000000000000000000000000000000000000000000000600052601160045260246000fd5b80518210156112aa5760209160051b010190565b7f4e487b7100000000000000000000000000000000000000000000000000000000600052603260045260246000fd5b156112e057565b608460405162461bcd60e51b815260206004820152602e60248201527f455243313135353a2063616c6c6572206973206e6f7420746f6b656e206f776e60448201527f6572206f7220617070726f7665640000000000000000000000000000000000006064820152fd5b1561135157565b608460405162461bcd60e51b815260206004820152602560248201527f455243313135353a207472616e7366657220746f20746865207a65726f20616460448201527f64726573730000000000000000000000000000000000000000000000000000006064820152fd5b156113c257565b608460405162461bcd60e51b815260206004820152602a60248201527f455243313135353a20696e73756666696369656e742062616c616e636520666f60448201527f72207472616e73666572000000000000000000000000000000000000000000006064820152fd5b9190820180921161126757565b90816020910312610f8157517fffffffff0000000000000000000000000000000000000000000000000000000081168103610f815790565b60009060033d1161147e57565b905060046000803e60005160e01c90565b600060443d106114ed5760405160031991823d016004833e815167ffffffffffffffff918282113d6024840111176114f0578184019485519384116114f8573d850101602084870101116114f057506114ed92910160200190611007565b90565b949350505050565b50949350505050565b604051906040820182811067ffffffffffffffff82111761104857604052600182526020820160203682378251156112aa57529056fea164736f6c6343000812000a","linkReferences":{}},"methodIdentifiers":{"balanceOf(address,uint256)":"00fdd58e","balanceOfBatch(address[],uint256[])":"4e1273f4","isApprovedForAll(address,address)":"e985e9c5","mint(address,uint256,uint256)":"156e29f6","safeBatchTransferFrom(address,address,uint256[],uint256[],bytes)":"2eb2c2d6","safeTransferFrom(address,address,uint256,uint256,bytes)":"f242432a","setApprovalForAll(address,bool)":"a22cb465","supportsInterface(bytes4)":"01ffc9a7","uri(uint256)":"0e89341c"},"id":163}