{"abi":[{"type":"function","name":"disableSpace","inputs":[{"name":"space","type":"address","internalType":"address"}],"outputs":[],"stateMutability":"nonpayable"},{"type":"function","name":"enableSpace","inputs":[{"name":"space","type":"address","internalType":"address"}],"outputs":[],"stateMutability":"nonpayable"},{"type":"function","name":"isSpaceEnabled","inputs":[{"name":"space","type":"address","internalType":"address"}],"outputs":[{"name":"","type":"uint256","internalType":"uint256"}],"stateMutability":"view"},{"type":"function","name":"owner","inputs":[],"outputs":[{"name":"","type":"address","internalType":"address"}],"stateMutability":"view"},{"type":"function","name":"renounceOwnership","inputs":[],"outputs":[],"stateMutability":"nonpayable"},{"type":"function","name":"transferOwnership","inputs":[{"name":"newOwner","type":"address","internalType":"address"}],"outputs":[],"stateMutability":"nonpayable"},{"type":"event","name":"Initialized","inputs":[{"name":"version","type":"uint8","indexed":false,"internalType":"uint8"}],"anonymous":false},{"type":"event","name":"OwnershipTransferred","inputs":[{"name":"previousOwner","type":"address","indexed":true,"internalType":"address"},{"name":"newOwner","type":"address","indexed":true,"internalType":"address"}],"anonymous":false},{"type":"event","name":"SpaceDisabled","inputs":[{"name":"space","type":"address","indexed":false,"internalType":"address"}],"anonymous":false},{"type":"event","name":"SpaceEnabled","inputs":[{"name":"space","type":"address","indexed":false,"internalType":"address"}],"anonymous":false},{"type":"error","name":"InvalidSpace","inputs":[]}],"bytecode":{"object":"0x608080604052346100165761045b908161001c8239f35b600080fdfe608060408181526004908136101561001657600080fd5b600092833560e01c9081636efd971c1461038c57508063715018a6146103095780638da5cb5b146102d05780639e33d8111461024a578063d92d4ea0146101885763f2fde38b1461006657600080fd5b346101845760206003193601126101845781359173ffffffffffffffffffffffffffffffffffffffff91828416809403610180576100a26103cf565b83156100fd575050603354827fffffffffffffffffffffffff0000000000000000000000000000000000000000821617603355167f8be0079c531659141344cd1fd0a4f28419497f9722a3daafe3b4186f6b6457e08380a380f35b90602060849251917f08c379a0000000000000000000000000000000000000000000000000000000008352820152602660248201527f4f776e61626c653a206e6577206f776e657220697320746865207a65726f206160448201527f64647265737300000000000000000000000000000000000000000000000000006064820152fd5b8480fd5b8280fd5b50346101845760206003193601126101845781359173ffffffffffffffffffffffffffffffffffffffff8316809303610246576101c36103cf565b82158015610232575b61020b5750816020917fc3dc08a46232e8d0a95510120799f1e68e0aa28c88730b8b0127d5ff4565b4b09385526065835260018186205551908152a180f35b90517fc3b48cf1000000000000000000000000000000000000000000000000000000008152fd5b5082845260656020528184205415156101cc565b8380fd5b50346101845760206003193601126101845781359173ffffffffffffffffffffffffffffffffffffffff8316809303610246576102856103cf565b8284526065602052818420541561020b5750816020917f665604bfe8ee87044ba1f1fd2fb47fe92983c9e187acbb442debf97d3e58192193855260658352848181205551908152a180f35b83823461030557816003193601126103055760209073ffffffffffffffffffffffffffffffffffffffff603354169051908152f35b5080fd5b83346103895780600319360112610389576103226103cf565b8073ffffffffffffffffffffffffffffffffffffffff6033547fffffffffffffffffffffffff00000000000000000000000000000000000000008116603355167f8be0079c531659141344cd1fd0a4f28419497f9722a3daafe3b4186f6b6457e08280a380f35b80fd5b92905034610246576020600319360112610246573573ffffffffffffffffffffffffffffffffffffffff8116809103610246579260209381526065845220548152f35b73ffffffffffffffffffffffffffffffffffffffff6033541633036103f057565b60646040517f08c379a000000000000000000000000000000000000000000000000000000000815260206004820152602060248201527f4f776e61626c653a2063616c6c6572206973206e6f7420746865206f776e65726044820152fdfea164736f6c6343000812000a","linkReferences":{}},"methodIdentifiers":{"disableSpace(address)":"9e33d811","enableSpace(address)":"d92d4ea0","isSpaceEnabled(address)":"6efd971c","owner()":"8da5cb5b","renounceOwnership()":"715018a6","transferOwnership(address)":"f2fde38b"},"id":123}