{"abi":[{"type":"function","name":"getProof","inputs":[{"name":"data","type":"bytes32[]","internalType":"bytes32[]"},{"name":"node","type":"uint256","internalType":"uint256"}],"outputs":[{"name":"","type":"bytes32[]","internalType":"bytes32[]"}],"stateMutability":"pure"},{"type":"function","name":"getRoot","inputs":[{"name":"data","type":"bytes32[]","internalType":"bytes32[]"}],"outputs":[{"name":"","type":"bytes32","internalType":"bytes32"}],"stateMutability":"pure"},{"type":"function","name":"hashLeafPairs","inputs":[{"name":"left","type":"bytes32","internalType":"bytes32"},{"name":"right","type":"bytes32","internalType":"bytes32"}],"outputs":[{"name":"_hash","type":"bytes32","internalType":"bytes32"}],"stateMutability":"pure"},{"type":"function","name":"log2ceil","inputs":[{"name":"x","type":"uint256","internalType":"uint256"}],"outputs":[{"name":"","type":"uint256","internalType":"uint256"}],"stateMutability":"pure"},{"type":"function","name":"log2ceilBitMagic","inputs":[{"name":"x","type":"uint256","internalType":"uint256"}],"outputs":[{"name":"","type":"uint256","internalType":"uint256"}],"stateMutability":"pure"},{"type":"function","name":"verifyProof","inputs":[{"name":"root","type":"bytes32","internalType":"bytes32"},{"name":"proof","type":"bytes32[]","internalType":"bytes32[]"},{"name":"valueToProve","type":"bytes32","internalType":"bytes32"}],"outputs":[{"name":"","type":"bool","internalType":"bool"}],"stateMutability":"pure"}],"bytecode":{"object":"0x60808060405234610016576108c2908161001c8239f35b600080fdfe6080604052600436101561001257600080fd5b6000803560e01c9081632e08d6021461007a5750806358161a4214610075578063b861619514610070578063cf06c7b71461006b578063dd1d2599146100665763e27d51531461006157600080fd5b61047f565b61045e565b610438565b610325565b610277565b346101845760206003193601126101845760043567ffffffffffffffff8111610180576100ab903690600401610217565b600180825111156100fc57805b6100de575b6100da6100c9836104e2565b516040519081529081906020820190565b0390f35b80825111156100f7576100f18192610601565b916100b8565b6100bd565b60846040517f08c379a000000000000000000000000000000000000000000000000000000000815260206004820152602360248201527f776f6e27742067656e657261746520726f6f7420666f722073696e676c65206c60448201527f65616600000000000000000000000000000000000000000000000000000000006064820152fd5b5080fd5b80fd5b7f4e487b7100000000000000000000000000000000000000000000000000000000600052604160045260246000fd5b907fffffffffffffffffffffffffffffffffffffffffffffffffffffffffffffffe0601f604051930116820182811067ffffffffffffffff8211176101fa57604052565b610187565b67ffffffffffffffff81116101fa5760051b60200190565b9080601f8301121561027257813590610237610232836101ff565b6101b6565b9182938184526020808095019260051b820101928311610272578301905b828210610263575050505090565b81358152908301908301610255565b600080fd5b346102725760606003193601126102725760243567ffffffffffffffff8111610272576102a8903690600401610217565b60443581516000925b8184106102c75760405160043584148152602090f35b90916102e06001916102d9868561051e565b51906104bf565b93019291906102b1565b6020908160408183019282815285518094520193019160005b828110610311575050505090565b835185529381019392810192600101610303565b346102725760406003193601126102725760043567ffffffffffffffff811161027257610356903690600401610217565b6024359060019061036982825111610532565b61037b6103768251610777565b6105bc565b92600080845b610394575b604051806100da88826102ea565b83518581111561043257858493926103f79282808098161460001461040157506103e07fffffffffffffffffffffffffffffffffffffffffffffffffffffffffffffffff86018861051e565b516103eb828b61051e565b525b0192841c94610601565b9392919091610381565b85830190810361041d575083610417828b61051e565b526103ed565b610427908861051e565b51610417828b61051e565b50610386565b34610272576020600319360112610272576020610456600435610777565b604051908152f35b346102725760406003193601126102725760206104566024356004356104bf565b3461027257602060031936011261027257600435806000815b6104b2576020925060405191806001811901161490038152f35b600192831c920182610498565b818110156104d6576000526020525b604060002090565b906000526020526104ce565b8051156104ef5760200190565b7f4e487b7100000000000000000000000000000000000000000000000000000000600052603260045260246000fd5b80518210156104ef5760209160051b010190565b1561053957565b60846040517f08c379a0000000000000000000000000000000000000000000000000000000008152602060048201526024808201527f776f6e27742067656e65726174652070726f6f6620666f722073696e676c652060448201527f6c656166000000000000000000000000000000000000000000000000000000006064820152fd5b906105c9610232836101ff565b8281527fffffffffffffffffffffffffffffffffffffffffffffffffffffffffffffffe06105f782946101ff565b0190602036910137565b90815160019081808216146000146106d5576106208282811c016105bc565b917fffffffffffffffffffffffffffffffffffffffffffffffffffffffffffffffff61064e8184018761051e565b51600080526020526106686040600020918551018561051e565b525b6000917fffffffffffffffffffffffffffffffffffffffffffffffffffffffffffffffff839101925b8382106106a35750929450505050565b826002916106c16106b4858b61051e565b516102d98487018c61051e565b6106cb828961051e565b5201910190610693565b6106e081831c6105bc565b9161066a565b90604082018092116106f457565b7f4e487b7100000000000000000000000000000000000000000000000000000000600052601160045260246000fd5b90602082018092116106f457565b90601082018092116106f457565b90600882018092116106f457565b90600482018092116106f457565b90600282018092116106f457565b90600182018092116106f457565b60018111156108af57600090807001000000000000000000000000000000008110156108a4575b80680100000000000000006002921015610891575b64010000000081101561087e575b6201000081101561086b575b610100811015610858575b6010811015610845575b6004811015610833575b1015610823575b806107fe8119610769565b16148061081a575b1561080e5790565b61081790610769565b90565b50801515610806565b9061082d90610769565b906107f3565b61083f90821c9361075b565b926107ec565b6108529060041c9361074d565b926107e2565b6108659060081c9361073f565b926107d8565b6108789060101c93610731565b926107cd565b61088b9060201c93610723565b926107c1565b61089e9060401c936106e6565b926107b3565b60809250821c61079e565b5060009056fea164736f6c6343000812000a","linkReferences":{}},"methodIdentifiers":{"getProof(bytes32[],uint256)":"b8616195","getRoot(bytes32[])":"2e08d602","hashLeafPairs(bytes32,bytes32)":"dd1d2599","log2ceil(uint256)":"e27d5153","log2ceilBitMagic(uint256)":"cf06c7b7","verifyProof(bytes32,bytes32[],bytes32)":"58161a42"},"id":23}