{"abi":[{"type":"function","name":"validate","inputs":[{"name":"author","type":"address","internalType":"address"},{"name":"params","type":"bytes","internalType":"bytes"},{"name":"","type":"bytes","internalType":"bytes"}],"outputs":[{"name":"success","type":"bool","internalType":"bool"}],"stateMutability":"nonpayable"},{"type":"error","name":"MaxActiveProposalsCannotBeZero","inputs":[]}],"bytecode":{"object":"0x6080806040523461001657610359908161001c8239f35b600080fdfe6080604052600436101561001257600080fd5b6000803560e01c63072160951461002857600080fd5b346100dc5760607ffffffffffffffffffffffffffffffffffffffffffffffffffffffffffffffffc3601126100dc5760043573ffffffffffffffffffffffffffffffffffffffff811681036100e35767ffffffffffffffff916024358381116100e3576100999036906004016100e7565b90936044359081116100df576040916100b7869236906004016100e7565b5050810103126100dc5760206100d28482013585358561011a565b6040519015158152f35b80fd5b8280fd5b5080fd5b9181601f840112156101155782359167ffffffffffffffff8311610115576020838186019501011161011557565b600080fd5b90821561032257600092338452602090848252604073ffffffffffffffffffffffffffffffffffffffff81872095169485875283528086209481519582870187811067ffffffffffffffff8211176102f5578352549263ffffffff84818096168952861c168588019681885281156000146101f25750505090859667ffffffff00000000939260017fffffffffffffffffffffffffffffffffffffffffffffffff0000000000000000969798525b83421688523382528187528282209082528652209551169285549451901b16921617179055600190565b81018091116102c857421061023c575090859667ffffffff00000000939260017fffffffffffffffffffffffffffffffffffffffffffffffff0000000000000000969798526101c8565b86518416908110610251575050505050505090565b600190979293949596970184811161029b579167ffffffff000000009391857fffffffffffffffffffffffffffffffffffffffffffffffff000000000000000096941689526101c8565b6024837f4e487b710000000000000000000000000000000000000000000000000000000081526011600452fd5b6024897f4e487b710000000000000000000000000000000000000000000000000000000081526011600452fd5b6024897f4e487b710000000000000000000000000000000000000000000000000000000081526041600452fd5b60046040517fca6e9831000000000000000000000000000000000000000000000000000000008152fdfea164736f6c6343000812000a","linkReferences":{}},"methodIdentifiers":{"validate(address,bytes,bytes)":"07216095"},"id":112}