{"abi":[{"type":"constructor","inputs":[{"name":"name","type":"string","internalType":"string"},{"name":"version","type":"string","internalType":"string"}],"stateMutability":"nonpayable"},{"type":"function","name":"authenticate","inputs":[{"name":"v","type":"uint8","internalType":"uint8"},{"name":"r","type":"bytes32","internalType":"bytes32"},{"name":"s","type":"bytes32","internalType":"bytes32"},{"name":"salt","type":"uint256","internalType":"uint256"},{"name":"target","type":"address","internalType":"address"},{"name":"functionSelector","type":"bytes4","internalType":"bytes4"},{"name":"data","type":"bytes","internalType":"bytes"}],"outputs":[],"stateMutability":"nonpayable"},{"type":"function","name":"eip712Domain","inputs":[],"outputs":[{"name":"fields","type":"bytes1","internalType":"bytes1"},{"name":"name","type":"string","internalType":"string"},{"name":"version","type":"string","internalType":"string"},{"name":"chainId","type":"uint256","internalType":"uint256"},{"name":"verifyingContract","type":"address","internalType":"address"},{"name":"salt","type":"bytes32","internalType":"bytes32"},{"name":"extensions","type":"uint256[]","internalType":"uint256[]"}],"stateMutability":"view"},{"type":"event","name":"EIP712DomainChanged","inputs":[],"anonymous":false},{"type":"error","name":"InvalidFunctionSelector","inputs":[]},{"type":"error","name":"InvalidShortString","inputs":[]},{"type":"error","name":"InvalidSignature","inputs":[]},{"type":"error","name":"SaltAlreadyUsed","inputs":[]},{"type":"error","name":"StringTooLong","inputs":[{"name":"str","type":"string","internalType":"string"}]}],"bytecode":{"object":"0x61016080604052346200016f57620019bc803803809162000021828562000174565b83398101906040818303126200016f5780516001600160401b0391908281116200016f578362000053918301620001bd565b9260208201518381116200016f576200006d9201620001bd565b91620000798162000218565b6101209081526200008a84620003cc565b9161014092835260208151910120938460e0526020815191012093610100948086524660a0526040519060208201927f8b73c3c69bb8fe3d512ecc4cf759cc79239f7b179b0ffacaa9a75d522b39400f8452604083015260608201524660808201523060a082015260a0815260c0810194818610908611176200015957846040525190206080523060c0526114a3938462000519853960805184610ef2015260a05184610fad015260c05184610ec3015260e05184610f4101525183610f6701525182607101525181609a0152f35b634e487b7160e01b600052604160045260246000fd5b600080fd5b601f909101601f19168101906001600160401b038211908210176200015957604052565b60005b838110620001ac5750506000910152565b81810151838201526020016200019b565b81601f820112156200016f5780516001600160401b038111620001595760405192620001f4601f8301601f19166020018562000174565b818452602082840101116200016f5762000215916020808501910162000198565b90565b8051602091908281101562000298575090601f8251116200025657808251920151908083106200024757501790565b82600019910360031b1b161790565b6044906200028a9260405193849263305a27a960e01b84528060048501528251928391826024870152868601910162000198565b601f01601f19168101030190fd5b6001600160401b03811162000159576000928354926001938481811c91168015620003c1575b83821014620003ad57601f811162000377575b5081601f8411600114620003105750928293918392869462000304575b50501b916000199060031b1c191617905560ff90565b015192503880620002ee565b919083601f1981168780528488209488905b888383106200035c575050501062000342575b505050811b01905560ff90565b015160001960f88460031b161c1916905538808062000335565b85870151885590960195948501948793509081019062000322565b85805284601f848820920160051c820191601f860160051c015b828110620003a1575050620002d1565b87815501859062000391565b634e487b7160e01b86526022600452602486fd5b90607f1690620002be565b805160209081811015620003f95750601f8251116200025657808251920151908083106200024757501790565b9192916001600160401b038111620001595760019182548381811c911680156200050d575b82821014620004f757601f8111620004be575b5080601f83116001146200047157508192939460009262000465575b5050600019600383901b1c191690821b17905560ff90565b0151905038806200044d565b90601f198316958460005282600020926000905b888210620004a657505083859697106200034257505050811b01905560ff90565b80878596829496860151815501950193019062000485565b8360005283601f83600020920160051c820191601f850160051c015b828110620004ea57505062000431565b60008155018490620004da565b634e487b7160e01b600052602260045260246000fd5b90607f16906200041e56fe6080604052600436101561001257600080fd5b6000803560e01c90816384b0196e1461003a57506390bec9b81461003557600080fd5b6101f6565b3461016a57807ffffffffffffffffffffffffffffffffffffffffffffffffffffffffffffffffc36011261016a5761011c906100957f000000000000000000000000000000000000000000000000000000000000000061037c565b6100be7f00000000000000000000000000000000000000000000000000000000000000006104b7565b91604051916100cc83610309565b8183526040519485947f0f00000000000000000000000000000000000000000000000000000000000000865261010e60209360e08589015260e0880190610190565b908682036040880152610190565b904660608601523060808601528260a086015284820360c08601528080855193848152019401925b82811061015357505050500390f35b835185528695509381019392810192600101610144565b80fd5b60005b8381106101805750506000910152565b8181015183820152602001610170565b90601f19601f6020936101ae8151809281875287808801910161016d565b0116010190565b6004359060ff821682036101c557565b600080fd5b359060ff821682036101c557565b73ffffffffffffffffffffffffffffffffffffffff8116036101c557565b346101c55760e07ffffffffffffffffffffffffffffffffffffffffffffffffffffffffffffffffc3601126101c55761022d6101b5565b608435610239816101d8565b60a435917fffffffff00000000000000000000000000000000000000000000000000000000831683036101c55760c4359267ffffffffffffffff928385116101c557366023860112156101c55784600401359384116101c55736602485870101116101c55760246102b7950192606435906044359060243590610625565b005b7f4e487b7100000000000000000000000000000000000000000000000000000000600052604160045260246000fd5b6040810190811067ffffffffffffffff82111761030457604052565b6102b9565b6020810190811067ffffffffffffffff82111761030457604052565b60c0810190811067ffffffffffffffff82111761030457604052565b90601f601f19910116810190811067ffffffffffffffff82111761030457604052565b67ffffffffffffffff81116103045760051b60200190565b60ff81146103905761038d906105a0565b90565b506040516000805490600182811c928181169182156104ad575b60209182861084146104805785875286949360208601939291811561044257506001146103e1575b50505061038d92500382610341565b92509361040f600080527f290decd9548b62a8d60345a988386fc84ba6bc95484008f6362f93160ef3e56390565b946000935b82851061042c5750505061038d9350013880806103d2565b8654858501529586019587955093810193610414565b91505061038d959293507fffffffffffffffffffffffffffffffffffffffffffffffffffffffffffffff009150168252151560051b013880806103d2565b6024857f4e487b710000000000000000000000000000000000000000000000000000000081526022600452fd5b93607f16936103aa565b60ff81146104c85761038d906105a0565b506040516001805480821c9160009180821691821561057a575b60209182861084146104805785875286949360208601939291811561044257506001146105185750505061038d92500382610341565b92509361054760016000527fb10e2d527612073b26eecdfd717e6a320cf44b4afac2b0732d9fcbe2b7fa0cf690565b946000935b8285106105645750505061038d9350013880806103d2565b865485850152958601958795509381019361054c565b93607f16936104e2565b67ffffffffffffffff811161030457601f01601f191660200190565b60ff811690601f82116105c457604051916105ba836102e8565b8252602082015290565b60046040517fb3512b0c000000000000000000000000000000000000000000000000000000008152fd5b9291926105fa82610584565b916106086040519384610341565b8294818452818301116101c5578281602093846000960137010152565b959693959291907fffffffff0000000000000000000000000000000000000000000000000000000086167faad83f3b0000000000000000000000000000000000000000000000000000000081036106a75750928661069f9593610698936106a59a9661069236888a6105ee565b94610ab0565b36916105ee565b91610916565b565b9193909290917fbc7e56f00000000000000000000000000000000000000000000000000000000081036106f15750508387876106a5999561069f97956106ec956110dc565b610698565b7f0b515570000000000000000000000000000000000000000000000000000000009098949295939198146000146108ec5761073f6107303685876105ee565b60208082518301019101611456565b94919293909773ffffffffffffffffffffffffffffffffffffffff8095169861079b8d61078c8c73ffffffffffffffffffffffffffffffffffffffff166000526002602052604060002090565b90600052602052604060002090565b546108c2578b610855956108488f61083a8e9b918c926107bd61085098610fd3565b90602081519101209060405196879560208701998a9260c09491979695929760e08501987fd4da3505dd8ebafecaa0a60cd43a495d9cd5145325732986b7139a443821d0f9865273ffffffffffffffffffffffffffffffffffffffff80921660208701521660408501526060840152608083015260a08201520152565b03601f198101835282610341565b519020610e6b565b610bf1565b1603610898576106ec6108926106a59761078c61069f9673ffffffffffffffffffffffffffffffffffffffff166000526002602052604060002090565b60019055565b60046040517f8baa579f000000000000000000000000000000000000000000000000000000008152fd5b60046040517f0ced3043000000000000000000000000000000000000000000000000000000008152fd5b60046040517f42868c9b000000000000000000000000000000000000000000000000000000008152fd5b9161096d602460405180937fffffffff00000000000000000000000000000000000000000000000000000000602083019616865261095d815180926020868601910161016d565b8101036004810184520182610341565b600092839283809351925af13d156109b1573d61098981610584565b906109976040519283610341565b81528260203d92013e5b156109a95750565b3d908181803efd5b6109a1565b81601f820112156101c55780516109cc81610584565b926109da6040519485610341565b818452602082840101116101c55761038d916020808501910161016d565b91906040838203126101c55760405190610a11826102e8565b81938051610a1e816101d8565b835260208101519167ffffffffffffffff83116101c557602092610a4292016109b6565b910152565b6080818303126101c5578051610a5c816101d8565b9260208201519167ffffffffffffffff928381116101c55784610a809183016109b6565b9360408201518481116101c55781610a999184016109f8565b9360608301519081116101c55761038d92016109b6565b9294610ac89092919260208082518301019101610a47565b9392949173ffffffffffffffffffffffffffffffffffffffff96919680961697610b168a61078c8b73ffffffffffffffffffffffffffffffffffffffff166000526002602052604060002090565b546108c25788976108488961083a8d610bba9a610b3d8860206108509a5191012096610fd3565b90602081519101209060405196879560208701998a9260c09491979695929760e08501987f3f4f5d2d7bbe0d480b081f84c9bdb18ba843152e969645ed6dc8a9d90c83188c865273ffffffffffffffffffffffffffffffffffffffff80921660208701521660408501526060840152608083015260a08201520152565b1603610898576106a59161078c6108929273ffffffffffffffffffffffffffffffffffffffff166000526002602052604060002090565b9161038d9391610c0093610dcf565b919091610c46565b7f4e487b7100000000000000000000000000000000000000000000000000000000600052602160045260246000fd5b60051115610c4157565b610c08565b610c4f81610c37565b80610c575750565b610c6081610c37565b60018103610cc7576040517f08c379a000000000000000000000000000000000000000000000000000000000815260206004820152601860248201527f45434453413a20696e76616c6964207369676e617475726500000000000000006044820152606490fd5b610cd081610c37565b60028103610d37576040517f08c379a000000000000000000000000000000000000000000000000000000000815260206004820152601f60248201527f45434453413a20696e76616c6964207369676e6174757265206c656e677468006044820152606490fd5b80610d43600392610c37565b14610d4a57565b6040517f08c379a000000000000000000000000000000000000000000000000000000000815260206004820152602260248201527f45434453413a20696e76616c6964207369676e6174757265202773272076616c60448201527f75650000000000000000000000000000000000000000000000000000000000006064820152608490fd5b9291907f7fffffffffffffffffffffffffffffff5d576e7357a4501ddfe92f46681b20a08311610e5f5791608094939160ff602094604051948552168484015260408301526060820152600093849182805260015afa15610e5257815173ffffffffffffffffffffffffffffffffffffffff811615610e4c579190565b50600190565b50604051903d90823e3d90fd5b50505050600090600390565b604290610e76610eac565b90604051917f19010000000000000000000000000000000000000000000000000000000000008352600283015260228201522090565b73ffffffffffffffffffffffffffffffffffffffff7f000000000000000000000000000000000000000000000000000000000000000016301480610faa575b15610f14577f000000000000000000000000000000000000000000000000000000000000000090565b60405160208101907f8b73c3c69bb8fe3d512ecc4cf759cc79239f7b179b0ffacaa9a75d522b39400f82527f000000000000000000000000000000000000000000000000000000000000000060408201527f000000000000000000000000000000000000000000000000000000000000000060608201524660808201523060a082015260a08152610fa481610325565b51902090565b507f00000000000000000000000000000000000000000000000000000000000000004614610eeb565b602073ffffffffffffffffffffffffffffffffffffffff825116910151602081519101206040519060208201927fcaed499d02be902df50ad9112a126ad2688628af4ffd9da0c3a70bdbc9979d6d845260408301526060820152606081526080810181811067ffffffffffffffff8211176103045760405251902090565b9080601f830112156101c55781602061038d933591016105ee565b7f1c5fa0cfd607be7fe6c84e8a90f68e5bd72c81571290a8e28eac25434346c9f2815273ffffffffffffffffffffffffffffffffffffffff918216602082015291166040820152606081019190915260e081019493926003831015610c415760c092608083015260a08201520152565b9492939460a08685810103126101c5576110f686356101d8565b6003604087013510156101c55760608601359367ffffffffffffffff85116101c557808701601f8689010112156101c5578487013561113481610364565b956111426040519788610341565b8187526020870190838a0160208460051b838d010101116101c5576020818b0101915b60208460051b838d01010183106111fe575050505060808701359467ffffffffffffffff86116101c557876108486111ab6111f698610850956111d19c01908401611051565b9861083a73ffffffffffffffffffffffffffffffffffffffff9a8b8535169c8d96611397565b906020815191012090604051958694602086019860206040840135930135918a61106c565b160361089857565b823567ffffffffffffffff81116101c5576040838d018201878e0103601f1901126101c5578060408d9285825194611235866102e8565b61124560208484840101016101ca565b8652010101359067ffffffffffffffff82116101c557848e010101868d01603f820112156101c55760209283926112898f938a8695019060408682013591016105ee565b838201528152019301929050611165565b906112a482610364565b6112b16040519182610341565b828152601f196112c18294610364565b0190602036910137565b7fffffffffffffffffffffffffffffffffffffffffffffffffffffffffffffffff81146112f85760010190565b7f4e487b7100000000000000000000000000000000000000000000000000000000600052601160045260246000fd5b805182101561133b5760209160051b010190565b7f4e487b7100000000000000000000000000000000000000000000000000000000600052603260045260246000fd5b805160208092019160005b828110611383575050505090565b835185529381019392810192600101611375565b906113a2825161129a565b60005b835181101561143d57806113c76113bf6114389387611327565b515160ff1690565b6020611425816113d7858a611327565b510151805190830120604080517f0e7fde7bf0920f058ac1e42e7e8d2907921fbba6044b8ebd3be400b0ea539ccb94810194855260ff9095166020850152830152909190816060840161083a565b5190206114328285611327565b526112cb565b6113a5565b50909150604051610fa48161083a60208201809561136a565b906080828203126101c557815161146c816101d8565b9260208301519260408101519267ffffffffffffffff938481116101c55781610a999184016109f856fea164736f6c6343000812000a","linkReferences":{}},"methodIdentifiers":{"authenticate(uint8,bytes32,bytes32,uint256,address,bytes4,bytes)":"90bec9b8","eip712Domain()":"84b0196e"},"id":84}