{"abi":[{"type":"function","name":"getVotingPower","inputs":[{"name":"","type":"uint32","internalType":"uint32"},{"name":"voter","type":"address","internalType":"address"},{"name":"params","type":"bytes","internalType":"bytes"},{"name":"userParams","type":"bytes","internalType":"bytes"}],"outputs":[{"name":"votingPower","type":"uint256","internalType":"uint256"}],"stateMutability":"pure"},{"type":"error","name":"InvalidMember","inputs":[]},{"type":"error","name":"InvalidProof","inputs":[]}],"bytecode":{"object":"0x608080604052346100165761042b908161001c8239f35b600080fdfe608060409080825260048036101561001657600080fd5b600090813560e01c63871d81b71461002d57600080fd5b346103e75760807ffffffffffffffffffffffffffffffffffffffffffffffffffffffffffffffffc3601126103e757803563ffffffff8116036103e757602493843573ffffffffffffffffffffffffffffffffffffffff948582168092036103e35767ffffffffffffffff6044358181116103df576100af90369087016103eb565b90976064358381116103db57906100cd8a9594939236908a016103eb565b909260209687918101031261035f5782019282840393606085126103d75783358281116103d35784019481601f870112156103d3578535918383116103a85760059683881b907fffffffffffffffffffffffffffffffffffffffffffffffffffffffffffffffe09485603f8401168b018b81108882111761037a578e528a528a808b019282010192831161037657908a808e9695949301915b8383106103635750505050011261035f578751908882018281108282111761030857895286840135938385169485810361035b578352890135976bffffffffffffffffffffffff94858a168a0361035b57888401998a5203610333578851928784019251168252838851168984015288835260608301918383108284111761030857828a5283519020608084019081528783529260a001908111828210176102dd5788525190209488955b845187101561029c5786841b8501860151908181101561028f578a5285528689205b957fffffffffffffffffffffffffffffffffffffffffffffffffffffffffffffffff81146102645760010195610211565b8b8a60118b7f4e487b7100000000000000000000000000000000000000000000000000000000835252fd5b908a528552868920610233565b91879189600188958e3514036102b6575051169051908152f35b83517f09bde339000000000000000000000000000000000000000000000000000000008152fd5b8c8b60418c7f4e487b7100000000000000000000000000000000000000000000000000000000835252fd5b8d8c60418d7f4e487b7100000000000000000000000000000000000000000000000000000000835252fd5b8989517f73d8c982000000000000000000000000000000000000000000000000000000008152fd5b8c80fd5b8980fd5b823581528e9650918101918c9101610166565b8e80fd5b5050508f8e60418f7f4e487b7100000000000000000000000000000000000000000000000000000000835252fd5b8e8d60418e7f4e487b7100000000000000000000000000000000000000000000000000000000835252fd5b8b80fd5b8a80fd5b8880fd5b8680fd5b8480fd5b5080fd5b9181601f840112156104195782359167ffffffffffffffff8311610419576020838186019501011161041957565b600080fdfea164736f6c6343000812000a","linkReferences":{}},"methodIdentifiers":{"getVotingPower(uint32,address,bytes,bytes)":"871d81b7"},"id":125}