{"abi":[{"type":"constructor","inputs":[{"name":"_owner","type":"address","internalType":"address"},{"name":"_vetoGuardian","type":"address","internalType":"address"},{"name":"_spaces","type":"address[]","internalType":"address[]"},{"name":"_quorum","type":"uint256","internalType":"uint256"},{"name":"_timelock","type":"address","internalType":"address"}],"stateMutability":"nonpayable"},{"type":"function","name":"acceptAdmin","inputs":[],"outputs":[],"stateMutability":"nonpayable"},{"type":"function","name":"disableSpace","inputs":[{"name":"space","type":"address","internalType":"address"}],"outputs":[],"stateMutability":"nonpayable"},{"type":"function","name":"enableSpace","inputs":[{"name":"space","type":"address","internalType":"address"}],"outputs":[],"stateMutability":"nonpayable"},{"type":"function","name":"execute","inputs":[{"name":"","type":"uint256","internalType":"uint256"},{"name":"proposal","type":"tuple","internalType":"struct Proposal","components":[{"name":"author","type":"address","internalType":"address"},{"name":"startBlockNumber","type":"uint32","internalType":"uint32"},{"name":"executionStrategy","type":"address","internalType":"contract IExecutionStrategy"},{"name":"minEndBlockNumber","type":"uint32","internalType":"uint32"},{"name":"maxEndBlockNumber","type":"uint32","internalType":"uint32"},{"name":"finalizationStatus","type":"uint8","internalType":"enum FinalizationStatus"},{"name":"executionPayloadHash","type":"bytes32","internalType":"bytes32"},{"name":"activeVotingStrategies","type":"uint256","internalType":"uint256"}]},{"name":"votesFor","type":"uint256","internalType":"uint256"},{"name":"votesAgainst","type":"uint256","internalType":"uint256"},{"name":"votesAbstain","type":"uint256","internalType":"uint256"},{"name":"payload","type":"bytes","internalType":"bytes"}],"outputs":[],"stateMutability":"nonpayable"},{"type":"function","name":"executeQueuedProposal","inputs":[{"name":"payload","type":"bytes","internalType":"bytes"}],"outputs":[],"stateMutability":"nonpayable"},{"type":"function","name":"getProposalStatus","inputs":[{"name":"proposal","type":"tuple","internalType":"struct Proposal","components":[{"name":"author","type":"address","internalType":"address"},{"name":"startBlockNumber","type":"uint32","internalType":"uint32"},{"name":"executionStrategy","type":"address","internalType":"contract IExecutionStrategy"},{"name":"minEndBlockNumber","type":"uint32","internalType":"uint32"},{"name":"maxEndBlockNumber","type":"uint32","internalType":"uint32"},{"name":"finalizationStatus","type":"uint8","internalType":"enum FinalizationStatus"},{"name":"executionPayloadHash","type":"bytes32","internalType":"bytes32"},{"name":"activeVotingStrategies","type":"uint256","internalType":"uint256"}]},{"name":"","type":"uint256","internalType":"uint256"},{"name":"votesAgainst","type":"uint256","internalType":"uint256"},{"name":"","type":"uint256","internalType":"uint256"}],"outputs":[{"name":"","type":"uint8","internalType":"enum ProposalStatus"}],"stateMutability":"view"},{"type":"function","name":"getStrategyType","inputs":[],"outputs":[{"name":"","type":"string","internalType":"string"}],"stateMutability":"pure"},{"type":"function","name":"isSpaceEnabled","inputs":[{"name":"space","type":"address","internalType":"address"}],"outputs":[{"name":"","type":"uint256","internalType":"uint256"}],"stateMutability":"view"},{"type":"function","name":"owner","inputs":[],"outputs":[{"name":"","type":"address","internalType":"address"}],"stateMutability":"view"},{"type":"function","name":"proposalExecutionTime","inputs":[{"name":"","type":"bytes32","internalType":"bytes32"}],"outputs":[{"name":"","type":"uint256","internalType":"uint256"}],"stateMutability":"view"},{"type":"function","name":"quorum","inputs":[],"outputs":[{"name":"","type":"uint256","internalType":"uint256"}],"stateMutability":"view"},{"type":"function","name":"renounceOwnership","inputs":[],"outputs":[],"stateMutability":"nonpayable"},{"type":"function","name":"setQuorum","inputs":[{"name":"_quorum","type":"uint256","internalType":"uint256"}],"outputs":[],"stateMutability":"nonpayable"},{"type":"function","name":"setUp","inputs":[{"name":"initializeParams","type":"bytes","internalType":"bytes"}],"outputs":[],"stateMutability":"nonpayable"},{"type":"function","name":"setVetoGuardian","inputs":[{"name":"newVetoGuardian","type":"address","internalType":"address"}],"outputs":[],"stateMutability":"nonpayable"},{"type":"function","name":"timelock","inputs":[],"outputs":[{"name":"","type":"address","internalType":"contract ICompTimelock"}],"stateMutability":"view"},{"type":"function","name":"timelockDelay","inputs":[],"outputs":[{"name":"","type":"uint256","internalType":"uint256"}],"stateMutability":"view"},{"type":"function","name":"transferOwnership","inputs":[{"name":"newOwner","type":"address","internalType":"address"}],"outputs":[],"stateMutability":"nonpayable"},{"type":"function","name":"veto","inputs":[{"name":"payload","type":"bytes","internalType":"bytes"}],"outputs":[],"stateMutability":"nonpayable"},{"type":"function","name":"vetoGuardian","inputs":[],"outputs":[{"name":"","type":"address","internalType":"address"}],"stateMutability":"view"},{"type":"event","name":"Initialized","inputs":[{"name":"version","type":"uint8","indexed":false,"internalType":"uint8"}],"anonymous":false},{"type":"event","name":"OptimisticCompTimelockCompatibleExecutionStrategySetUp","inputs":[{"name":"owner","type":"address","indexed":false,"internalType":"address"},{"name":"vetoGuardian","type":"address","indexed":false,"internalType":"address"},{"name":"spaces","type":"address[]","indexed":false,"internalType":"address[]"},{"name":"quorum","type":"uint256","indexed":false,"internalType":"uint256"},{"name":"timelock","type":"address","indexed":false,"internalType":"address"}],"anonymous":false},{"type":"event","name":"OwnershipTransferred","inputs":[{"name":"previousOwner","type":"address","indexed":true,"internalType":"address"},{"name":"newOwner","type":"address","indexed":true,"internalType":"address"}],"anonymous":false},{"type":"event","name":"ProposalExecuted","inputs":[{"name":"executionPayloadHash","type":"bytes32","indexed":false,"internalType":"bytes32"}],"anonymous":false},{"type":"event","name":"ProposalQueued","inputs":[{"name":"executionPayloadHash","type":"bytes32","indexed":false,"internalType":"bytes32"}],"anonymous":false},{"type":"event","name":"ProposalVetoed","inputs":[{"name":"executionPayloadHash","type":"bytes32","indexed":false,"internalType":"bytes32"}],"anonymous":false},{"type":"event","name":"QuorumUpdated","inputs":[{"name":"newQuorum","type":"uint256","indexed":false,"internalType":"uint256"}],"anonymous":false},{"type":"event","name":"SpaceDisabled","inputs":[{"name":"space","type":"address","indexed":false,"internalType":"address"}],"anonymous":false},{"type":"event","name":"SpaceEnabled","inputs":[{"name":"space","type":"address","indexed":false,"internalType":"address"}],"anonymous":false},{"type":"event","name":"TransactionExecuted","inputs":[{"name":"transaction","type":"tuple","indexed":false,"internalType":"struct MetaTransaction","components":[{"name":"to","type":"address","internalType":"address"},{"name":"value","type":"uint256","internalType":"uint256"},{"name":"data","type":"bytes","internalType":"bytes"},{"name":"operation","type":"uint8","internalType":"enum Enum.Operation"},{"name":"salt","type":"uint256","internalType":"uint256"}]}],"anonymous":false},{"type":"event","name":"TransactionQueued","inputs":[{"name":"transaction","type":"tuple","indexed":false,"internalType":"struct MetaTransaction","components":[{"name":"to","type":"address","internalType":"address"},{"name":"value","type":"uint256","internalType":"uint256"},{"name":"data","type":"bytes","internalType":"bytes"},{"name":"operation","type":"uint8","internalType":"enum Enum.Operation"},{"name":"salt","type":"uint256","internalType":"uint256"}]},{"name":"executionTime","type":"uint256","indexed":false,"internalType":"uint256"}],"anonymous":false},{"type":"event","name":"TransactionVetoed","inputs":[{"name":"transaction","type":"tuple","indexed":false,"internalType":"struct MetaTransaction","components":[{"name":"to","type":"address","internalType":"address"},{"name":"value","type":"uint256","internalType":"uint256"},{"name":"data","type":"bytes","internalType":"bytes"},{"name":"operation","type":"uint8","internalType":"enum Enum.Operation"},{"name":"salt","type":"uint256","internalType":"uint256"}]}],"anonymous":false},{"type":"event","name":"VetoGuardianSet","inputs":[{"name":"vetoGuardian","type":"address","indexed":false,"internalType":"address"},{"name":"newVetoGuardian","type":"address","indexed":false,"internalType":"address"}],"anonymous":false},{"type":"error","name":"DuplicateExecutionPayloadHash","inputs":[]},{"type":"error","name":"DuplicateMetaTransaction","inputs":[]},{"type":"error","name":"ExecutionFailed","inputs":[]},{"type":"error","name":"InvalidProposalStatus","inputs":[{"name":"status","type":"uint8","internalType":"enum ProposalStatus"}]},{"type":"error","name":"InvalidSpace","inputs":[]},{"type":"error","name":"InvalidTransaction","inputs":[]},{"type":"error","name":"OnlyVetoGuardian","inputs":[]},{"type":"error","name":"ProposalNotQueued","inputs":[]},{"type":"error","name":"TimelockDelayNotMet","inputs":[]}],"bytecode":{"object":"0x608060409080825234620003fb5762002353803803809162000022828562000400565b8339810160a082820312620003fb576200003c826200043a565b916020916200004d8383016200043a565b828601516001600160401b0392909190838311620003fb576200007b620000a091620000af9487016200044f565b946200008f6080606083015192016200043a565b9089519687948986019a8b620004c6565b03601f19810184528362000400565b60009081549260ff95868560081c161592838094620003ee575b8015620003d6575b156200037b57600195848760ff19831617875562000369575b50825183019160a084840312620003655762000106906200043a565b90620001148a85016200043a565b9260608501519182116200036157908880620001359301918601016200044f565b926200014960a0608083015192016200043a565b9360018060a01b0380808095169516951692620001778b895460081c16620001718162000531565b62000531565b620001823362000592565b338160335416036200031f578415620002cc578a9089808e620001a58962000592565b620001c860018060a01b0319958b8760685416176068558d5460081c1662000531565b8b925b6200027c575b505050509183917f11d36fe79b9c6935430ee7fdac7ca88baa0e0592b9bc5eb23abab5eaa1cbbeb19695946200022b94620002138b549e8f60081c1662000531565b8360665560695416176069558c5195869586620004c6565b0390a162000243575b8451611d779081620005dc8239f35b7f7f26b83ff96e1f2b6a682f133852f6798a09c465da95921460cefb38474024989361ff00191690558351908152a13880808062000234565b8d8651841015620002c557600584901b870181015185168d52606590528b20556000198114620002b1578a018a8e81620001cb565b634e487b7160e01b8a52601160045260248afd5b50620001d1565b8b5162461bcd60e51b8152600481018b9052602660248201527f4f776e61626c653a206e6577206f776e657220697320746865207a65726f206160448201526564647265737360d01b6064820152608490fd5b60648a8d519062461bcd60e51b825280600483015260248201527f4f776e61626c653a2063616c6c6572206973206e6f7420746865206f776e65726044820152fd5b8680fd5b8580fd5b61ffff191661010117855538620000ea565b885162461bcd60e51b815260048101889052602e60248201527f496e697469616c697a61626c653a20636f6e747261637420697320616c72656160448201526d191e481a5b9a5d1a585b1a5e995960921b6064820152608490fd5b50303b158015620000d15750600188871614620000d1565b50600188871610620000c9565b600080fd5b601f909101601f19168101906001600160401b038211908210176200042457604052565b634e487b7160e01b600052604160045260246000fd5b51906001600160a01b0382168203620003fb57565b9080601f83011215620003fb578151906001600160401b03821162000424578160051b60405193602093620004878584018762000400565b85528380860192820101928311620003fb578301905b828210620004ac575050505090565b838091620004ba846200043a565b8152019101906200049d565b9395949192909260a0850160018060a01b03809516865284602092168287015260a0604087015282518091528160c0870193019160005b8281106200051a5750505050906080929195606085015216910152565b8351871685529381019392810192600101620004fd565b156200053957565b60405162461bcd60e51b815260206004820152602b60248201527f496e697469616c697a61626c653a20636f6e7472616374206973206e6f74206960448201526a6e697469616c697a696e6760a81b6064820152608490fd5b603380546001600160a01b039283166001600160a01b0319821681179092559091167f8be0079c531659141344cd1fd0a4f28419497f9722a3daafe3b4186f6b6457e0600080a356fe6080604081815260048036101561001557600080fd5b600092833560e01c908482630e18b6811461154d57505080630eb9b15a1461148a57806312513b45146114555780631703a01814611436578063220f5fd91461139d5780634a1cead1146113765780635f578b20146111ae5780636efd971c1461116a578063715018a6146110e95780638da5cb5b146110b45780639e33d8111461102f578063a1908c6a14610af7578063a4f9edbf14610652578063ad32287f1461041a578063c1ba4e59146103cd578063d33219b414610398578063d92d4ea0146102db578063ea8f8c4b146101fb578063eef09bad146101d35763f2fde38b1461010157600080fd5b346101cf5760206003193601126101cf5761011a611633565b916101236117ba565b73ffffffffffffffffffffffffffffffffffffffff83161561014c578361014984611839565b80f35b90602060849251917f08c379a0000000000000000000000000000000000000000000000000000000008352820152602660248201527f4f776e61626c653a206e6577206f776e657220697320746865207a65726f206160448201527f64647265737300000000000000000000000000000000000000000000000000006064820152fd5b8280fd5b5050346101f757816003193601126101f7576020906101f06119fc565b9051908152f35b5080fd5b5091346102d85760031936019061016082126102d85750610100136102d35780519161022683611699565b3573ffffffffffffffffffffffffffffffffffffffff9081811681036102d357835263ffffffff9060243582811681036102d357602085015260443590811681036102d3578284015260643581811681036102d357606084015260843590811681036102d357608083015260a43560038110156102d357826102c49160a06102cf95015260c43560c082015260e43560e082015261012435906118a6565b905191829182611778565b0390f35b600080fd5b80fd5b5090346101cf5760206003193601126101cf5773ffffffffffffffffffffffffffffffffffffffff61030b611633565b6103136117ba565b169182158015610384575b61035d5750816020917fc3dc08a46232e8d0a95510120799f1e68e0aa28c88730b8b0127d5ff4565b4b09385526065835260018186205551908152a180f35b90517fc3b48cf1000000000000000000000000000000000000000000000000000000008152fd5b50828452606560205281842054151561031e565b5050346101f757816003193601126101f75760209073ffffffffffffffffffffffffffffffffffffffff606954169051908152f35b50346101cf5760206003193601126101cf577ff18f88786aae85a652aadb99a82462616489a33370c9bcc7b245906812ef7cd191602091359061040e6117ba565b8160665551908152a180f35b5082346102d857602090816003193601126102d85767ffffffffffffffff9083358281116101f75761044f9036908601611731565b9182519484840195862095868452606786528784205494851561062a57878552606787528885205442106106025790866104999289875260678252868b8120558051010190611ad6565b93835b85518110156105d55788858773ffffffffffffffffffffffffffffffffffffffff8a838861052689886104f08b8860695416986104d9828c611c7e565b515116976104e7828c611c7e565b51015199611c7e565b5101519851988997889687957f0825f38f0000000000000000000000000000000000000000000000000000000087528601611cc1565b03925af180156105cb57610587575b50807f2968e6e48e1461dc6f6934a21a5ea27fad9b6786850ad93f47c2caa4f95fde1361057a610568610582948a611c7e565b518c519182918c83528c830190611d0c565b0390a1611c22565b61049c565b3d8087833e61059681836116b6565b81019088818303126105c7578051908682116105c357916105bc91610582949301611a91565b5090610535565b8780fd5b8680fd5b8a513d88823e3d90fd5b847f7b1bcf1ccf901a11589afff5504d59fd0a53780eed2a952adade0348985139e0888a8c51908152a180f35b8289517f65aecf1d000000000000000000000000000000000000000000000000000000008152fd5b8289517f599fb1a3000000000000000000000000000000000000000000000000000000008152fd5b50346101cf5760209081600319360112610af35767ffffffffffffffff928135848111610aef576106869036908401611731565b85549260ff95868560081c161592838094610ae3575b8015610acd575b15610a4b5760019584877fffffffffffffffffffffffffffffffffffffffffffffffffffffffffffffff008316178b55610a1d575b50805181019160a082898501940312610a19576106f6888301611938565b610701878401611938565b916060840151908111610a1557830184603f82011215610a1557898101519461072986611959565b916107368a5193846116b6565b8683528b8301908a829860051b820101928311610a1157908c8f9796959493928c01915b8383106109ed575050505061077660a060808601519501611938565b966107ad8d73ffffffffffffffffffffffffffffffffffffffff808080971697169a16975460081c166107a881611971565b611971565b6107b633611839565b6107be6117ba565b831561096b57508b8d8b808c8f6107d98998999d9c9d611839565b6108137fffffffffffffffffffffffff0000000000000000000000000000000000000000968d886068541617606855865460081c16611971565b84925b610912575b50505050906108318792549e8f60081c16611971565b85606655606954161760695588519560a087019287528b87015260a0898701525180915260c0850195918c905b8a8c8484106108fa575050505050509282917f11d36fe79b9c6935430ee7fdac7ca88baa0e0592b9bc5eb23abab5eaa1cbbeb194606084015260808301520390a16108a7578480f35b7fffffffffffffffffffffffffffffffffffffffffffffffffffffffffffff00ff7f7f26b83ff96e1f2b6a682f133852f6798a09c465da95921460cefb38474024989416855551908152a1388080808480f35b855183168a529889019890940193919091019061085e565b8a879d9c9d99989995929394955185101561095a5750918491606585948a61093d610949988c611c7e565b51168352522055611c22565b908f918c8f839c9b9c989798610816565b5082919493509b9a9b97969761081b565b6084908c8b51917f08c379a0000000000000000000000000000000000000000000000000000000008352820152602660248201527f4f776e61626c653a206e6577206f776e657220697320746865207a65726f206160448201527f64647265737300000000000000000000000000000000000000000000000000006064820152fd5b82939495969798506109ff8293611938565b81520191018c8f97969594939261075a565b8e80fd5b8b80fd5b8980fd5b7fffffffffffffffffffffffffffffffffffffffffffffffffffffffffffff000016610101178955386106d8565b608483888751917f08c379a0000000000000000000000000000000000000000000000000000000008352820152602e60248201527f496e697469616c697a61626c653a20636f6e747261637420697320616c72656160448201527f647920696e697469616c697a65640000000000000000000000000000000000006064820152fd5b50303b1580156106a357506001888716146106a3565b5060018887161061069c565b8580fd5b8380fd5b509190346101f7576101a06003193601126101f7576101007fffffffffffffffffffffffffffffffffffffffffffffffffffffffffffffffdc3601126102d357805192610b4384611699565b602480359373ffffffffffffffffffffffffffffffffffffffff9485811681036102d35786526044359263ffffffff9283851685036102d3576020948589015260643587811681036102d357868901526084359380851685036102d357606094858a015260a43590811681036102d357608089015260c43560038110156102d35760a089015260c088019660e43588526101043560e08a01526101843567ffffffffffffffff811161102b57610bfc9036908501611731565b9833855260658752878520541561100357610c1b9061014435906118a6565b6007811015610fd857600381141580610fcd575b610f965750875184526067865286842054610f6e57610c4c6119fc565b420198894211610f4357610c759089518652606788528a89872055878082518301019101611ad6565b94845b8651811015610f145781610c8c8289611c7e565b5101516002811015610ee957600114610ec1578887610d0e8a610ce28f88610cb48887611c7e565b5151169580610cd18986610cc8828b611c7e565b51015198611c7e565b510151905195869485019788611cc1565b037fffffffffffffffffffffffffffffffffffffffffffffffffffffffffffffffe081018352826116b6565b5190208360695416908a51907ff2b065370000000000000000000000000000000000000000000000000000000082528782015289818781855afa908115610eb7578891610e81575b50610e595788888b928e8a8a610dba8a610d708a88611c7e565b5151169388610d848b8a6104e7828c611c7e565b5101519851988997889687957f3a66f9010000000000000000000000000000000000000000000000000000000087528601611cc1565b03925af18015610e4f57908991610e26575b5050807f43bc9641fb109444334c2b11fbab28e69b005b810a5449bbf63c36d64277ffe58c8b610dff610e21958c611c7e565b5191610e148251938385948552840190611d0c565b908d8301520390a1611c22565b610c78565b813d8311610e48575b610e3981836116b6565b81010312610aef578738610dcc565b503d610e2f565b8a513d89823e3d90fd5b858a517fa9c71800000000000000000000000000000000000000000000000000000000008152fd5b90508981813d8311610eb0575b610e9881836116b6565b810103126105c3575180151581036105c35738610d56565b503d610e8e565b8b513d8a823e3d90fd5b8489517f500a07ce000000000000000000000000000000000000000000000000000000008152fd5b84876021887f4e487b7100000000000000000000000000000000000000000000000000000000835252fd5b857f4e8c9d52084f3373dec7c4e5c6bd10b8b97fe0a107841ed1de3fbc8f0cc9e984898b8d519051908152a180f35b82856011867f4e487b7100000000000000000000000000000000000000000000000000000000835252fd5b8287517fa65ca451000000000000000000000000000000000000000000000000000000008152fd5b83610fc989519283927fe6ace38e0000000000000000000000000000000000000000000000000000000084528301611778565b0390fd5b506002811415610c2f565b82856021867f4e487b7100000000000000000000000000000000000000000000000000000000835252fd5b8388517fc3b48cf1000000000000000000000000000000000000000000000000000000008152fd5b8480fd5b5090346101cf5760206003193601126101cf5773ffffffffffffffffffffffffffffffffffffffff61105f611633565b6110676117ba565b16918284526065602052818420541561035d5750816020917f665604bfe8ee87044ba1f1fd2fb47fe92983c9e187acbb442debf97d3e58192193855260658352848181205551908152a180f35b5050346101f757816003193601126101f75760209073ffffffffffffffffffffffffffffffffffffffff603354169051908152f35b83346102d857806003193601126102d8576111026117ba565b600073ffffffffffffffffffffffffffffffffffffffff6033547fffffffffffffffffffffffff00000000000000000000000000000000000000008116603355167f8be0079c531659141344cd1fd0a4f28419497f9722a3daafe3b4186f6b6457e08280a380f35b5050346101f75760206003193601126101f7578060209273ffffffffffffffffffffffffffffffffffffffff61119e611633565b1681526065845220549051908152f35b5082346102d857602090816003193601126102d857823567ffffffffffffffff81116101f7576111e19036908501611731565b908151918381019283209473ffffffffffffffffffffffffffffffffffffffff938460685416330361134e57868452606786528784205492831561062a5790868261122f9351010190611ad6565b93835b85518110156113155781606954168261124b8389611c7e565b515116908861125a848a611c7e565b510151908b611269858b611c7e565b51015192813b15611311579088929183888f8b6112b29151988997889687957f591fcdfe0000000000000000000000000000000000000000000000000000000087528601611cc1565b03925af180156105cb579086916112fd575b5050807fd1b81bfb063589ab54815d5be869dc9e891c1e0a0d307fde4fde6ce242fde81861057a6105686112f8948a611c7e565b611232565b61130690611656565b61102b57848a6112c4565b8880fd5b847f0c8bf601915d1f39ef591226bc69b3becc23fcb3616673c419062aa44beb42da888a8c81855260678352848181205551908152a180f35b5086517ffa5e8f94000000000000000000000000000000000000000000000000000000008152fd5b50346101cf5760206003193601126101cf5760209282913581526067845220549051908152f35b5050346101f75760206003193601126101f7577fffffffffffffffffffffffff00000000000000000000000000000000000000006113d9611633565b916113e26117ba565b7fcf29bde14aae78ac738504abe3fd1a25675f3c52c42e5d2d7e85b549cd0c4b806068549180519473ffffffffffffffffffffffffffffffffffffffff9081851687521694856020820152a1161760685580f35b5050346101f757816003193601126101f7576020906066549051908152f35b5050346101f757816003193601126101f75760209073ffffffffffffffffffffffffffffffffffffffff606854169051908152f35b5091346102d857806003193601126102d857508051906060820182811067ffffffffffffffff82111761151f576102cf93508152602682527f436f6d7054696d656c6f636b436f6d70617469626c654f7074696d697374696360208301527f51756f72756d000000000000000000000000000000000000000000000000000081830152519182916020835260208301906115f0565b6041847f4e487b71000000000000000000000000000000000000000000000000000000006000525260246000fd5b91509291346101f757816003193601126101f75773ffffffffffffffffffffffffffffffffffffffff6069541690813b156101cf57848381937f0e18b6810000000000000000000000000000000000000000000000000000000083525af19081156115c457506115bb575080f35b61014990611656565b513d84823e3d90fd5b60005b8381106115e05750506000910152565b81810151838201526020016115d0565b907fffffffffffffffffffffffffffffffffffffffffffffffffffffffffffffffe0601f60209361162c815180928187528780880191016115cd565b0116010190565b6004359073ffffffffffffffffffffffffffffffffffffffff821682036102d357565b67ffffffffffffffff811161166a57604052565b7f4e487b7100000000000000000000000000000000000000000000000000000000600052604160045260246000fd5b610100810190811067ffffffffffffffff82111761166a57604052565b90601f7fffffffffffffffffffffffffffffffffffffffffffffffffffffffffffffffe0910116810190811067ffffffffffffffff82111761166a57604052565b67ffffffffffffffff811161166a57601f017fffffffffffffffffffffffffffffffffffffffffffffffffffffffffffffffe01660200190565b81601f820112156102d357803590611748826116f7565b9261175660405194856116b6565b828452602083830101116102d357816000926020809301838601378301015290565b91906020830192600782101561178b5752565b7f4e487b7100000000000000000000000000000000000000000000000000000000600052602160045260246000fd5b73ffffffffffffffffffffffffffffffffffffffff6033541633036117db57565b60646040517f08c379a000000000000000000000000000000000000000000000000000000000815260206004820152602060248201527f4f776e61626c653a2063616c6c6572206973206e6f7420746865206f776e65726044820152fd5b6033549073ffffffffffffffffffffffffffffffffffffffff80911691827fffffffffffffffffffffffff0000000000000000000000000000000000000000821617603355167f8be0079c531659141344cd1fd0a4f28419497f9722a3daafe3b4186f6b6457e0600080a3565b9060665411159060a081018051600381101561178b576002036118cb57505050600690565b51600381101561178b576001036118e3575050600490565b63ffffffff9182602083015116431060001461190157505050600090565b1561190d575050600590565b60608101518216431015611922575050600190565b608001511643101561193357600290565b600390565b519073ffffffffffffffffffffffffffffffffffffffff821682036102d357565b67ffffffffffffffff811161166a5760051b60200190565b1561197857565b60846040517f08c379a000000000000000000000000000000000000000000000000000000000815260206004820152602b60248201527f496e697469616c697a61626c653a20636f6e7472616374206973206e6f74206960448201527f6e697469616c697a696e670000000000000000000000000000000000000000006064820152fd5b6004602073ffffffffffffffffffffffffffffffffffffffff60695416604051928380927f6a42b8f80000000000000000000000000000000000000000000000000000000082525afa908115611a8557600091611a57575090565b906020823d8211611a7d575b81611a70602093836116b6565b810103126102d857505190565b3d9150611a63565b6040513d6000823e3d90fd5b81601f820112156102d3578051611aa7816116f7565b92611ab560405194856116b6565b818452602082840101116102d357611ad391602080850191016115cd565b90565b9060209081838203126102d357825167ffffffffffffffff938482116102d357019080601f830112156102d3578151611b0e81611959565b946040611b1d815197886116b6565b828752858088019360051b860101948486116102d357868101935b868510611b4a57505050505050505090565b84518481116102d35782019060a090817fffffffffffffffffffffffffffffffffffffffffffffffffffffffffffffffe0848a0301126102d357845182810181811088821117611bf4578652611ba18b8501611938565b8152858401518b820152606092838501518881116102d3578a8d611bc792880101611a91565b87830152608090818601519560028710156102d3578d968796850152015190820152815201940193611b38565b602460007f4e487b710000000000000000000000000000000000000000000000000000000081526041600452fd5b7fffffffffffffffffffffffffffffffffffffffffffffffffffffffffffffffff8114611c4f5760010190565b7f4e487b7100000000000000000000000000000000000000000000000000000000600052601160045260246000fd5b8051821015611c925760209160051b010190565b7f4e487b7100000000000000000000000000000000000000000000000000000000600052603260045260246000fd5b94939260809273ffffffffffffffffffffffffffffffffffffffff611d0793168752602087015260a06040870152600060a087015260c0606087015260c08601906115f0565b930152565b9073ffffffffffffffffffffffffffffffffffffffff825116815260208201516020820152611d4a604083015160a0604084015260a08301906115f0565b916060810151600281101561178b5760608301526080908101519101529056fea164736f6c6343000812000a","linkReferences":{}},"methodIdentifiers":{"acceptAdmin()":"0e18b681","disableSpace(address)":"9e33d811","enableSpace(address)":"d92d4ea0","execute(uint256,(address,uint32,address,uint32,uint32,uint8,bytes32,uint256),uint256,uint256,uint256,bytes)":"a1908c6a","executeQueuedProposal(bytes)":"ad32287f","getProposalStatus((address,uint32,address,uint32,uint32,uint8,bytes32,uint256),uint256,uint256,uint256)":"ea8f8c4b","getStrategyType()":"0eb9b15a","isSpaceEnabled(address)":"6efd971c","owner()":"8da5cb5b","proposalExecutionTime(bytes32)":"4a1cead1","quorum()":"1703a018","renounceOwnership()":"715018a6","setQuorum(uint256)":"c1ba4e59","setUp(bytes)":"a4f9edbf","setVetoGuardian(address)":"220f5fd9","timelock()":"d33219b4","timelockDelay()":"eef09bad","transferOwnership(address)":"f2fde38b","veto(bytes)":"5f578b20","vetoGuardian()":"12513b45"},"id":93}