{"abi":[{"type":"constructor","inputs":[{"name":"tokenName","type":"string","internalType":"string"},{"name":"symbol","type":"string","internalType":"string"}],"stateMutability":"nonpayable"},{"type":"function","name":"CLOCK_MODE","inputs":[],"outputs":[{"name":"","type":"string","internalType":"string"}],"stateMutability":"view"},{"type":"function","name":"DOMAIN_SEPARATOR","inputs":[],"outputs":[{"name":"","type":"bytes32","internalType":"bytes32"}],"stateMutability":"view"},{"type":"function","name":"allowance","inputs":[{"name":"owner","type":"address","internalType":"address"},{"name":"spender","type":"address","internalType":"address"}],"outputs":[{"name":"","type":"uint256","internalType":"uint256"}],"stateMutability":"view"},{"type":"function","name":"approve","inputs":[{"name":"spender","type":"address","internalType":"address"},{"name":"amount","type":"uint256","internalType":"uint256"}],"outputs":[{"name":"","type":"bool","internalType":"bool"}],"stateMutability":"nonpayable"},{"type":"function","name":"balanceOf","inputs":[{"name":"account","type":"address","internalType":"address"}],"outputs":[{"name":"","type":"uint256","internalType":"uint256"}],"stateMutability":"view"},{"type":"function","name":"burn","inputs":[{"name":"from","type":"address","internalType":"address"},{"name":"amount","type":"uint256","internalType":"uint256"}],"outputs":[],"stateMutability":"nonpayable"},{"type":"function","name":"checkpoints","inputs":[{"name":"account","type":"address","internalType":"address"},{"name":"pos","type":"uint32","internalType":"uint32"}],"outputs":[{"name":"","type":"tuple","internalType":"struct ERC20Votes.Checkpoint","components":[{"name":"fromBlock","type":"uint32","internalType":"uint32"},{"name":"votes","type":"uint224","internalType":"uint224"}]}],"stateMutability":"view"},{"type":"function","name":"clock","inputs":[],"outputs":[{"name":"","type":"uint48","internalType":"uint48"}],"stateMutability":"view"},{"type":"function","name":"decimals","inputs":[],"outputs":[{"name":"","type":"uint8","internalType":"uint8"}],"stateMutability":"view"},{"type":"function","name":"decreaseAllowance","inputs":[{"name":"spender","type":"address","internalType":"address"},{"name":"subtractedValue","type":"uint256","internalType":"uint256"}],"outputs":[{"name":"","type":"bool","internalType":"bool"}],"stateMutability":"nonpayable"},{"type":"function","name":"delegate","inputs":[{"name":"delegatee","type":"address","internalType":"address"}],"outputs":[],"stateMutability":"nonpayable"},{"type":"function","name":"delegateBySig","inputs":[{"name":"delegatee","type":"address","internalType":"address"},{"name":"nonce","type":"uint256","internalType":"uint256"},{"name":"expiry","type":"uint256","internalType":"uint256"},{"name":"v","type":"uint8","internalType":"uint8"},{"name":"r","type":"bytes32","internalType":"bytes32"},{"name":"s","type":"bytes32","internalType":"bytes32"}],"outputs":[],"stateMutability":"nonpayable"},{"type":"function","name":"delegates","inputs":[{"name":"account","type":"address","internalType":"address"}],"outputs":[{"name":"","type":"address","internalType":"address"}],"stateMutability":"view"},{"type":"function","name":"eip712Domain","inputs":[],"outputs":[{"name":"fields","type":"bytes1","internalType":"bytes1"},{"name":"name","type":"string","internalType":"string"},{"name":"version","type":"string","internalType":"string"},{"name":"chainId","type":"uint256","internalType":"uint256"},{"name":"verifyingContract","type":"address","internalType":"address"},{"name":"salt","type":"bytes32","internalType":"bytes32"},{"name":"extensions","type":"uint256[]","internalType":"uint256[]"}],"stateMutability":"view"},{"type":"function","name":"getPastTotalSupply","inputs":[{"name":"timepoint","type":"uint256","internalType":"uint256"}],"outputs":[{"name":"","type":"uint256","internalType":"uint256"}],"stateMutability":"view"},{"type":"function","name":"getPastVotes","inputs":[{"name":"account","type":"address","internalType":"address"},{"name":"timepoint","type":"uint256","internalType":"uint256"}],"outputs":[{"name":"","type":"uint256","internalType":"uint256"}],"stateMutability":"view"},{"type":"function","name":"getVotes","inputs":[{"name":"account","type":"address","internalType":"address"}],"outputs":[{"name":"","type":"uint256","internalType":"uint256"}],"stateMutability":"view"},{"type":"function","name":"increaseAllowance","inputs":[{"name":"spender","type":"address","internalType":"address"},{"name":"addedValue","type":"uint256","internalType":"uint256"}],"outputs":[{"name":"","type":"bool","internalType":"bool"}],"stateMutability":"nonpayable"},{"type":"function","name":"mint","inputs":[{"name":"to","type":"address","internalType":"address"},{"name":"amount","type":"uint256","internalType":"uint256"}],"outputs":[],"stateMutability":"nonpayable"},{"type":"function","name":"name","inputs":[],"outputs":[{"name":"","type":"string","internalType":"string"}],"stateMutability":"view"},{"type":"function","name":"nonces","inputs":[{"name":"owner","type":"address","internalType":"address"}],"outputs":[{"name":"","type":"uint256","internalType":"uint256"}],"stateMutability":"view"},{"type":"function","name":"numCheckpoints","inputs":[{"name":"account","type":"address","internalType":"address"}],"outputs":[{"name":"","type":"uint32","internalType":"uint32"}],"stateMutability":"view"},{"type":"function","name":"permit","inputs":[{"name":"owner","type":"address","internalType":"address"},{"name":"spender","type":"address","internalType":"address"},{"name":"value","type":"uint256","internalType":"uint256"},{"name":"deadline","type":"uint256","internalType":"uint256"},{"name":"v","type":"uint8","internalType":"uint8"},{"name":"r","type":"bytes32","internalType":"bytes32"},{"name":"s","type":"bytes32","internalType":"bytes32"}],"outputs":[],"stateMutability":"nonpayable"},{"type":"function","name":"symbol","inputs":[],"outputs":[{"name":"","type":"string","internalType":"string"}],"stateMutability":"view"},{"type":"function","name":"totalSupply","inputs":[],"outputs":[{"name":"","type":"uint256","internalType":"uint256"}],"stateMutability":"view"},{"type":"function","name":"transfer","inputs":[{"name":"to","type":"address","internalType":"address"},{"name":"amount","type":"uint256","internalType":"uint256"}],"outputs":[{"name":"","type":"bool","internalType":"bool"}],"stateMutability":"nonpayable"},{"type":"function","name":"transferFrom","inputs":[{"name":"from","type":"address","internalType":"address"},{"name":"to","type":"address","internalType":"address"},{"name":"amount","type":"uint256","internalType":"uint256"}],"outputs":[{"name":"","type":"bool","internalType":"bool"}],"stateMutability":"nonpayable"},{"type":"event","name":"Approval","inputs":[{"name":"owner","type":"address","indexed":true,"internalType":"address"},{"name":"spender","type":"address","indexed":true,"internalType":"address"},{"name":"value","type":"uint256","indexed":false,"internalType":"uint256"}],"anonymous":false},{"type":"event","name":"DelegateChanged","inputs":[{"name":"delegator","type":"address","indexed":true,"internalType":"address"},{"name":"fromDelegate","type":"address","indexed":true,"internalType":"address"},{"name":"toDelegate","type":"address","indexed":true,"internalType":"address"}],"anonymous":false},{"type":"event","name":"DelegateVotesChanged","inputs":[{"name":"delegate","type":"address","indexed":true,"internalType":"address"},{"name":"previousBalance","type":"uint256","indexed":false,"internalType":"uint256"},{"name":"newBalance","type":"uint256","indexed":false,"internalType":"uint256"}],"anonymous":false},{"type":"event","name":"EIP712DomainChanged","inputs":[],"anonymous":false},{"type":"event","name":"Transfer","inputs":[{"name":"from","type":"address","indexed":true,"internalType":"address"},{"name":"to","type":"address","indexed":true,"internalType":"address"},{"name":"value","type":"uint256","indexed":false,"internalType":"uint256"}],"anonymous":false},{"type":"error","name":"InvalidShortString","inputs":[]},{"type":"error","name":"StringTooLong","inputs":[{"name":"str","type":"string","internalType":"string"}]}],"bytecode":{"object":"0x6101606040818152346200041c5762003409803803809162000022828662000421565b843982019181818403126200041c5780516001600160401b0392908381116200041c5784620000539184016200046a565b91602094858201518581116200041c576200006f92016200046a565b93815190828201828110868211176200032757835260019283835281830193603160f81b85528551878111620003275760038054918383811c9316801562000411575b86841014620003fb57601f92838111620003b0575b50808684821160011462000349576000916200033d575b5060001982841b1c191690841b1781555b895191898311620003275760049a8b548581811c911680156200031c575b888210146200030757828111620002bc575b5086918411600114620002515793839491849260009562000245575b50501b92600019911b1c19161787555b6200015685620004c5565b9361012094855262000168846200066a565b95610140968752838151910120938460e05251902096610100978089524660a0528251938401947f8b73c3c69bb8fe3d512ecc4cf759cc79239f7b179b0ffacaa9a75d522b39400f86528385015260608401524660808401523060a084015260a0835260c0830196838810908811176200023057508590525190206080523060c052612c479384620007c2853960805184612508015260a051846125c3015260c051846124d9015260e051846125570152518361257d01525182610a3401525181610a5d0152f35b604190634e487b7160e01b6000525260246000fd5b0151935038806200013b565b9190601f198416928c60005284886000209460005b8a89838310620002a4575050501062000289575b50505050811b0187556200014b565b01519060f884600019921b161c19169055388080806200027a565b86860151895590970196948501948893500162000266565b8c600052876000208380870160051c8201928a8810620002fd575b0160051c019086905b828110620002f05750506200011f565b60008155018690620002e0565b92508192620002d7565b60228d634e487b7160e01b6000525260246000fd5b90607f16906200010d565b634e487b7160e01b600052604160045260246000fd5b905089015138620000de565b60008481528881208794509190601f198416908a8e5b838310620003985750505083116200037f575b5050811b018155620000ef565b8b015160001983861b60f8161c19169055388062000372565b840151855589969094019392830192018a8e6200035f565b82600052866000208480840160051c820192898510620003f1575b0160051c019085905b828110620003e4575050620000c7565b60008155018590620003d4565b92508192620003cb565b634e487b7160e01b600052602260045260246000fd5b92607f1692620000b2565b600080fd5b601f909101601f19168101906001600160401b038211908210176200032757604052565b60005b838110620004595750506000910152565b818101518382015260200162000448565b81601f820112156200041c5780516001600160401b038111620003275760405192620004a1601f8301601f19166020018562000421565b818452602082840101116200041c57620004c2916020808501910162000445565b90565b8051602091908281101562000545575090601f825111620005035780825192015190808310620004f457501790565b82600019910360031b1b161790565b604490620005379260405193849263305a27a960e01b84528060048501528251928391826024870152868601910162000445565b601f01601f19168101030190fd5b6001600160401b03811162000327576005928354926001938481811c911680156200065f575b83821014620003fb57601f811162000628575b5081601f8411600114620005be5750928293918392600094620005b2575b50501b916000199060031b1c191617905560ff90565b0151925038806200059c565b919083601f1981168760005284600020946000905b888383106200060d5750505010620005f3575b505050811b01905560ff90565b015160001960f88460031b161c19169055388080620005e6565b858701518855909601959485019487935090810190620005d3565b8560005284601f846000209201871c820191601f8601881c015b828110620006525750506200057e565b6000815501859062000642565b90607f16906200056b565b805160209081811015620006975750601f825111620005035780825192015190808310620004f457501790565b906001600160401b0382116200032757600654926001938481811c91168015620007b6575b83821014620003fb57601f81116200077c575b5081601f841160011462000710575092829391839260009462000704575b50501b916000199060031b1c19161760065560ff90565b015192503880620006ed565b919083601f198116600660005284600020946000905b8883831062000761575050501062000747575b505050811b0160065560ff90565b015160001960f88460031b161c1916905538808062000739565b85870151885590960195948501948793509081019062000726565b600660005284601f84600020920160051c820191601f860160051c015b828110620007a9575050620006cf565b6000815501859062000799565b90607f1690620006bc56fe6080604052600436101561001257600080fd5b60003560e01c806306fdde03146101c7578063095ea7b3146101c257806318160ddd146101bd57806323b872dd146101b8578063313ce567146101b35780633644e515146101ae57806339509351146101a95780633a46b1a8146101a457806340c10f191461019f5780634bf5d7e91461019a578063587cde1e146101955780635c19a95c146101905780636fcfff451461018b57806370a08231146101865780637ecebe001461018157806384b0196e1461017c5780638e539e8c1461017757806391ddadf41461017257806395d89b411461016d5780639ab24eb0146101685780639dc29fac14610163578063a457c2d71461015e578063a9059cbb14610159578063c3cda52014610154578063d505accf1461014f578063dd62ed3e1461014a5763f1127ed81461014557600080fd5b611380565b611309565b61119e565b611037565b610ff1565b610f1e565b610dc8565b610d59565b610cb2565b610c86565b610b2d565b610a19565b6109d2565b61098b565b610936565b610914565b6108cc565b61081b565b6106eb565b61057a565b61050e565b6104eb565b6104cf565b6103db565b6103bd565b61038c565b61023e565b919082519283825260005b8481106102165750507fffffffffffffffffffffffffffffffffffffffffffffffffffffffffffffffe0601f8460006020809697860101520116010190565b6020818301810151848301820152016101d7565b90602061023b9281815201906101cc565b90565b346103415760008060031936011261033e57604051908060035461026181611424565b808552916001918083169081156102f6575060011461029b575b6102978561028b818703826114ff565b6040519182918261022a565b0390f35b9250600383527fc2575a0e9e593c00f959f8c92f12db2869c3395a3b0502d05e2516446f71f85b5b8284106102de57505050810160200161028b8261029761027b565b805460208587018101919091529093019281016102c3565b8695506102979693506020925061028b9491507fffffffffffffffffffffffffffffffffffffffffffffffffffffffffffffff001682840152151560051b820101929361027b565b80fd5b600080fd5b6004359073ffffffffffffffffffffffffffffffffffffffff8216820361034157565b6024359073ffffffffffffffffffffffffffffffffffffffff8216820361034157565b34610341576040600319360112610341576103b26103a8610346565b60243590336117d0565b602060405160018152f35b34610341576000600319360112610341576020600254604051908152f35b34610341576060600319360112610341576103f4610346565b6103fc610369565b6044359073ffffffffffffffffffffffffffffffffffffffff8316600052600160205261044d3360406000209073ffffffffffffffffffffffffffffffffffffffff16600052602052604060002090565b5492600019840361046f575b610463935061166c565b60405160018152602090f35b82841061048b5761048683610463950333836117d0565b610459565b606460405162461bcd60e51b815260206004820152601d60248201527f45524332303a20696e73756666696369656e7420616c6c6f77616e63650000006044820152fd5b3461034157600060031936011261034157602060405160128152f35b346103415760006003193601126103415760206105066124c2565b604051908152f35b3461034157604060031936011261034157610527610346565b33600052600160205261055e8160406000209073ffffffffffffffffffffffffffffffffffffffff16600052602052604060002090565b546024358101809111610575576103b291336117d0565b611540565b3461034157604060031936011261034157610593610346565b73ffffffffffffffffffffffffffffffffffffffff602435916105c765ffffffffffff6105bf43612a46565b168410611a1c565b16600052600a60205260406000208054916000836005811161069a575b50905b83821061064957505081610622575050602060005b7bffffffffffffffffffffffffffffffffffffffffffffffffffffffff60405191168152f35b61063d61064491600019602094019060005260206000200190565b5460201c90565b6105fc565b9092610655818561284c565b908263ffffffff61067a610670858860005260206000200190565b5463ffffffff1690565b16111561068a5750925b906105e7565b93506106959061156f565b610684565b806106aa6106b092969396612861565b90611a67565b908263ffffffff6106cb610670858860005260206000200190565b1611156106db5750925b386105e4565b93506106e69061156f565b6106d5565b3461034157604060031936011261034157610704610346565b60243573ffffffffffffffffffffffffffffffffffffffff82169182156107d757816107a6916107d59461074261073d8460025461157d565b600255565b61076c8273ffffffffffffffffffffffffffffffffffffffff166000526000602052604060002090565b8054840190556040518381526000907fddf252ad1be2c89b69c2b068fc378daa952ba7f163c4a11628f55a4df523b3ef90602090a3611abf565b6107d07bffffffffffffffffffffffffffffffffffffffffffffffffffffffff6002541115612b3e565b611fe0565b005b606460405162461bcd60e51b815260206004820152601f60248201527f45524332303a206d696e7420746f20746865207a65726f2061646472657373006044820152fd5b34610341576000600319360112610341574365ffffffffffff61083d43612a46565b160361088857610297604051610852816114a6565b601d81527f6d6f64653d626c6f636b6e756d6265722666726f6d3d64656661756c7400000060208201526040519182918261022a565b606460405162461bcd60e51b815260206004820152601d60248201527f4552433230566f7465733a2062726f6b656e20636c6f636b206d6f64650000006044820152fd5b3461034157602060031936011261034157602073ffffffffffffffffffffffffffffffffffffffff806108fd610346565b166000526009825260406000205416604051908152f35b34610341576020600319360112610341576107d5610930610346565b33611b97565b346103415760206003193601126103415773ffffffffffffffffffffffffffffffffffffffff610964610346565b16600052600a602052602061097d604060002054612ac3565b63ffffffff60405191168152f35b346103415760206003193601126103415773ffffffffffffffffffffffffffffffffffffffff6109b9610346565b1660005260006020526020604060002054604051908152f35b346103415760206003193601126103415773ffffffffffffffffffffffffffffffffffffffff610a00610346565b1660005260076020526020604060002054604051908152f35b346103415760008060031936011261033e57610adf90610a587f000000000000000000000000000000000000000000000000000000000000000061262a565b610a817f0000000000000000000000000000000000000000000000000000000000000000612759565b9160405191610a8f836114c7565b8183526040519485947f0f000000000000000000000000000000000000000000000000000000000000008652610ad160209360e08589015260e08801906101cc565b9086820360408801526101cc565b904660608601523060808601528260a086015284820360c08601528080855193848152019401925b828110610b1657505050500390f35b835185528695509381019392810192600101610b07565b3461034157602060031936011261034157600435610b5c65ffffffffffff610b5443612a46565b168210611a1c565b600b549060008260058111610c1f575b50905b828210610bbc578280610b89575060405160008152602090f35b600b600052602090610644907f0175b7a638427703f0dbe7bb9bbf987a2551717b34e79f33b5b1008d1fa01db80161063d565b9091610bc8818461284c565b600b600052908263ffffffff610bff7f0175b7a638427703f0dbe7bb9bbf987a2551717b34e79f33b5b1008d1fa01db98501610670565b161115610c0f5750915b90610b6f565b9250610c1a9061156f565b610c09565b806106aa610c2f92959395612861565b600b600052908263ffffffff610c667f0175b7a638427703f0dbe7bb9bbf987a2551717b34e79f33b5b1008d1fa01db98501610670565b161115610c765750915b38610b6c565b9250610c819061156f565b610c70565b34610341576000600319360112610341576020610ca243612a46565b65ffffffffffff60405191168152f35b346103415760008060031936011261033e576040519080600454610cd581611424565b808552916001918083169081156102f65750600114610cfe576102978561028b818703826114ff565b9250600483527f8a35acfbc15ff81a39ae7d344fd709f28e8600b4aa8c65c6b64bfe7fe36bd19b5b828410610d4157505050810160200161028b8261029761027b565b80546020858701810191909152909301928101610d26565b346103415760206003193601126103415773ffffffffffffffffffffffffffffffffffffffff610d87610346565b16600052600a602052604060002080548015600014610dae57505060405160008152602090f35b602091600019610dbf9201906119b3565b5054811c6105fc565b3461034157604060031936011261034157610de1610346565b60243573ffffffffffffffffffffffffffffffffffffffff8216918215610eb457818160006107d59583610e38610eaf9673ffffffffffffffffffffffffffffffffffffffff166000526000602052604060002090565b54610e4582821015612baf565b03610e708473ffffffffffffffffffffffffffffffffffffffff166000526000602052604060002090565b55610e7e8460025403600255565b6040518481527fddf252ad1be2c89b69c2b068fc378daa952ba7f163c4a11628f55a4df523b3ef90602090a3611b17565b61213e565b608460405162461bcd60e51b815260206004820152602160248201527f45524332303a206275726e2066726f6d20746865207a65726f2061646472657360448201527f73000000000000000000000000000000000000000000000000000000000000006064820152fd5b3461034157604060031936011261034157610f37610346565b60243590336000526001602052610f728160406000209073ffffffffffffffffffffffffffffffffffffffff16600052602052604060002090565b5491808310610f8757610463920390336117d0565b608460405162461bcd60e51b815260206004820152602560248201527f45524332303a2064656372656173656420616c6c6f77616e63652062656c6f7760448201527f207a65726f0000000000000000000000000000000000000000000000000000006064820152fd5b34610341576040600319360112610341576103b261100d610346565b602435903361166c565b6064359060ff8216820361034157565b6084359060ff8216820361034157565b346103415760c060031936011261034157611050610346565b6044359060243561105f611017565b9280421161115a5761111b611155916107d59560405190611103826110d76020820195898b8860609194939273ffffffffffffffffffffffffffffffffffffffff60808301967fe48329057bfd03d55e49b547132e39cffd9c1820ad7b9d4c5307691425d15adf845216602083015260408201520152565b037fffffffffffffffffffffffffffffffffffffffffffffffffffffffffffffffe081018452836114ff565b61111660a43593608435935190206125e9565b61229b565b9161114f8373ffffffffffffffffffffffffffffffffffffffff166000526007602052604060002090815491600183019055565b14611a74565b611b97565b606460405162461bcd60e51b815260206004820152601d60248201527f4552433230566f7465733a207369676e617475726520657870697265640000006044820152fd5b346103415760e0600319360112610341576111b7610346565b6111bf610369565b60443590606435926111cf611027565b938042116112c5576112a06112c0916110d76107d59761128d61121b8773ffffffffffffffffffffffffffffffffffffffff166000526007602052604060002090815491600183019055565b9360405193849160208301968c8c8c8a91959493909260a09360c08401977f6e71edae12b1b97f4d1f60370fef10105fa2faae0126114a169c64845d6126c9855273ffffffffffffffffffffffffffffffffffffffff8092166020860152166040840152606083015260808201520152565b61111660c4359360a435935190206125e9565b73ffffffffffffffffffffffffffffffffffffffff80841691161461195b565b6117d0565b606460405162461bcd60e51b815260206004820152601d60248201527f45524332305065726d69743a206578706972656420646561646c696e650000006044820152fd5b34610341576040600319360112610341576020611377611327610346565b73ffffffffffffffffffffffffffffffffffffffff611344610369565b91166000526001835260406000209073ffffffffffffffffffffffffffffffffffffffff16600052602052604060002090565b54604051908152f35b3461034157604060031936011261034157611399610346565b63ffffffff602435818116810361034157602061141261140c7bffffffffffffffffffffffffffffffffffffffffffffffffffffffff9373ffffffffffffffffffffffffffffffffffffffff6040976000868a516113f6816114a6565b828152015216600052600a8452866000206119b3565b506119fa565b84519381511684520151166020820152f35b90600182811c9216801561146d575b602083101461143e57565b7f4e487b7100000000000000000000000000000000000000000000000000000000600052602260045260246000fd5b91607f1691611433565b7f4e487b7100000000000000000000000000000000000000000000000000000000600052604160045260246000fd5b6040810190811067ffffffffffffffff8211176114c257604052565b611477565b6020810190811067ffffffffffffffff8211176114c257604052565b60c0810190811067ffffffffffffffff8211176114c257604052565b90601f7fffffffffffffffffffffffffffffffffffffffffffffffffffffffffffffffe0910116810190811067ffffffffffffffff8211176114c257604052565b7f4e487b7100000000000000000000000000000000000000000000000000000000600052601160045260246000fd5b906001820180921161057557565b9190820180921161057557565b1561159157565b608460405162461bcd60e51b815260206004820152602360248201527f45524332303a207472616e7366657220746f20746865207a65726f206164647260448201527f65737300000000000000000000000000000000000000000000000000000000006064820152fd5b1561160257565b608460405162461bcd60e51b815260206004820152602660248201527f45524332303a207472616e7366657220616d6f756e742065786365656473206260448201527f616c616e636500000000000000000000000000000000000000000000000000006064820152fd5b919073ffffffffffffffffffffffffffffffffffffffff928381168015611766576117649483169061169f82151561158a565b846116ca8473ffffffffffffffffffffffffffffffffffffffff166000526000602052604060002090565b546116d7828210156115fb565b036117028473ffffffffffffffffffffffffffffffffffffffff166000526000602052604060002090565b5561172d8473ffffffffffffffffffffffffffffffffffffffff166000526000602052604060002090565b8054860190556040518581527fddf252ad1be2c89b69c2b068fc378daa952ba7f163c4a11628f55a4df523b3ef90602090a3611b56565b565b608460405162461bcd60e51b815260206004820152602560248201527f45524332303a207472616e736665722066726f6d20746865207a65726f20616460448201527f64726573730000000000000000000000000000000000000000000000000000006064820152fd5b9073ffffffffffffffffffffffffffffffffffffffff918281169283156118f257821693841561188857806118727f8c5be1e5ebec7d5bd14f71427d1e84f3dd0314c0f7b2291e5b200ac8c7c3b9259461184d6118839573ffffffffffffffffffffffffffffffffffffffff166000526001602052604060002090565b9073ffffffffffffffffffffffffffffffffffffffff16600052602052604060002090565b556040519081529081906020820190565b0390a3565b608460405162461bcd60e51b815260206004820152602260248201527f45524332303a20617070726f766520746f20746865207a65726f20616464726560448201527f73730000000000000000000000000000000000000000000000000000000000006064820152fd5b608460405162461bcd60e51b8152602060048201526024808201527f45524332303a20617070726f76652066726f6d20746865207a65726f2061646460448201527f72657373000000000000000000000000000000000000000000000000000000006064820152fd5b1561196257565b606460405162461bcd60e51b815260206004820152601e60248201527f45524332305065726d69743a20696e76616c6964207369676e617475726500006044820152fd5b60405190611764826114a6565b80548210156119cb5760005260206000200190600090565b7f4e487b7100000000000000000000000000000000000000000000000000000000600052603260045260246000fd5b90604051611a07816114a6565b602081935463ffffffff81168352811c910152565b15611a2357565b606460405162461bcd60e51b815260206004820152601960248201527f4552433230566f7465733a20667574757265206c6f6f6b7570000000000000006044820152fd5b9190820391821161057557565b15611a7b57565b606460405162461bcd60e51b815260206004820152601960248201527f4552433230566f7465733a20696e76616c6964206e6f6e6365000000000000006044820152fd5b60096020527fec8156718a8372b1db44bb411437d0870f3e3790d4a08526d024ce1b0b668f6b5473ffffffffffffffffffffffffffffffffffffffff9182166000908152604090205461176493929081169116611c2a565b906117649173ffffffffffffffffffffffffffffffffffffffff8091166000526009602052806040600020541690600080526040600020541690611c2a565b90611764929173ffffffffffffffffffffffffffffffffffffffff809116600052600960205280806040600020541692166000526040600020541690611c2a565b6117649173ffffffffffffffffffffffffffffffffffffffff8092166000928184526009602052806040852054168092856020527f3134e8a2e6d97e929a7e54011ea5485d7d196dd5f0ba4d4ef95803e8e3fc257f60408720549660096020526040812094871694857fffffffffffffffffffffffff000000000000000000000000000000000000000082541617905580a45b919073ffffffffffffffffffffffffffffffffffffffff80821693168381141580611ebd575b611c5b575b50505050565b80611cdb575b5082611c6e575b80611c55565b7fdec2bacdd2f05b59de34da9b523dff8be42e5e38e818c82fdb0bae774387a72491611cbd611cc29273ffffffffffffffffffffffffffffffffffffffff16600052600a602052604060002090565b6121cb565b60408051928352602083019190915290a2388080611c68565b80600052600a6020527fdec2bacdd2f05b59de34da9b523dff8be42e5e38e818c82fdb0bae774387a7246040600020805480159182600014611e9a57611d1f6119a6565b6000815260006020820152915b611d79611d5860208501517bffffffffffffffffffffffffffffffffffffffffffffffffffffffff1690565b7bffffffffffffffffffffffffffffffffffffffffffffffffffffffff1690565b92611d848985612c20565b94159081611e77575b5015611e0057611db5611dea92600019611da6876129b3565b93019060005260206000200190565b9063ffffffff7fffffffffffffffffffffffffffffffffffffffffffffffffffffffff0000000083549260201b169116179055565b604080519182526020820192909252a238611c61565b50611e7290611e24611e1f611e1443612a46565b65ffffffffffff1690565b612ac3565b90611e6d611e31866129b3565b611e48611e3c6119a6565b63ffffffff9095168552565b7bffffffffffffffffffffffffffffffffffffffffffffffffffffffff166020840152565b611f4d565b611dea565b5163ffffffff16905063ffffffff611e91611e1443612a46565b91161438611d8d565b611eb7611eb260001984018360005260206000200190565b6119fa565b91611d2c565b50821515611c50565b600b5490680100000000000000008210156114c2576001820180600b558210156119cb57600b600052805160209182015190911b7fffffffffffffffffffffffffffffffffffffffffffffffffffffffff000000001663ffffffff91909116177f0175b7a638427703f0dbe7bb9bbf987a2551717b34e79f33b5b1008d1fa01db990910155565b8054680100000000000000008110156114c257611f6f916001820181556119b3565b611fb157815160209283015190921b7fffffffffffffffffffffffffffffffffffffffffffffffffffffffff000000001663ffffffff92909216919091179055565b7f4e487b7100000000000000000000000000000000000000000000000000000000600052600060045260246000fd5b600b549091811591821561210957611ff66119a6565b60008152600060208201525b612038612031611d5860208401517bffffffffffffffffffffffffffffffffffffffffffffffffffffffff1690565b9586612c2d565b931590816120e6575b50156120865761176490611db560001961205a866129b3565b9201600b6000527f0175b7a638427703f0dbe7bb9bbf987a2551717b34e79f33b5b1008d1fa01db90190565b50611764612099611e1f611e1443612a46565b6120e16120a5856129b3565b6120bc6120b06119a6565b63ffffffff9094168452565b7bffffffffffffffffffffffffffffffffffffffffffffffffffffffff166020830152565b611ec6565b5163ffffffff16905063ffffffff612100611e1443612a46565b91161438612041565b600b6000526121397f0175b7a638427703f0dbe7bb9bbf987a2551717b34e79f33b5b1008d1fa01db882016119fa565b612002565b600b5490918115918215612196576121546119a6565b60008152600060208201525b61203861218f611d5860208401517bffffffffffffffffffffffffffffffffffffffffffffffffffffffff1690565b9586612c20565b600b6000526121c67f0175b7a638427703f0dbe7bb9bbf987a2551717b34e79f33b5b1008d1fa01db882016119fa565b612160565b90918154918215928360001461227e576121e36119a6565b60008152600060208201525b61222561221e611d5860208401517bffffffffffffffffffffffffffffffffffffffffffffffffffffffff1690565b9687612c2d565b9415908161225b575b501561224757611db561176492600019611da6876129b3565b5061176490611e24611e1f611e1443612a46565b5163ffffffff16905063ffffffff612275611e1443612a46565b9116143861222e565b612296611eb260001983018460005260206000200190565b6121ef565b9161023b93916122aa93612426565b9190916122eb565b600511156122bc57565b7f4e487b7100000000000000000000000000000000000000000000000000000000600052602160045260246000fd5b6122f4816122b2565b806122fc5750565b612305816122b2565b600181036123525760405162461bcd60e51b815260206004820152601860248201527f45434453413a20696e76616c6964207369676e617475726500000000000000006044820152606490fd5b61235b816122b2565b600281036123a85760405162461bcd60e51b815260206004820152601f60248201527f45434453413a20696e76616c6964207369676e6174757265206c656e677468006044820152606490fd5b806123b46003926122b2565b146123bb57565b60405162461bcd60e51b815260206004820152602260248201527f45434453413a20696e76616c6964207369676e6174757265202773272076616c60448201527f75650000000000000000000000000000000000000000000000000000000000006064820152608490fd5b9291907f7fffffffffffffffffffffffffffffff5d576e7357a4501ddfe92f46681b20a083116124b65791608094939160ff602094604051948552168484015260408301526060820152600093849182805260015afa156124a957815173ffffffffffffffffffffffffffffffffffffffff8116156124a3579190565b50600190565b50604051903d90823e3d90fd5b50505050600090600390565b73ffffffffffffffffffffffffffffffffffffffff7f0000000000000000000000000000000000000000000000000000000000000000163014806125c0575b1561252a577f000000000000000000000000000000000000000000000000000000000000000090565b60405160208101907f8b73c3c69bb8fe3d512ecc4cf759cc79239f7b179b0ffacaa9a75d522b39400f82527f000000000000000000000000000000000000000000000000000000000000000060408201527f000000000000000000000000000000000000000000000000000000000000000060608201524660808201523060a082015260a081526125ba816114e3565b51902090565b507f00000000000000000000000000000000000000000000000000000000000000004614612501565b6042906125f46124c2565b90604051917f19010000000000000000000000000000000000000000000000000000000000008352600283015260228201522090565b60ff81146126805760ff811690601f8211612656576040519161264c836114a6565b8252602082015290565b60046040517fb3512b0c000000000000000000000000000000000000000000000000000000008152fd5b5060405160055481600061269383611424565b8083529260019081811690811561271957506001146126ba575b5061023b925003826114ff565b6005600090815291507f036b6384b5eca791c62761152d0c79bb0604c104a5fb6f4eb0703f3154bb3db05b8483106126fe575061023b9350508101602001386126ad565b819350908160209254838589010152019101909184926126e5565b6020935061023b9592507fffffffffffffffffffffffffffffffffffffffffffffffffffffffffffffff0091501682840152151560051b820101386126ad565b60ff811461277b5760ff811690601f8211612656576040519161264c836114a6565b5060405160065481600061278e83611424565b8083529260019081811690811561271957506001146127b4575061023b925003826114ff565b6006600090815291507ff652222313e28459528d920b65115c16c04f3efc82aaedc97be59f3f377c0d3f5b8483106127f8575061023b9350508101602001386126ad565b819350908160209254838589010152019101909184926127df565b811561281d570490565b7f4e487b7100000000000000000000000000000000000000000000000000000000600052601260045260246000fd5b90808216911860011c81018091116105755790565b801561299b578061293461292d61292361291961290f6129056128fb6128f1600161023b9a6000908b60801c8061298f575b508060401c80612982575b508060201c80612975575b508060101c80612968575b508060081c8061295b575b508060041c8061294e575b508060021c80612941575b50821c61293a575b811c1b6128ea818b612813565b0160011c90565b6128ea818a612813565b6128ea8189612813565b6128ea8188612813565b6128ea8187612813565b6128ea8186612813565b6128ea8185612813565b8092612813565b906129a1565b81016128dd565b60029150910190386128d5565b60049150910190386128ca565b60089150910190386128bf565b60109150910190386128b4565b60209150910190386128a9565b604091509101903861289e565b91505060809038612893565b50600090565b90808210156129ae575090565b905090565b7bffffffffffffffffffffffffffffffffffffffffffffffffffffffff908181116129dc571690565b608460405162461bcd60e51b815260206004820152602760248201527f53616665436173743a2076616c756520646f65736e27742066697420696e203260448201527f32342062697473000000000000000000000000000000000000000000000000006064820152fd5b65ffffffffffff90818111612a59571690565b608460405162461bcd60e51b815260206004820152602660248201527f53616665436173743a2076616c756520646f65736e27742066697420696e203460448201527f38206269747300000000000000000000000000000000000000000000000000006064820152fd5b63ffffffff90818111612ad4571690565b608460405162461bcd60e51b815260206004820152602660248201527f53616665436173743a2076616c756520646f65736e27742066697420696e203360448201527f32206269747300000000000000000000000000000000000000000000000000006064820152fd5b15612b4557565b608460405162461bcd60e51b815260206004820152603060248201527f4552433230566f7465733a20746f74616c20737570706c79207269736b73206f60448201527f766572666c6f77696e6720766f746573000000000000000000000000000000006064820152fd5b15612bb657565b608460405162461bcd60e51b815260206004820152602260248201527f45524332303a206275726e20616d6f756e7420657863656564732062616c616e60448201527f63650000000000000000000000000000000000000000000000000000000000006064820152fd5b9081039081116105755790565b908101809111610575579056fea164736f6c6343000812000a","linkReferences":{}},"methodIdentifiers":{"CLOCK_MODE()":"4bf5d7e9","DOMAIN_SEPARATOR()":"3644e515","allowance(address,address)":"dd62ed3e","approve(address,uint256)":"095ea7b3","balanceOf(address)":"70a08231","burn(address,uint256)":"9dc29fac","checkpoints(address,uint32)":"f1127ed8","clock()":"91ddadf4","decimals()":"313ce567","decreaseAllowance(address,uint256)":"a457c2d7","delegate(address)":"5c19a95c","delegateBySig(address,uint256,uint256,uint8,bytes32,bytes32)":"c3cda520","delegates(address)":"587cde1e","eip712Domain()":"84b0196e","getPastTotalSupply(uint256)":"8e539e8c","getPastVotes(address,uint256)":"3a46b1a8","getVotes(address)":"9ab24eb0","increaseAllowance(address,uint256)":"39509351","mint(address,uint256)":"40c10f19","name()":"06fdde03","nonces(address)":"7ecebe00","numCheckpoints(address)":"6fcfff45","permit(address,address,uint256,uint256,uint8,bytes32,bytes32)":"d505accf","symbol()":"95d89b41","totalSupply()":"18160ddd","transfer(address,uint256)":"a9059cbb","transferFrom(address,address,uint256)":"23b872dd"},"id":159}