{"abi":[{"type":"function","name":"deploy","inputs":[{"name":"_initCode","type":"bytes","internalType":"bytes"},{"name":"_salt","type":"bytes32","internalType":"bytes32"}],"outputs":[{"name":"createdContract","type":"address","internalType":"address payable"}],"stateMutability":"nonpayable"}],"bytecode":{"object":"0x6080806040523461001657610164908161001c8239f35b600080fdfe6080604052600436101561001257600080fd5b6000803560e01c634af63f021461002857600080fd5b346101255760407ffffffffffffffffffffffffffffffffffffffffffffffffffffffffffffffffc360112610125576004359067ffffffffffffffff9081831161012557366023840112156101255782600401359282841161012057604051927fffffffffffffffffffffffffffffffffffffffffffffffffffffffffffffffe0603f81601f880116011684019084821090821117610120576040528383526020830190366024868301011161011c57602085610118966024869401853785010152602435925191f560405173ffffffffffffffffffffffffffffffffffffffff90911681529081906020820190565b0390f35b8280fd5b610128565b80fd5b7f4e487b7100000000000000000000000000000000000000000000000000000000600052604160045260246000fdfea164736f6c6343000812000a","linkReferences":{}},"methodIdentifiers":{"deploy(bytes,bytes32)":"4af63f02"},"id":17}