{"abi":[{"type":"receive","stateMutability":"payable"},{"type":"function","name":"disableModule","inputs":[{"name":"_module","type":"address","internalType":"address"}],"outputs":[],"stateMutability":"nonpayable"},{"type":"function","name":"enableModule","inputs":[{"name":"_module","type":"address","internalType":"address"}],"outputs":[],"stateMutability":"nonpayable"},{"type":"function","name":"execTransactionFromModule","inputs":[{"name":"to","type":"address","internalType":"address payable"},{"name":"value","type":"uint256","internalType":"uint256"},{"name":"data","type":"bytes","internalType":"bytes"},{"name":"operation","type":"uint8","internalType":"uint8"}],"outputs":[{"name":"success","type":"bool","internalType":"bool"}],"stateMutability":"nonpayable"},{"type":"function","name":"getModulesPaginated","inputs":[{"name":"","type":"address","internalType":"address"},{"name":"","type":"uint256","internalType":"uint256"}],"outputs":[{"name":"array","type":"address[]","internalType":"address[]"},{"name":"next","type":"address","internalType":"address"}],"stateMutability":"pure"},{"type":"function","name":"isModuleEnabled","inputs":[{"name":"_module","type":"address","internalType":"address"}],"outputs":[{"name":"","type":"bool","internalType":"bool"}],"stateMutability":"view"},{"type":"error","name":"NotAuthorized","inputs":[]}],"bytecode":{"object":"0x60808060405234610016576104a9908161001c8239f35b600080fdfe60806040818152600436101561001f575b5050361561001d57600080fd5b005b600091823560e01c9081632d9ad53d1461037857508063468721a71461023d578063610b5925146101bb578063a95f52461461013c5763cc2f845203610010573461013857807ffffffffffffffffffffffffffffffffffffffffffffffffffffffffffffffffc360112610138576100956103dc565b508051906020928383019183831067ffffffffffffffff84111761010b5782815281845280519381850191855251809152606084019290825b8181106100e15750505082938301520390f35b825173ffffffffffffffffffffffffffffffffffffffff16855293860193918601916001016100ce565b6024827f4e487b710000000000000000000000000000000000000000000000000000000081526041600452fd5b5080fd5b50346101385760207ffffffffffffffffffffffffffffffffffffffffffffffffffffffffffffffffc3601126101385773ffffffffffffffffffffffffffffffffffffffff6101896103dc565b1682528160205281207fffffffffffffffffffffffffffffffffffffffffffffffffffffffffffffff00815416905580f35b50346101385760207ffffffffffffffffffffffffffffffffffffffffffffffffffffffffffffffffc3601126101385773ffffffffffffffffffffffffffffffffffffffff6102086103dc565b16825281602052812060017fffffffffffffffffffffffffffffffffffffffffffffffffffffffffffffff0082541617905580f35b50346101385760807ffffffffffffffffffffffffffffffffffffffffffffffffffffffffffffffffc360112610138576004359173ffffffffffffffffffffffffffffffffffffffff83168093036103755767ffffffffffffffff604435818111610371573660238201121561037157806004013591821161037157602481019060248336920101116103715760643560ff811680910361036d573384528360205260ff8585205416156103445791602095916001859414600014610320578186519283928337810184815203915af4610315610404565b50905b519015158152f35b818651928392833781018481520391602435905af161033d610404565b5090610318565b600485517fea8e4eb5000000000000000000000000000000000000000000000000000000008152fd5b8380fd5b8280fd5b80fd5b919050346103715760207ffffffffffffffffffffffffffffffffffffffffffffffffffffffffffffffffc3601126103715760ff9060209373ffffffffffffffffffffffffffffffffffffffff6103cd6103dc565b16815280855220541615158152f35b6004359073ffffffffffffffffffffffffffffffffffffffff821682036103ff57565b600080fd5b3d156104975767ffffffffffffffff903d82811161046857604051927fffffffffffffffffffffffffffffffffffffffffffffffffffffffffffffffe0603f81601f8501160116840190848210908211176104685760405282523d6000602084013e565b7f4e487b7100000000000000000000000000000000000000000000000000000000600052604160045260246000fd5b60609056fea164736f6c6343000812000a","linkReferences":{}},"methodIdentifiers":{"disableModule(address)":"a95f5246","enableModule(address)":"610b5925","execTransactionFromModule(address,uint256,bytes,uint8)":"468721a7","getModulesPaginated(address,uint256)":"cc2f8452","isModuleEnabled(address)":"2d9ad53d"},"id":156}