{"abi":[{"type":"function","name":"validate","inputs":[{"name":"","type":"address","internalType":"address"},{"name":"","type":"bytes","internalType":"bytes"},{"name":"","type":"bytes","internalType":"bytes"}],"outputs":[{"name":"","type":"bool","internalType":"bool"}],"stateMutability":"nonpayable"}],"bytecode":{"object":"0x608080604052346100155760f8908161001b8239f35b600080fdfe6080806040526004361015601257600080fd5b600090813560e01c630721609514602857600080fd5b3460b75760607ffffffffffffffffffffffffffffffffffffffffffffffffffffffffffffffffc36011260b75760043573ffffffffffffffffffffffffffffffffffffffff81160360b75767ffffffffffffffff9160243583811160b757609290369060040160bb565b505060443592831160b4575060ac602092369060040160bb565b505060018152f35b80fd5b5080fd5b9181601f8401121560e65782359167ffffffffffffffff831160e6576020838186019501011160e657565b600080fdfea164736f6c6343000812000a","linkReferences":{}},"methodIdentifiers":{"validate(address,bytes,bytes)":"07216095"},"id":115}