{"abi":[{"type":"function","name":"transferEth","inputs":[{"name":"to","type":"address","internalType":"address payable"},{"name":"amount","type":"uint256","internalType":"uint256"}],"outputs":[],"stateMutability":"nonpayable"}],"bytecode":{"object":"0x608080604052346100155760b2908161001b8239f35b600080fdfe60806040526004361015601157600080fd5b6000803560e01c63e9bb84c214602657600080fd5b3460a25760407ffffffffffffffffffffffffffffffffffffffffffffffffffffffffffffffffc36011260a2578060043573ffffffffffffffffffffffffffffffffffffffff8116809103609f5781808092602435908282156097575bf115608b5780f35b604051903d90823e3d90fd5b506108fc6083565b50fd5b80fdfea164736f6c6343000812000a","linkReferences":{}},"methodIdentifiers":{"transferEth(address,uint256)":"e9bb84c2"},"id":160}