{"abi":[{"type":"constructor","inputs":[],"stateMutability":"nonpayable"},{"type":"function","name":"CLOCK_MODE","inputs":[],"outputs":[{"name":"","type":"string","internalType":"string"}],"stateMutability":"view"},{"type":"function","name":"DOMAIN_SEPARATOR","inputs":[],"outputs":[{"name":"","type":"bytes32","internalType":"bytes32"}],"stateMutability":"view"},{"type":"function","name":"allowance","inputs":[{"name":"owner","type":"address","internalType":"address"},{"name":"spender","type":"address","internalType":"address"}],"outputs":[{"name":"","type":"uint256","internalType":"uint256"}],"stateMutability":"view"},{"type":"function","name":"approve","inputs":[{"name":"spender","type":"address","internalType":"address"},{"name":"amount","type":"uint256","internalType":"uint256"}],"outputs":[{"name":"","type":"bool","internalType":"bool"}],"stateMutability":"nonpayable"},{"type":"function","name":"balanceOf","inputs":[{"name":"account","type":"address","internalType":"address"}],"outputs":[{"name":"","type":"uint256","internalType":"uint256"}],"stateMutability":"view"},{"type":"function","name":"burn","inputs":[{"name":"from","type":"address","internalType":"address"},{"name":"amount","type":"uint256","internalType":"uint256"}],"outputs":[],"stateMutability":"nonpayable"},{"type":"function","name":"checkpoints","inputs":[{"name":"account","type":"address","internalType":"address"},{"name":"pos","type":"uint32","internalType":"uint32"}],"outputs":[{"name":"","type":"tuple","internalType":"struct ERC20Votes.Checkpoint","components":[{"name":"fromBlock","type":"uint32","internalType":"uint32"},{"name":"votes","type":"uint224","internalType":"uint224"}]}],"stateMutability":"view"},{"type":"function","name":"clock","inputs":[],"outputs":[{"name":"","type":"uint48","internalType":"uint48"}],"stateMutability":"view"},{"type":"function","name":"decimals","inputs":[],"outputs":[{"name":"","type":"uint8","internalType":"uint8"}],"stateMutability":"view"},{"type":"function","name":"decreaseAllowance","inputs":[{"name":"spender","type":"address","internalType":"address"},{"name":"subtractedValue","type":"uint256","internalType":"uint256"}],"outputs":[{"name":"","type":"bool","internalType":"bool"}],"stateMutability":"nonpayable"},{"type":"function","name":"delegate","inputs":[{"name":"delegatee","type":"address","internalType":"address"}],"outputs":[],"stateMutability":"nonpayable"},{"type":"function","name":"delegateBySig","inputs":[{"name":"delegatee","type":"address","internalType":"address"},{"name":"nonce","type":"uint256","internalType":"uint256"},{"name":"expiry","type":"uint256","internalType":"uint256"},{"name":"v","type":"uint8","internalType":"uint8"},{"name":"r","type":"bytes32","internalType":"bytes32"},{"name":"s","type":"bytes32","internalType":"bytes32"}],"outputs":[],"stateMutability":"nonpayable"},{"type":"function","name":"delegates","inputs":[{"name":"account","type":"address","internalType":"address"}],"outputs":[{"name":"","type":"address","internalType":"address"}],"stateMutability":"view"},{"type":"function","name":"eip712Domain","inputs":[],"outputs":[{"name":"fields","type":"bytes1","internalType":"bytes1"},{"name":"name","type":"string","internalType":"string"},{"name":"version","type":"string","internalType":"string"},{"name":"chainId","type":"uint256","internalType":"uint256"},{"name":"verifyingContract","type":"address","internalType":"address"},{"name":"salt","type":"bytes32","internalType":"bytes32"},{"name":"extensions","type":"uint256[]","internalType":"uint256[]"}],"stateMutability":"view"},{"type":"function","name":"getCurrentVotes","inputs":[{"name":"account","type":"address","internalType":"address"}],"outputs":[{"name":"","type":"uint96","internalType":"uint96"}],"stateMutability":"view"},{"type":"function","name":"getPastTotalSupply","inputs":[{"name":"timepoint","type":"uint256","internalType":"uint256"}],"outputs":[{"name":"","type":"uint256","internalType":"uint256"}],"stateMutability":"view"},{"type":"function","name":"getPastVotes","inputs":[{"name":"account","type":"address","internalType":"address"},{"name":"timepoint","type":"uint256","internalType":"uint256"}],"outputs":[{"name":"","type":"uint256","internalType":"uint256"}],"stateMutability":"view"},{"type":"function","name":"getPriorVotes","inputs":[{"name":"account","type":"address","internalType":"address"},{"name":"blockNumber","type":"uint256","internalType":"uint256"}],"outputs":[{"name":"","type":"uint96","internalType":"uint96"}],"stateMutability":"view"},{"type":"function","name":"getVotes","inputs":[{"name":"account","type":"address","internalType":"address"}],"outputs":[{"name":"","type":"uint256","internalType":"uint256"}],"stateMutability":"view"},{"type":"function","name":"increaseAllowance","inputs":[{"name":"spender","type":"address","internalType":"address"},{"name":"addedValue","type":"uint256","internalType":"uint256"}],"outputs":[{"name":"","type":"bool","internalType":"bool"}],"stateMutability":"nonpayable"},{"type":"function","name":"mint","inputs":[{"name":"to","type":"address","internalType":"address"},{"name":"amount","type":"uint256","internalType":"uint256"}],"outputs":[],"stateMutability":"nonpayable"},{"type":"function","name":"name","inputs":[],"outputs":[{"name":"","type":"string","internalType":"string"}],"stateMutability":"view"},{"type":"function","name":"nonces","inputs":[{"name":"owner","type":"address","internalType":"address"}],"outputs":[{"name":"","type":"uint256","internalType":"uint256"}],"stateMutability":"view"},{"type":"function","name":"numCheckpoints","inputs":[{"name":"account","type":"address","internalType":"address"}],"outputs":[{"name":"","type":"uint32","internalType":"uint32"}],"stateMutability":"view"},{"type":"function","name":"permit","inputs":[{"name":"owner","type":"address","internalType":"address"},{"name":"spender","type":"address","internalType":"address"},{"name":"value","type":"uint256","internalType":"uint256"},{"name":"deadline","type":"uint256","internalType":"uint256"},{"name":"v","type":"uint8","internalType":"uint8"},{"name":"r","type":"bytes32","internalType":"bytes32"},{"name":"s","type":"bytes32","internalType":"bytes32"}],"outputs":[],"stateMutability":"nonpayable"},{"type":"function","name":"symbol","inputs":[],"outputs":[{"name":"","type":"string","internalType":"string"}],"stateMutability":"view"},{"type":"function","name":"totalSupply","inputs":[],"outputs":[{"name":"","type":"uint256","internalType":"uint256"}],"stateMutability":"view"},{"type":"function","name":"transfer","inputs":[{"name":"to","type":"address","internalType":"address"},{"name":"amount","type":"uint256","internalType":"uint256"}],"outputs":[{"name":"","type":"bool","internalType":"bool"}],"stateMutability":"nonpayable"},{"type":"function","name":"transferFrom","inputs":[{"name":"from","type":"address","internalType":"address"},{"name":"to","type":"address","internalType":"address"},{"name":"amount","type":"uint256","internalType":"uint256"}],"outputs":[{"name":"","type":"bool","internalType":"bool"}],"stateMutability":"nonpayable"},{"type":"event","name":"Approval","inputs":[{"name":"owner","type":"address","indexed":true,"internalType":"address"},{"name":"spender","type":"address","indexed":true,"internalType":"address"},{"name":"value","type":"uint256","indexed":false,"internalType":"uint256"}],"anonymous":false},{"type":"event","name":"DelegateChanged","inputs":[{"name":"delegator","type":"address","indexed":true,"internalType":"address"},{"name":"fromDelegate","type":"address","indexed":true,"internalType":"address"},{"name":"toDelegate","type":"address","indexed":true,"internalType":"address"}],"anonymous":false},{"type":"event","name":"DelegateVotesChanged","inputs":[{"name":"delegate","type":"address","indexed":true,"internalType":"address"},{"name":"previousBalance","type":"uint256","indexed":false,"internalType":"uint256"},{"name":"newBalance","type":"uint256","indexed":false,"internalType":"uint256"}],"anonymous":false},{"type":"event","name":"EIP712DomainChanged","inputs":[],"anonymous":false},{"type":"event","name":"Transfer","inputs":[{"name":"from","type":"address","indexed":true,"internalType":"address"},{"name":"to","type":"address","indexed":true,"internalType":"address"},{"name":"value","type":"uint256","indexed":false,"internalType":"uint256"}],"anonymous":false},{"type":"error","name":"InvalidShortString","inputs":[]},{"type":"error","name":"StringTooLong","inputs":[{"name":"str","type":"string","internalType":"string"}]}],"bytecode":{"object":"0x6101606040818152346200041b57620000188262000420565b600491828152602091828201906315195cdd60e21b938483528151946200003f8662000420565b86865281860152815191620000548362000420565b86835263151154d560e21b82840152805192620000718462000420565b6001808552603160f81b84860190815288516001600160401b03999193918a821162000406576003918254918583811c93168015620003fb575b89841014620002fd578190601f93848111620003a5575b5089908483116001146200033e5760009262000332575b505060001982851b1c191690851b1782555b8251928b84116200031d578c548581811c9116801562000312575b89821014620002fd57828111620002b2575b508791841160011462000247579383949184926000956200023b575b50501b92600019911b1c19161788555b6200014f8662000452565b9461012095865262000161856200062c565b96610140978852519020938460e05251902096610100978089524660a0528251938401947f8b73c3c69bb8fe3d512ecc4cf759cc79239f7b179b0ffacaa9a75d522b39400f86528385015260608401524660808401523060a084015260a0835260c0830196838810908811176200022657508590525190206080523060c052612d729384620007e58539608051846125b0015260a0518461266b015260c05184612581015260e051846125ff01525183612625015251826109360152518161095f0152f35b604190634e487b7160e01b6000525260246000fd5b01519350388062000134565b9190601f198416928d60005284896000209460005b8b898383106200029a57505050106200027f575b50505050811b01885562000144565b01519060f884600019921b161c191690553880808062000270565b8686015189559097019694850194889350016200025c565b8d600052886000208380870160051c8201928b8810620002f3575b0160051c019086905b828110620002e657505062000118565b60008155018690620002d6565b92508192620002cd565b60228e634e487b7160e01b6000525260246000fd5b90607f169062000106565b60418d634e487b7160e01b6000525260246000fd5b015190503880620000d9565b90879350601f19831691866000528b6000209260005b8d8282106200038e575050841162000375575b505050811b018255620000eb565b015160001983871b60f8161c1916905538808062000367565b8385015186558b9790950194938401930162000354565b90915084600052896000208480850160051c8201928c8610620003f1575b918991869594930160051c01915b828110620003e1575050620000c2565b60008155859450899101620003d1565b92508192620003c3565b92607f1692620000ab565b60418c634e487b7160e01b6000525260246000fd5b600080fd5b604081019081106001600160401b038211176200043c57604052565b634e487b7160e01b600052604160045260246000fd5b80516020919082811015620004f1575090601f8251116200049057808251920151908083106200048157501790565b82600019910360031b1b161790565b90604051809263305a27a960e01b82528060048301528251908160248401526000935b828510620004d7575050604492506000838284010152601f80199101168101030190fd5b8481018201518686016044015293810193859350620004b3565b6001600160401b0381116200043c576005928354926001938481811c9116801562000621575b838210146200060b57601f8111620005d4575b5081601f84116001146200056a57509282939183926000946200055e575b50501b916000199060031b1c191617905560ff90565b01519250388062000548565b919083601f1981168760005284600020946000905b88838310620005b957505050106200059f575b505050811b01905560ff90565b015160001960f88460031b161c1916905538808062000592565b8587015188559096019594850194879350908101906200057f565b8560005284601f846000209201871c820191601f8601881c015b828110620005fe5750506200052a565b60008155018590620005ee565b634e487b7160e01b600052602260045260246000fd5b90607f169062000517565b805160209081811015620006ba5750601f8251116200065957808251920151908083106200048157501790565b90604051809263305a27a960e01b82528060048301528251908160248401526000935b828510620006a0575050604492506000838284010152601f80199101168101030190fd5b84810182015186860160440152938101938593506200067c565b906001600160401b0382116200043c57600654926001938481811c91168015620007d9575b838210146200060b57601f81116200079f575b5081601f841160011462000733575092829391839260009462000727575b50501b916000199060031b1c19161760065560ff90565b01519250388062000710565b919083601f198116600660005284600020946000905b888383106200078457505050106200076a575b505050811b0160065560ff90565b015160001960f88460031b161c191690553880806200075c565b85870151885590960195948501948793509081019062000749565b600660005284601f84600020920160051c820191601f860160051c015b828110620007cc575050620006f2565b60008155018590620007bc565b90607f1690620006df56fe6080604052600436101561001257600080fd5b60003560e01c806306fdde03146101e7578063095ea7b3146101e257806318160ddd146101dd57806323b872dd146101d8578063313ce567146101d35780633644e515146101ce57806339509351146101c95780633a46b1a8146101c457806340c10f19146101bf5780634bf5d7e9146101ba578063587cde1e146101b55780635c19a95c146101b05780636fcfff45146101ab57806370a08231146101a6578063782d6fe1146101a15780637ecebe001461019c57806384b0196e146101975780638e539e8c1461019257806391ddadf41461018d57806395d89b41146101885780639ab24eb0146101835780639dc29fac1461017e578063a457c2d714610179578063a9059cbb14610174578063b4b5ea571461016f578063c3cda5201461016a578063d505accf14610165578063dd62ed3e146101605763f1127ed81461015b57600080fd5b61128a565b611213565b6110a8565b610f41565b610f00565b610eda565b610e07565b610cb1565b610c8e565b610be7565b610bbb565b610a2f565b61091b565b6108d4565b610898565b610851565b6107fc565b6107da565b610792565b6106e1565b6105c1565b61059a565b61052e565b61050b565b6104ef565b6103fb565b6103dd565b6103ac565b61025e565b919082519283825260005b8481106102365750507fffffffffffffffffffffffffffffffffffffffffffffffffffffffffffffffe0601f8460006020809697860101520116010190565b6020818301810151848301820152016101f7565b90602061025b9281815201906101ec565b90565b346103615760008060031936011261035e5760405190806003546102818161132e565b8085529160019180831690811561031657506001146102bb575b6102b7856102ab81870382611409565b6040519182918261024a565b0390f35b9250600383527fc2575a0e9e593c00f959f8c92f12db2869c3395a3b0502d05e2516446f71f85b5b8284106102fe5750505081016020016102ab826102b761029b565b805460208587018101919091529093019281016102e3565b8695506102b7969350602092506102ab9491507fffffffffffffffffffffffffffffffffffffffffffffffffffffffffffffff001682840152151560051b820101929361029b565b80fd5b600080fd5b6004359073ffffffffffffffffffffffffffffffffffffffff8216820361036157565b6024359073ffffffffffffffffffffffffffffffffffffffff8216820361036157565b34610361576040600319360112610361576103d26103c8610366565b60243590336116da565b602060405160018152f35b34610361576000600319360112610361576020600254604051908152f35b3461036157606060031936011261036157610414610366565b61041c610389565b6044359073ffffffffffffffffffffffffffffffffffffffff8316600052600160205261046d3360406000209073ffffffffffffffffffffffffffffffffffffffff16600052602052604060002090565b5492600019840361048f575b6104839350611576565b60405160018152602090f35b8284106104ab576104a683610483950333836116da565b610479565b606460405162461bcd60e51b815260206004820152601d60248201527f45524332303a20696e73756666696369656e7420616c6c6f77616e63650000006044820152fd5b3461036157600060031936011261036157602060405160128152f35b3461036157600060031936011261036157602061052661256a565b604051908152f35b3461036157604060031936011261036157610547610366565b33600052600160205261057e8160406000209073ffffffffffffffffffffffffffffffffffffffff16600052602052604060002090565b546024358101809111610595576103d291336116da565b61144a565b346103615760406003193601126103615760206105266105b8610366565b602435906119dc565b34610361576040600319360112610361576105da610366565b60243573ffffffffffffffffffffffffffffffffffffffff821691821561069d578161067c9161069b9461061861061384600254611487565b600255565b6106428273ffffffffffffffffffffffffffffffffffffffff166000526000602052604060002090565b8054840190556040518381526000907fddf252ad1be2c89b69c2b068fc378daa952ba7f163c4a11628f55a4df523b3ef90602090a3611b67565b6106966bffffffffffffffffffffffff6002541115612c69565b612088565b005b606460405162461bcd60e51b815260206004820152601f60248201527f45524332303a206d696e7420746f20746865207a65726f2061646472657373006044820152fd5b34610361576000600319360112610361574365ffffffffffff61070343612b71565b160361074e576102b7604051610718816113b0565b601d81527f6d6f64653d626c6f636b6e756d6265722666726f6d3d64656661756c7400000060208201526040519182918261024a565b606460405162461bcd60e51b815260206004820152601d60248201527f4552433230566f7465733a2062726f6b656e20636c6f636b206d6f64650000006044820152fd5b3461036157602060031936011261036157602073ffffffffffffffffffffffffffffffffffffffff806107c3610366565b166000526009825260406000205416604051908152f35b346103615760206003193601126103615761069b6107f6610366565b33611c3f565b346103615760206003193601126103615773ffffffffffffffffffffffffffffffffffffffff61082a610366565b16600052600a6020526020610843604060002054612bee565b63ffffffff60405191168152f35b346103615760206003193601126103615773ffffffffffffffffffffffffffffffffffffffff61087f610366565b1660005260006020526020604060002054604051908152f35b346103615760406003193601126103615760206108be6108b96105b8610366565b612aee565b6bffffffffffffffffffffffff60405191168152f35b346103615760206003193601126103615773ffffffffffffffffffffffffffffffffffffffff610902610366565b1660005260076020526020604060002054604051908152f35b346103615760008060031936011261035e576109e19061095a7f00000000000000000000000000000000000000000000000000000000000000006126d2565b6109837f0000000000000000000000000000000000000000000000000000000000000000612801565b9160405191610991836113d1565b8183526040519485947f0f0000000000000000000000000000000000000000000000000000000000000086526109d360209360e08589015260e08801906101ec565b9086820360408801526101ec565b904660608601523060808601528260a086015284820360c08601528080855193848152019401925b828110610a1857505050500390f35b835185528695509381019392810192600101610a09565b3461036157602060031936011261036157600435610a5e65ffffffffffff610a5643612b71565b168210611991565b600b549060008260058111610b4e575b50905b828210610ae5578280610aaa5750602060005b7bffffffffffffffffffffffffffffffffffffffffffffffffffffffff60405191168152f35b600b600052602090610ae0907f0175b7a638427703f0dbe7bb9bbf987a2551717b34e79f33b5b1008d1fa01db8015b5460201c90565b610a84565b9091610af181846128f4565b600b600052908263ffffffff610b2e7f0175b7a638427703f0dbe7bb9bbf987a2551717b34e79f33b5b1008d1fa01db985015b5463ffffffff1690565b161115610b3e5750915b90610a71565b9250610b4990611479565b610b38565b80610b5e610b6492959395612909565b90611b0f565b600b600052908263ffffffff610b9b7f0175b7a638427703f0dbe7bb9bbf987a2551717b34e79f33b5b1008d1fa01db98501610b24565b161115610bab5750915b38610a6e565b9250610bb690611479565b610ba5565b34610361576000600319360112610361576020610bd743612b71565b65ffffffffffff60405191168152f35b346103615760008060031936011261035e576040519080600454610c0a8161132e565b808552916001918083169081156103165750600114610c33576102b7856102ab81870382611409565b9250600483527f8a35acfbc15ff81a39ae7d344fd709f28e8600b4aa8c65c6b64bfe7fe36bd19b5b828410610c765750505081016020016102ab826102b761029b565b80546020858701810191909152909301928101610c5b565b34610361576020600319360112610361576020610526610cac610366565b611926565b3461036157604060031936011261036157610cca610366565b60243573ffffffffffffffffffffffffffffffffffffffff8216918215610d9d578181600061069b9583610d21610d989673ffffffffffffffffffffffffffffffffffffffff166000526000602052604060002090565b54610d2e82821015612cda565b03610d598473ffffffffffffffffffffffffffffffffffffffff166000526000602052604060002090565b55610d678460025403600255565b6040518481527fddf252ad1be2c89b69c2b068fc378daa952ba7f163c4a11628f55a4df523b3ef90602090a3611bbf565b6121e6565b608460405162461bcd60e51b815260206004820152602160248201527f45524332303a206275726e2066726f6d20746865207a65726f2061646472657360448201527f73000000000000000000000000000000000000000000000000000000000000006064820152fd5b3461036157604060031936011261036157610e20610366565b60243590336000526001602052610e5b8160406000209073ffffffffffffffffffffffffffffffffffffffff16600052602052604060002090565b5491808310610e7057610483920390336116da565b608460405162461bcd60e51b815260206004820152602560248201527f45524332303a2064656372656173656420616c6c6f77616e63652062656c6f7760448201527f207a65726f0000000000000000000000000000000000000000000000000000006064820152fd5b34610361576040600319360112610361576103d2610ef6610366565b6024359033611576565b346103615760206003193601126103615760206108be6108b9610cac610366565b6064359060ff8216820361036157565b6084359060ff8216820361036157565b346103615760c060031936011261036157610f5a610366565b60443590602435610f69610f21565b928042116110645761102561105f9161069b956040519061100d82610fe16020820195898b8860609194939273ffffffffffffffffffffffffffffffffffffffff60808301967fe48329057bfd03d55e49b547132e39cffd9c1820ad7b9d4c5307691425d15adf845216602083015260408201520152565b037fffffffffffffffffffffffffffffffffffffffffffffffffffffffffffffffe08101845283611409565b61102060a4359360843593519020612691565b612343565b916110598373ffffffffffffffffffffffffffffffffffffffff166000526007602052604060002090815491600183019055565b14611b1c565b611c3f565b606460405162461bcd60e51b815260206004820152601d60248201527f4552433230566f7465733a207369676e617475726520657870697265640000006044820152fd5b346103615760e0600319360112610361576110c1610366565b6110c9610389565b60443590606435926110d9610f31565b938042116111cf576111aa6111ca91610fe161069b976111976111258773ffffffffffffffffffffffffffffffffffffffff166000526007602052604060002090815491600183019055565b9360405193849160208301968c8c8c8a91959493909260a09360c08401977f6e71edae12b1b97f4d1f60370fef10105fa2faae0126114a169c64845d6126c9855273ffffffffffffffffffffffffffffffffffffffff8092166020860152166040840152606083015260808201520152565b61102060c4359360a43593519020612691565b73ffffffffffffffffffffffffffffffffffffffff808416911614611865565b6116da565b606460405162461bcd60e51b815260206004820152601d60248201527f45524332305065726d69743a206578706972656420646561646c696e650000006044820152fd5b34610361576040600319360112610361576020611281611231610366565b73ffffffffffffffffffffffffffffffffffffffff61124e610389565b91166000526001835260406000209073ffffffffffffffffffffffffffffffffffffffff16600052602052604060002090565b54604051908152f35b34610361576040600319360112610361576112a3610366565b63ffffffff602435818116810361036157602061131c6113167bffffffffffffffffffffffffffffffffffffffffffffffffffffffff9373ffffffffffffffffffffffffffffffffffffffff6040976000868a51611300816113b0565b828152015216600052600a8452866000206118bd565b50611904565b84519381511684520151166020820152f35b90600182811c92168015611377575b602083101461134857565b7f4e487b7100000000000000000000000000000000000000000000000000000000600052602260045260246000fd5b91607f169161133d565b7f4e487b7100000000000000000000000000000000000000000000000000000000600052604160045260246000fd5b6040810190811067ffffffffffffffff8211176113cc57604052565b611381565b6020810190811067ffffffffffffffff8211176113cc57604052565b60c0810190811067ffffffffffffffff8211176113cc57604052565b90601f7fffffffffffffffffffffffffffffffffffffffffffffffffffffffffffffffe0910116810190811067ffffffffffffffff8211176113cc57604052565b7f4e487b7100000000000000000000000000000000000000000000000000000000600052601160045260246000fd5b906001820180921161059557565b9190820180921161059557565b1561149b57565b608460405162461bcd60e51b815260206004820152602360248201527f45524332303a207472616e7366657220746f20746865207a65726f206164647260448201527f65737300000000000000000000000000000000000000000000000000000000006064820152fd5b1561150c57565b608460405162461bcd60e51b815260206004820152602660248201527f45524332303a207472616e7366657220616d6f756e742065786365656473206260448201527f616c616e636500000000000000000000000000000000000000000000000000006064820152fd5b919073ffffffffffffffffffffffffffffffffffffffff9283811680156116705761166e948316906115a9821515611494565b846115d48473ffffffffffffffffffffffffffffffffffffffff166000526000602052604060002090565b546115e182821015611505565b0361160c8473ffffffffffffffffffffffffffffffffffffffff166000526000602052604060002090565b556116378473ffffffffffffffffffffffffffffffffffffffff166000526000602052604060002090565b8054860190556040518581527fddf252ad1be2c89b69c2b068fc378daa952ba7f163c4a11628f55a4df523b3ef90602090a3611bfe565b565b608460405162461bcd60e51b815260206004820152602560248201527f45524332303a207472616e736665722066726f6d20746865207a65726f20616460448201527f64726573730000000000000000000000000000000000000000000000000000006064820152fd5b9073ffffffffffffffffffffffffffffffffffffffff918281169283156117fc578216938415611792578061177c7f8c5be1e5ebec7d5bd14f71427d1e84f3dd0314c0f7b2291e5b200ac8c7c3b9259461175761178d9573ffffffffffffffffffffffffffffffffffffffff166000526001602052604060002090565b9073ffffffffffffffffffffffffffffffffffffffff16600052602052604060002090565b556040519081529081906020820190565b0390a3565b608460405162461bcd60e51b815260206004820152602260248201527f45524332303a20617070726f766520746f20746865207a65726f20616464726560448201527f73730000000000000000000000000000000000000000000000000000000000006064820152fd5b608460405162461bcd60e51b8152602060048201526024808201527f45524332303a20617070726f76652066726f6d20746865207a65726f2061646460448201527f72657373000000000000000000000000000000000000000000000000000000006064820152fd5b1561186c57565b606460405162461bcd60e51b815260206004820152601e60248201527f45524332305065726d69743a20696e76616c6964207369676e617475726500006044820152fd5b6040519061166e826113b0565b80548210156118d55760005260206000200190600090565b7f4e487b7100000000000000000000000000000000000000000000000000000000600052603260045260246000fd5b90604051611911816113b0565b602081935463ffffffff81168352811c910152565b73ffffffffffffffffffffffffffffffffffffffff16600052600a60205260406000208054801560001461195c57506000919050565b7bffffffffffffffffffffffffffffffffffffffffffffffffffffffff916000196119889201906118bd565b505460201c1690565b1561199857565b606460405162461bcd60e51b815260206004820152601960248201527f4552433230566f7465733a20667574757265206c6f6f6b7570000000000000006044820152fd5b73ffffffffffffffffffffffffffffffffffffffff90611a0d65ffffffffffff611a0543612b71565b168410611991565b16600052600a602052604060002080549160008360058111611ac4575b50905b838210611a7d57505081611a4357506000919050565b610ad9611a79916000197bffffffffffffffffffffffffffffffffffffffffffffffffffffffff94019060005260206000200190565b1690565b9092611a8981856128f4565b908263ffffffff611aa4610b24858860005260206000200190565b161115611ab45750925b90611a2d565b9350611abf90611479565b611aae565b80610b5e611ad492969396612909565b908263ffffffff611aef610b24858860005260206000200190565b161115611aff5750925b38611a2a565b9350611b0a90611479565b611af9565b9190820391821161059557565b15611b2357565b606460405162461bcd60e51b815260206004820152601960248201527f4552433230566f7465733a20696e76616c6964206e6f6e6365000000000000006044820152fd5b60096020527fec8156718a8372b1db44bb411437d0870f3e3790d4a08526d024ce1b0b668f6b5473ffffffffffffffffffffffffffffffffffffffff9182166000908152604090205461166e93929081169116611cd2565b9061166e9173ffffffffffffffffffffffffffffffffffffffff8091166000526009602052806040600020541690600080526040600020541690611cd2565b9061166e929173ffffffffffffffffffffffffffffffffffffffff809116600052600960205280806040600020541692166000526040600020541690611cd2565b61166e9173ffffffffffffffffffffffffffffffffffffffff8092166000928184526009602052806040852054168092856020527f3134e8a2e6d97e929a7e54011ea5485d7d196dd5f0ba4d4ef95803e8e3fc257f60408720549660096020526040812094871694857fffffffffffffffffffffffff000000000000000000000000000000000000000082541617905580a45b919073ffffffffffffffffffffffffffffffffffffffff80821693168381141580611f65575b611d03575b50505050565b80611d83575b5082611d16575b80611cfd565b7fdec2bacdd2f05b59de34da9b523dff8be42e5e38e818c82fdb0bae774387a72491611d65611d6a9273ffffffffffffffffffffffffffffffffffffffff16600052600a602052604060002090565b612273565b60408051928352602083019190915290a2388080611d10565b80600052600a6020527fdec2bacdd2f05b59de34da9b523dff8be42e5e38e818c82fdb0bae774387a7246040600020805480159182600014611f4257611dc76118b0565b6000815260006020820152915b611e21611e0060208501517bffffffffffffffffffffffffffffffffffffffffffffffffffffffff1690565b7bffffffffffffffffffffffffffffffffffffffffffffffffffffffff1690565b92611e2c8985612d4b565b94159081611f1f575b5015611ea857611e5d611e9292600019611e4e87612a5b565b93019060005260206000200190565b9063ffffffff7fffffffffffffffffffffffffffffffffffffffffffffffffffffffff0000000083549260201b169116179055565b604080519182526020820192909252a238611d09565b50611f1a90611ecc611ec7611ebc43612b71565b65ffffffffffff1690565b612bee565b90611f15611ed986612a5b565b611ef0611ee46118b0565b63ffffffff9095168552565b7bffffffffffffffffffffffffffffffffffffffffffffffffffffffff166020840152565b611ff5565b611e92565b5163ffffffff16905063ffffffff611f39611ebc43612b71565b91161438611e35565b611f5f611f5a60001984018360005260206000200190565b611904565b91611dd4565b50821515611cf8565b600b5490680100000000000000008210156113cc576001820180600b558210156118d557600b600052805160209182015190911b7fffffffffffffffffffffffffffffffffffffffffffffffffffffffff000000001663ffffffff91909116177f0175b7a638427703f0dbe7bb9bbf987a2551717b34e79f33b5b1008d1fa01db990910155565b8054680100000000000000008110156113cc57612017916001820181556118bd565b61205957815160209283015190921b7fffffffffffffffffffffffffffffffffffffffffffffffffffffffff000000001663ffffffff92909216919091179055565b7f4e487b7100000000000000000000000000000000000000000000000000000000600052600060045260246000fd5b600b54909181159182156121b15761209e6118b0565b60008152600060208201525b6120e06120d9611e0060208401517bffffffffffffffffffffffffffffffffffffffffffffffffffffffff1690565b9586612d58565b9315908161218e575b501561212e5761166e90611e5d60001961210286612a5b565b9201600b6000527f0175b7a638427703f0dbe7bb9bbf987a2551717b34e79f33b5b1008d1fa01db90190565b5061166e612141611ec7611ebc43612b71565b61218961214d85612a5b565b6121646121586118b0565b63ffffffff9094168452565b7bffffffffffffffffffffffffffffffffffffffffffffffffffffffff166020830152565b611f6e565b5163ffffffff16905063ffffffff6121a8611ebc43612b71565b911614386120e9565b600b6000526121e17f0175b7a638427703f0dbe7bb9bbf987a2551717b34e79f33b5b1008d1fa01db88201611904565b6120aa565b600b549091811591821561223e576121fc6118b0565b60008152600060208201525b6120e0612237611e0060208401517bffffffffffffffffffffffffffffffffffffffffffffffffffffffff1690565b9586612d4b565b600b60005261226e7f0175b7a638427703f0dbe7bb9bbf987a2551717b34e79f33b5b1008d1fa01db88201611904565b612208565b9091815491821592836000146123265761228b6118b0565b60008152600060208201525b6122cd6122c6611e0060208401517bffffffffffffffffffffffffffffffffffffffffffffffffffffffff1690565b9687612d58565b94159081612303575b50156122ef57611e5d61166e92600019611e4e87612a5b565b5061166e90611ecc611ec7611ebc43612b71565b5163ffffffff16905063ffffffff61231d611ebc43612b71565b911614386122d6565b61233e611f5a60001983018460005260206000200190565b612297565b9161025b9391612352936124ce565b919091612393565b6005111561236457565b7f4e487b7100000000000000000000000000000000000000000000000000000000600052602160045260246000fd5b61239c8161235a565b806123a45750565b6123ad8161235a565b600181036123fa5760405162461bcd60e51b815260206004820152601860248201527f45434453413a20696e76616c6964207369676e617475726500000000000000006044820152606490fd5b6124038161235a565b600281036124505760405162461bcd60e51b815260206004820152601f60248201527f45434453413a20696e76616c6964207369676e6174757265206c656e677468006044820152606490fd5b8061245c60039261235a565b1461246357565b60405162461bcd60e51b815260206004820152602260248201527f45434453413a20696e76616c6964207369676e6174757265202773272076616c60448201527f75650000000000000000000000000000000000000000000000000000000000006064820152608490fd5b9291907f7fffffffffffffffffffffffffffffff5d576e7357a4501ddfe92f46681b20a0831161255e5791608094939160ff602094604051948552168484015260408301526060820152600093849182805260015afa1561255157815173ffffffffffffffffffffffffffffffffffffffff81161561254b579190565b50600190565b50604051903d90823e3d90fd5b50505050600090600390565b73ffffffffffffffffffffffffffffffffffffffff7f000000000000000000000000000000000000000000000000000000000000000016301480612668575b156125d2577f000000000000000000000000000000000000000000000000000000000000000090565b60405160208101907f8b73c3c69bb8fe3d512ecc4cf759cc79239f7b179b0ffacaa9a75d522b39400f82527f000000000000000000000000000000000000000000000000000000000000000060408201527f000000000000000000000000000000000000000000000000000000000000000060608201524660808201523060a082015260a08152612662816113ed565b51902090565b507f000000000000000000000000000000000000000000000000000000000000000046146125a9565b60429061269c61256a565b90604051917f19010000000000000000000000000000000000000000000000000000000000008352600283015260228201522090565b60ff81146127285760ff811690601f82116126fe57604051916126f4836113b0565b8252602082015290565b60046040517fb3512b0c000000000000000000000000000000000000000000000000000000008152fd5b5060405160055481600061273b8361132e565b808352926001908181169081156127c15750600114612762575b5061025b92500382611409565b6005600090815291507f036b6384b5eca791c62761152d0c79bb0604c104a5fb6f4eb0703f3154bb3db05b8483106127a6575061025b935050810160200138612755565b8193509081602092548385890101520191019091849261278d565b6020935061025b9592507fffffffffffffffffffffffffffffffffffffffffffffffffffffffffffffff0091501682840152151560051b82010138612755565b60ff81146128235760ff811690601f82116126fe57604051916126f4836113b0565b506040516006548160006128368361132e565b808352926001908181169081156127c1575060011461285c575061025b92500382611409565b6006600090815291507ff652222313e28459528d920b65115c16c04f3efc82aaedc97be59f3f377c0d3f5b8483106128a0575061025b935050810160200138612755565b81935090816020925483858901015201910190918492612887565b81156128c5570490565b7f4e487b7100000000000000000000000000000000000000000000000000000000600052601260045260246000fd5b90808216911860011c81018091116105955790565b8015612a4357806129dc6129d56129cb6129c16129b76129ad6129a3612999600161025b9a6000908b60801c80612a37575b508060401c80612a2a575b508060201c80612a1d575b508060101c80612a10575b508060081c80612a03575b508060041c806129f6575b508060021c806129e9575b50821c6129e2575b811c1b612992818b6128bb565b0160011c90565b612992818a6128bb565b61299281896128bb565b61299281886128bb565b61299281876128bb565b61299281866128bb565b61299281856128bb565b80926128bb565b90612a49565b8101612985565b600291509101903861297d565b6004915091019038612972565b6008915091019038612967565b601091509101903861295c565b6020915091019038612951565b6040915091019038612946565b9150506080903861293b565b50600090565b9080821015612a56575090565b905090565b7bffffffffffffffffffffffffffffffffffffffffffffffffffffffff90818111612a84571690565b608460405162461bcd60e51b815260206004820152602760248201527f53616665436173743a2076616c756520646f65736e27742066697420696e203260448201527f32342062697473000000000000000000000000000000000000000000000000006064820152fd5b6bffffffffffffffffffffffff90818111612b07571690565b608460405162461bcd60e51b815260206004820152602660248201527f53616665436173743a2076616c756520646f65736e27742066697420696e203960448201527f36206269747300000000000000000000000000000000000000000000000000006064820152fd5b65ffffffffffff90818111612b84571690565b608460405162461bcd60e51b815260206004820152602660248201527f53616665436173743a2076616c756520646f65736e27742066697420696e203460448201527f38206269747300000000000000000000000000000000000000000000000000006064820152fd5b63ffffffff90818111612bff571690565b608460405162461bcd60e51b815260206004820152602660248201527f53616665436173743a2076616c756520646f65736e27742066697420696e203360448201527f32206269747300000000000000000000000000000000000000000000000000006064820152fd5b15612c7057565b608460405162461bcd60e51b815260206004820152603060248201527f4552433230566f7465733a20746f74616c20737570706c79207269736b73206f60448201527f766572666c6f77696e6720766f746573000000000000000000000000000000006064820152fd5b15612ce157565b608460405162461bcd60e51b815260206004820152602260248201527f45524332303a206275726e20616d6f756e7420657863656564732062616c616e60448201527f63650000000000000000000000000000000000000000000000000000000000006064820152fd5b9081039081116105955790565b908101809111610595579056fea164736f6c6343000812000a","linkReferences":{}},"methodIdentifiers":{"CLOCK_MODE()":"4bf5d7e9","DOMAIN_SEPARATOR()":"3644e515","allowance(address,address)":"dd62ed3e","approve(address,uint256)":"095ea7b3","balanceOf(address)":"70a08231","burn(address,uint256)":"9dc29fac","checkpoints(address,uint32)":"f1127ed8","clock()":"91ddadf4","decimals()":"313ce567","decreaseAllowance(address,uint256)":"a457c2d7","delegate(address)":"5c19a95c","delegateBySig(address,uint256,uint256,uint8,bytes32,bytes32)":"c3cda520","delegates(address)":"587cde1e","eip712Domain()":"84b0196e","getCurrentVotes(address)":"b4b5ea57","getPastTotalSupply(uint256)":"8e539e8c","getPastVotes(address,uint256)":"3a46b1a8","getPriorVotes(address,uint256)":"782d6fe1","getVotes(address)":"9ab24eb0","increaseAllowance(address,uint256)":"39509351","mint(address,uint256)":"40c10f19","name()":"06fdde03","nonces(address)":"7ecebe00","numCheckpoints(address)":"6fcfff45","permit(address,address,uint256,uint256,uint8,bytes32,bytes32)":"d505accf","symbol()":"95d89b41","totalSupply()":"18160ddd","transfer(address,uint256)":"a9059cbb","transferFrom(address,address,uint256)":"23b872dd"},"id":158}