{"abi":[{"type":"function","name":"getVotingPower","inputs":[{"name":"","type":"uint32","internalType":"uint32"},{"name":"","type":"address","internalType":"address"},{"name":"","type":"bytes","internalType":"bytes"},{"name":"","type":"bytes","internalType":"bytes"}],"outputs":[{"name":"","type":"uint256","internalType":"uint256"}],"stateMutability":"pure"}],"bytecode":{"object":"0x6080806040523461001657610106908161001c8239f35b600080fdfe6080806040526004361015601257600080fd5b600090813560e01c63871d81b714602857600080fd5b3460c55760807ffffffffffffffffffffffffffffffffffffffffffffffffffffffffffffffffc36011260c55760043563ffffffff81160360c55760243573ffffffffffffffffffffffffffffffffffffffff81160360c55767ffffffffffffffff9160443583811160c55760a090369060040160c9565b505060643592831160c2575060ba602092369060040160c9565b505060018152f35b80fd5b5080fd5b9181601f8401121560f45782359167ffffffffffffffff831160f4576020838186019501011160f457565b600080fdfea164736f6c6343000812000a","linkReferences":{}},"methodIdentifiers":{"getVotingPower(uint32,address,bytes,bytes)":"871d81b7"},"id":127}