{"abi":[{"type":"function","name":"getVotingPower","inputs":[{"name":"blockNumber","type":"uint32","internalType":"uint32"},{"name":"voter","type":"address","internalType":"address"},{"name":"params","type":"bytes","internalType":"bytes"},{"name":"","type":"bytes","internalType":"bytes"}],"outputs":[{"name":"","type":"uint256","internalType":"uint256"}],"stateMutability":"view"},{"type":"error","name":"InvalidByteArray","inputs":[]}],"bytecode":{"object":"0x60808060405234610016576102a3908161001c8239f35b600080fdfe60808060405260048036101561001457600080fd5b600091823560e01c63871d81b71461002b57600080fd5b3461025f5760807ffffffffffffffffffffffffffffffffffffffffffffffffffffffffffffffffc36011261025f5781359163ffffffff9182841680940361025b5760243573ffffffffffffffffffffffffffffffffffffffff81168091036102575767ffffffffffffffff94604435868111610253576100af9036908601610263565b6064949194359088821161024f576100cc60149236908901610263565b50501061022857507fffffffffffffffffffffffffffffffffffffffffffffffffffffffffffffffff01918483116101fc576020929160449160405196879485937f3a46b1a8000000000000000000000000000000000000000000000000000000008552888501521660248301523560601c5afa9283156101f1578493610159575b602084604051908152f35b909192506020913d83116101e9575b601f83017fffffffffffffffffffffffffffffffffffffffffffffffffffffffffffffffe0168401918211848310176101bd57506020918391604052810103126101b957602091505138808061014e565b5080fd5b8460416024927f4e487b7100000000000000000000000000000000000000000000000000000000835252fd5b3d9250610168565b6040513d86823e3d90fd5b6024876011867f4e487b7100000000000000000000000000000000000000000000000000000000835252fd5b807faf06e24400000000000000000000000000000000000000000000000000000000869252fd5b8980fd5b8780fd5b8580fd5b8480fd5b8280fd5b9181601f840112156102915782359167ffffffffffffffff8311610291576020838186019501011161029157565b600080fdfea164736f6c6343000812000a","linkReferences":{}},"methodIdentifiers":{"getVotingPower(uint32,address,bytes,bytes)":"871d81b7"},"id":126}