{"abi":[{"type":"function","name":"activeVotingStrategies","inputs":[],"outputs":[{"name":"","type":"uint256","internalType":"uint256"}],"stateMutability":"view"},{"type":"function","name":"authenticators","inputs":[{"name":"auth","type":"address","internalType":"address"}],"outputs":[{"name":"allowed","type":"uint256","internalType":"uint256"}],"stateMutability":"view"},{"type":"function","name":"cancel","inputs":[{"name":"proposalId","type":"uint256","internalType":"uint256"}],"outputs":[],"stateMutability":"nonpayable"},{"type":"function","name":"daoURI","inputs":[],"outputs":[{"name":"","type":"string","internalType":"string"}],"stateMutability":"view"},{"type":"function","name":"execute","inputs":[{"name":"proposalId","type":"uint256","internalType":"uint256"},{"name":"executionPayload","type":"bytes","internalType":"bytes"}],"outputs":[],"stateMutability":"nonpayable"},{"type":"function","name":"getMagicNumber","inputs":[],"outputs":[{"name":"","type":"uint256","internalType":"uint256"}],"stateMutability":"view"},{"type":"function","name":"getProposalStatus","inputs":[{"name":"proposalId","type":"uint256","internalType":"uint256"}],"outputs":[{"name":"","type":"uint8","internalType":"enum ProposalStatus"}],"stateMutability":"view"},{"type":"function","name":"initialize","inputs":[{"name":"input","type":"tuple","internalType":"struct InitializeCalldata","components":[{"name":"owner","type":"address","internalType":"address"},{"name":"votingDelay","type":"uint32","internalType":"uint32"},{"name":"minVotingDuration","type":"uint32","internalType":"uint32"},{"name":"maxVotingDuration","type":"uint32","internalType":"uint32"},{"name":"proposalValidationStrategy","type":"tuple","internalType":"struct Strategy","components":[{"name":"addr","type":"address","internalType":"address"},{"name":"params","type":"bytes","internalType":"bytes"}]},{"name":"proposalValidationStrategyMetadataURI","type":"string","internalType":"string"},{"name":"daoURI","type":"string","internalType":"string"},{"name":"metadataURI","type":"string","internalType":"string"},{"name":"votingStrategies","type":"tuple[]","internalType":"struct Strategy[]","components":[{"name":"addr","type":"address","internalType":"address"},{"name":"params","type":"bytes","internalType":"bytes"}]},{"name":"votingStrategyMetadataURIs","type":"string[]","internalType":"string[]"},{"name":"authenticators","type":"address[]","internalType":"address[]"}]}],"outputs":[],"stateMutability":"nonpayable"},{"type":"function","name":"maxVotingDuration","inputs":[],"outputs":[{"name":"","type":"uint32","internalType":"uint32"}],"stateMutability":"view"},{"type":"function","name":"minVotingDuration","inputs":[],"outputs":[{"name":"","type":"uint32","internalType":"uint32"}],"stateMutability":"view"},{"type":"function","name":"nextProposalId","inputs":[],"outputs":[{"name":"","type":"uint256","internalType":"uint256"}],"stateMutability":"view"},{"type":"function","name":"nextVotingStrategyIndex","inputs":[],"outputs":[{"name":"","type":"uint8","internalType":"uint8"}],"stateMutability":"view"},{"type":"function","name":"owner","inputs":[],"outputs":[{"name":"","type":"address","internalType":"address"}],"stateMutability":"view"},{"type":"function","name":"proposalValidationStrategy","inputs":[],"outputs":[{"name":"addr","type":"address","internalType":"address"},{"name":"params","type":"bytes","internalType":"bytes"}],"stateMutability":"view"},{"type":"function","name":"proposals","inputs":[{"name":"proposalId","type":"uint256","internalType":"uint256"}],"outputs":[{"name":"author","type":"address","internalType":"address"},{"name":"startBlockNumber","type":"uint32","internalType":"uint32"},{"name":"executionStrategy","type":"address","internalType":"contract IExecutionStrategy"},{"name":"minEndBlockNumber","type":"uint32","internalType":"uint32"},{"name":"maxEndBlockNumber","type":"uint32","internalType":"uint32"},{"name":"finalizationStatus","type":"uint8","internalType":"enum FinalizationStatus"},{"name":"executionPayloadHash","type":"bytes32","internalType":"bytes32"},{"name":"activeVotingStrategies","type":"uint256","internalType":"uint256"}],"stateMutability":"view"},{"type":"function","name":"propose","inputs":[{"name":"author","type":"address","internalType":"address"},{"name":"metadataURI","type":"string","internalType":"string"},{"name":"executionStrategy","type":"tuple","internalType":"struct Strategy","components":[{"name":"addr","type":"address","internalType":"address"},{"name":"params","type":"bytes","internalType":"bytes"}]},{"name":"userProposalValidationParams","type":"bytes","internalType":"bytes"}],"outputs":[],"stateMutability":"nonpayable"},{"type":"function","name":"proxiableUUID","inputs":[],"outputs":[{"name":"","type":"bytes32","internalType":"bytes32"}],"stateMutability":"view"},{"type":"function","name":"renounceOwnership","inputs":[],"outputs":[],"stateMutability":"nonpayable"},{"type":"function","name":"setMagicNumber","inputs":[{"name":"newMagicNumber","type":"uint256","internalType":"uint256"}],"outputs":[],"stateMutability":"nonpayable"},{"type":"function","name":"transferOwnership","inputs":[{"name":"newOwner","type":"address","internalType":"address"}],"outputs":[],"stateMutability":"nonpayable"},{"type":"function","name":"updateProposal","inputs":[{"name":"author","type":"address","internalType":"address"},{"name":"proposalId","type":"uint256","internalType":"uint256"},{"name":"executionStrategy","type":"tuple","internalType":"struct Strategy","components":[{"name":"addr","type":"address","internalType":"address"},{"name":"params","type":"bytes","internalType":"bytes"}]},{"name":"metadataURI","type":"string","internalType":"string"}],"outputs":[],"stateMutability":"nonpayable"},{"type":"function","name":"updateSettings","inputs":[{"name":"input","type":"tuple","internalType":"struct UpdateSettingsCalldata","components":[{"name":"minVotingDuration","type":"uint32","internalType":"uint32"},{"name":"maxVotingDuration","type":"uint32","internalType":"uint32"},{"name":"votingDelay","type":"uint32","internalType":"uint32"},{"name":"metadataURI","type":"string","internalType":"string"},{"name":"daoURI","type":"string","internalType":"string"},{"name":"proposalValidationStrategy","type":"tuple","internalType":"struct Strategy","components":[{"name":"addr","type":"address","internalType":"address"},{"name":"params","type":"bytes","internalType":"bytes"}]},{"name":"proposalValidationStrategyMetadataURI","type":"string","internalType":"string"},{"name":"authenticatorsToAdd","type":"address[]","internalType":"address[]"},{"name":"authenticatorsToRemove","type":"address[]","internalType":"address[]"},{"name":"votingStrategiesToAdd","type":"tuple[]","internalType":"struct Strategy[]","components":[{"name":"addr","type":"address","internalType":"address"},{"name":"params","type":"bytes","internalType":"bytes"}]},{"name":"votingStrategyMetadataURIsToAdd","type":"string[]","internalType":"string[]"},{"name":"votingStrategiesToRemove","type":"uint8[]","internalType":"uint8[]"}]}],"outputs":[],"stateMutability":"nonpayable"},{"type":"function","name":"upgradeTo","inputs":[{"name":"newImplementation","type":"address","internalType":"address"}],"outputs":[],"stateMutability":"nonpayable"},{"type":"function","name":"upgradeToAndCall","inputs":[{"name":"newImplementation","type":"address","internalType":"address"},{"name":"data","type":"bytes","internalType":"bytes"}],"outputs":[],"stateMutability":"payable"},{"type":"function","name":"vote","inputs":[{"name":"voter","type":"address","internalType":"address"},{"name":"proposalId","type":"uint256","internalType":"uint256"},{"name":"choice","type":"uint8","internalType":"enum Choice"},{"name":"userVotingStrategies","type":"tuple[]","internalType":"struct IndexedStrategy[]","components":[{"name":"index","type":"uint8","internalType":"uint8"},{"name":"params","type":"bytes","internalType":"bytes"}]},{"name":"metadataURI","type":"string","internalType":"string"}],"outputs":[],"stateMutability":"nonpayable"},{"type":"function","name":"votePower","inputs":[{"name":"proposalId","type":"uint256","internalType":"uint256"},{"name":"choice","type":"uint8","internalType":"enum Choice"}],"outputs":[{"name":"votePower","type":"uint256","internalType":"uint256"}],"stateMutability":"view"},{"type":"function","name":"voteRegistry","inputs":[{"name":"proposalId","type":"uint256","internalType":"uint256"},{"name":"voter","type":"address","internalType":"address"}],"outputs":[{"name":"hasVoted","type":"uint256","internalType":"uint256"}],"stateMutability":"view"},{"type":"function","name":"votingDelay","inputs":[],"outputs":[{"name":"","type":"uint32","internalType":"uint32"}],"stateMutability":"view"},{"type":"function","name":"votingStrategies","inputs":[{"name":"strategyIndex","type":"uint8","internalType":"uint8"}],"outputs":[{"name":"addr","type":"address","internalType":"address"},{"name":"params","type":"bytes","internalType":"bytes"}],"stateMutability":"view"},{"type":"event","name":"AdminChanged","inputs":[{"name":"previousAdmin","type":"address","indexed":false,"internalType":"address"},{"name":"newAdmin","type":"address","indexed":false,"internalType":"address"}],"anonymous":false},{"type":"event","name":"AuthenticatorsAdded","inputs":[{"name":"newAuthenticators","type":"address[]","indexed":false,"internalType":"address[]"}],"anonymous":false},{"type":"event","name":"AuthenticatorsRemoved","inputs":[{"name":"authenticators","type":"address[]","indexed":false,"internalType":"address[]"}],"anonymous":false},{"type":"event","name":"BeaconUpgraded","inputs":[{"name":"beacon","type":"address","indexed":true,"internalType":"address"}],"anonymous":false},{"type":"event","name":"DaoURIUpdated","inputs":[{"name":"newDaoURI","type":"string","indexed":false,"internalType":"string"}],"anonymous":false},{"type":"event","name":"Initialized","inputs":[{"name":"version","type":"uint8","indexed":false,"internalType":"uint8"}],"anonymous":false},{"type":"event","name":"MaxVotingDurationUpdated","inputs":[{"name":"newMaxVotingDuration","type":"uint32","indexed":false,"internalType":"uint32"}],"anonymous":false},{"type":"event","name":"MetadataURIUpdated","inputs":[{"name":"newMetadataURI","type":"string","indexed":false,"internalType":"string"}],"anonymous":false},{"type":"event","name":"MinVotingDurationUpdated","inputs":[{"name":"newMinVotingDuration","type":"uint32","indexed":false,"internalType":"uint32"}],"anonymous":false},{"type":"event","name":"OwnershipTransferred","inputs":[{"name":"previousOwner","type":"address","indexed":true,"internalType":"address"},{"name":"newOwner","type":"address","indexed":true,"internalType":"address"}],"anonymous":false},{"type":"event","name":"ProposalCancelled","inputs":[{"name":"proposalId","type":"uint256","indexed":false,"internalType":"uint256"}],"anonymous":false},{"type":"event","name":"ProposalCreated","inputs":[{"name":"proposalId","type":"uint256","indexed":false,"internalType":"uint256"},{"name":"author","type":"address","indexed":false,"internalType":"address"},{"name":"proposal","type":"tuple","indexed":false,"internalType":"struct Proposal","components":[{"name":"author","type":"address","internalType":"address"},{"name":"startBlockNumber","type":"uint32","internalType":"uint32"},{"name":"executionStrategy","type":"address","internalType":"contract IExecutionStrategy"},{"name":"minEndBlockNumber","type":"uint32","internalType":"uint32"},{"name":"maxEndBlockNumber","type":"uint32","internalType":"uint32"},{"name":"finalizationStatus","type":"uint8","internalType":"enum FinalizationStatus"},{"name":"executionPayloadHash","type":"bytes32","internalType":"bytes32"},{"name":"activeVotingStrategies","type":"uint256","internalType":"uint256"}]},{"name":"metadataUri","type":"string","indexed":false,"internalType":"string"},{"name":"payload","type":"bytes","indexed":false,"internalType":"bytes"}],"anonymous":false},{"type":"event","name":"ProposalExecuted","inputs":[{"name":"proposalId","type":"uint256","indexed":false,"internalType":"uint256"}],"anonymous":false},{"type":"event","name":"ProposalUpdated","inputs":[{"name":"proposalId","type":"uint256","indexed":false,"internalType":"uint256"},{"name":"newExecutionStrategy","type":"tuple","indexed":false,"internalType":"struct Strategy","components":[{"name":"addr","type":"address","internalType":"address"},{"name":"params","type":"bytes","internalType":"bytes"}]},{"name":"newMetadataURI","type":"string","indexed":false,"internalType":"string"}],"anonymous":false},{"type":"event","name":"ProposalValidationStrategyUpdated","inputs":[{"name":"newProposalValidationStrategy","type":"tuple","indexed":false,"internalType":"struct Strategy","components":[{"name":"addr","type":"address","internalType":"address"},{"name":"params","type":"bytes","internalType":"bytes"}]},{"name":"newProposalValidationStrategyMetadataURI","type":"string","indexed":false,"internalType":"string"}],"anonymous":false},{"type":"event","name":"SpaceCreated","inputs":[{"name":"space","type":"address","indexed":false,"internalType":"address"},{"name":"input","type":"tuple","indexed":false,"internalType":"struct InitializeCalldata","components":[{"name":"owner","type":"address","internalType":"address"},{"name":"votingDelay","type":"uint32","internalType":"uint32"},{"name":"minVotingDuration","type":"uint32","internalType":"uint32"},{"name":"maxVotingDuration","type":"uint32","internalType":"uint32"},{"name":"proposalValidationStrategy","type":"tuple","internalType":"struct Strategy","components":[{"name":"addr","type":"address","internalType":"address"},{"name":"params","type":"bytes","internalType":"bytes"}]},{"name":"proposalValidationStrategyMetadataURI","type":"string","internalType":"string"},{"name":"daoURI","type":"string","internalType":"string"},{"name":"metadataURI","type":"string","internalType":"string"},{"name":"votingStrategies","type":"tuple[]","internalType":"struct Strategy[]","components":[{"name":"addr","type":"address","internalType":"address"},{"name":"params","type":"bytes","internalType":"bytes"}]},{"name":"votingStrategyMetadataURIs","type":"string[]","internalType":"string[]"},{"name":"authenticators","type":"address[]","internalType":"address[]"}]}],"anonymous":false},{"type":"event","name":"Upgraded","inputs":[{"name":"implementation","type":"address","indexed":true,"internalType":"address"}],"anonymous":false},{"type":"event","name":"VoteCast","inputs":[{"name":"proposalId","type":"uint256","indexed":false,"internalType":"uint256"},{"name":"voter","type":"address","indexed":false,"internalType":"address"},{"name":"choice","type":"uint8","indexed":false,"internalType":"enum Choice"},{"name":"votingPower","type":"uint256","indexed":false,"internalType":"uint256"}],"anonymous":false},{"type":"event","name":"VoteCastWithMetadata","inputs":[{"name":"proposalId","type":"uint256","indexed":false,"internalType":"uint256"},{"name":"voter","type":"address","indexed":false,"internalType":"address"},{"name":"choice","type":"uint8","indexed":false,"internalType":"enum Choice"},{"name":"votingPower","type":"uint256","indexed":false,"internalType":"uint256"},{"name":"metadataUri","type":"string","indexed":false,"internalType":"string"}],"anonymous":false},{"type":"event","name":"VotingDelayUpdated","inputs":[{"name":"newVotingDelay","type":"uint32","indexed":false,"internalType":"uint32"}],"anonymous":false},{"type":"event","name":"VotingStrategiesAdded","inputs":[{"name":"newVotingStrategies","type":"tuple[]","indexed":false,"internalType":"struct Strategy[]","components":[{"name":"addr","type":"address","internalType":"address"},{"name":"params","type":"bytes","internalType":"bytes"}]},{"name":"newVotingStrategyMetadataURIs","type":"string[]","indexed":false,"internalType":"string[]"}],"anonymous":false},{"type":"event","name":"VotingStrategiesRemoved","inputs":[{"name":"votingStrategyIndices","type":"uint8[]","indexed":false,"internalType":"uint8[]"}],"anonymous":false},{"type":"error","name":"ArrayLengthMismatch","inputs":[]},{"type":"error","name":"AuthenticatorNotWhitelisted","inputs":[]},{"type":"error","name":"DuplicateFound","inputs":[{"name":"index","type":"uint8","internalType":"uint8"}]},{"type":"error","name":"EmptyArray","inputs":[]},{"type":"error","name":"ExceedsStrategyLimit","inputs":[]},{"type":"error","name":"FailedToPassProposalValidation","inputs":[]},{"type":"error","name":"InvalidCaller","inputs":[]},{"type":"error","name":"InvalidDuration","inputs":[{"name":"minVotingDuration","type":"uint32","internalType":"uint32"},{"name":"maxVotingDuration","type":"uint32","internalType":"uint32"}]},{"type":"error","name":"InvalidPayload","inputs":[]},{"type":"error","name":"InvalidProposal","inputs":[]},{"type":"error","name":"InvalidStrategyIndex","inputs":[{"name":"index","type":"uint256","internalType":"uint256"}]},{"type":"error","name":"NoActiveVotingStrategies","inputs":[]},{"type":"error","name":"ProposalFinalized","inputs":[]},{"type":"error","name":"UserAlreadyVoted","inputs":[]},{"type":"error","name":"UserHasNoVotingPower","inputs":[]},{"type":"error","name":"VotingDelayHasPassed","inputs":[]},{"type":"error","name":"VotingPeriodHasEnded","inputs":[]},{"type":"error","name":"VotingPeriodHasNotStarted","inputs":[]},{"type":"error","name":"ZeroAddress","inputs":[]}],"bytecode":{"object":"0x60a080604052346100365730608052600160c9556141bc908161003c82396080518181816122b9015281816123d301526129b50152f35b600080fdfe608080604052600436101561001357600080fd5b600090813560e01c908163013cf08b14612ef4575080630533710414612ed35780630b51557014612d0f5780632ab09d1414612cf15780632ba2ed9814612cd65780633659cfe6146129815780633932abb11461295d578063401853b7146127ed57806340e58ee51461272b5780634f1ef2861461237357806352d1902d1461229157806359efcb1514611fbf57806359ff5b5514611fa157806361ae297814611f415780636df7bab314611f1b5780637034731b14611e39578063715018a614611db8578063791eb85414611d73578063792cb5a314611d1a5780638da5cb5b14611ce65780639d49257c14611cc2578063a44c31d514611ca4578063aad83f3b14611768578063ab1d89a71461166f578063bc7e56f0146110ce578063d830616c146107ea578063de7c3c44146107a2578063f2fde38b146107585763f8b669d61461016057600080fd5b346107555760031960208136011261074d576004359067ffffffffffffffff82116107515761016090823603011261074d5781549060ff8260081c161591828093610740575b8015610729575b156106bf5782600160ff198316178555610691575b5061010481016101d58183600401613539565b905015610667576101ed610144830183600401613539565b905015610667576102018183600401613539565b9050610214610124840184600401613539565b9190500361063d5761023560ff855460081c16610230816137e2565b6137e2565b61023e336132d8565b61024a8260040161358d565b91610253613273565b73ffffffffffffffffffffffffffffffffffffffff92838116156105d35761027a906132d8565b60c4810161028b81600484016135ae565b61029491613cac565b606482016102a1816135ff565b6102aa90613a32565b604483016102b7816135ff565b6102c090613ab5565b60848401916102d28360048701613610565b6102db90613b19565b602485016102e8816135ff565b61031d9063ffffffff167fffffffffffffffffffffffffffffffffffffffffffffffffffffffff0000000060cd54161760cd55565b61032a8760048801613539565b61033391613e2f565b610344610144870160048801613539565b61034d91614098565b600160cc556040519730895260208901604090528660040161036e90612fef565b16604089015263ffffffff92836103858193613643565b1660608a015261039490613643565b1660808801526103a390613643565b1660a08601526103b69060048401613654565b60c0850161016090526101a085016103cd916136f7565b6103dd60a4840160048501613686565b603f198784030160e08801526103f392916136d6565b906104019060048401613686565b603f198684030161010087015261041892916136d6565b61042860e4830160048401613686565b603f198684030161012087015261043f92916136d6565b9161044d906004830161373c565b848403603f190161014086015280845260208401938160051b8101602001948389925b84841061059c5750505050505061048e61012482018260040161373c565b603f1985850301610160860152808452602084019360208260051b820101948389925b848410610564578a8a7f2bac6eaeab23b0b745bf82b395e2235102c0c43fa59a99e32f0d795aae9093608b806105068d6104f38e61014481019060040161373c565b90603f198584030161018086015261378f565b0390a16105105780f35b7fffffffffffffffffffffffffffffffffffffffffffffffffffffffffffff00ff81541681557f7f26b83ff96e1f2b6a682f133852f6798a09c465da95921460cefb3847402498602060405160018152a180f35b90919293949660208061058c83601f1986600196030188526105868c88613686565b906136d6565b99019401940192949391906104b1565b9091929394966020806105c383601f1986600196030188526105be8c88613654565b6136f7565b9901940194019294939190610470565b608460405162461bcd60e51b815260206004820152602660248201527f4f776e61626c653a206e6577206f776e657220697320746865207a65726f206160448201527f64647265737300000000000000000000000000000000000000000000000000006064820152fd5b60046040517fa24a13a6000000000000000000000000000000000000000000000000000000008152fd5b60046040517f521299a9000000000000000000000000000000000000000000000000000000008152fd5b7fffffffffffffffffffffffffffffffffffffffffffffffffffffffffffff000016610101178355386101c2565b608460405162461bcd60e51b815260206004820152602e60248201527f496e697469616c697a61626c653a20636f6e747261637420697320616c72656160448201527f647920696e697469616c697a65640000000000000000000000000000000000006064820152fd5b50303b1580156101ad5750600160ff8216146101ad565b50600160ff8216106101a6565b5080fd5b8280fd5b80fd5b503461075557602060031936011261075557610772612fcc565b61077a613273565b73ffffffffffffffffffffffffffffffffffffffff8116156105d35761079f906132d8565b80f35b503461075557604060031936011261075557602435600381101561074d57602091604091600435825260d58452828220906107dc81612f93565b825283522054604051908152f35b50346107555760209060031991808336011261074d5760043567ffffffffffffffff811161075157610180816004019482360301126107515761082b613273565b610834846135ff565b63ffffffff908180610844613853565b1691161415806110ad575b15610fd65761085d856135ff565b6024830190828061086d846135ff565b16911611610f8157836109207f50b3808988e8880c34e4b58088d8eeeb40410dd2a2238a299db9187644259b05926108a4896135ff565b60cb547fa596cfacd06610b4e094472b3f6712f263b9a8af5fbd18924780c678a4fc55e6856108d28d6135ff565b8960405191168152a17fffffffffffffffffffffffffffffffffffffffffffffffff000000000000000067ffffffff000000008861090f866135ff565b1693871b169116171760cb556135ff565b8360405191168152a15b826044830191610939836135ff565b8180610943613853565b16911603610f0a575b5050506064810161095d81866135ae565b61097f8560405183819483830196873781018983820152038084520182613093565b51902061098a613894565b03610ec1575b506084810161099f81866135ae565b6109c18560405183819483830196873781018983820152038084520182613093565b5190206109cc613894565b03610e65575b5060a481016109e96109e48287613610565b61358d565b90604051848101907f4e6f207570646174650000000000000000000000000000000000000000000000825260098152610a2181613077565b5190209173ffffffffffffffffffffffffffffffffffffffff809360601c911603610deb575b5060e48201610a568187613539565b9050610d95575b50610104820190610a6e8287613539565b9050610d07575b50506101248101610a868186613539565b9050610baf575b506101640190610a9d8285613539565b9050610aa7578280f35b610ab18285613539565b929091845b60ff80821686811015610af35790610aee9291600160ce92610ae3610ade8554948c8c61407a565b61408a565b161b19169055613e1e565b610ab6565b505050949250905060ce5415610b8557610b0c91613539565b9092604051918082840183855252604083019491845b828110610b5b5750505050807f24c5d4b9c170a0ef0634046f1a7a184dd341c99da7242482e42cc2782076cea392930390a18038808280f35b9091929586359060ff8216809203610b80579081528201958201929190600101610b22565b600080fd5b60046040517fe1757fd5000000000000000000000000000000000000000000000000000000008152fd5b610bb98186613539565b61014484019150610bca8288613539565b9190500361063d57610bf282610bec610be6610bfb958a613539565b90613e2f565b87613539565b92909187613539565b6040519380604086016040875252606085019060608160051b8701019480928a915b8a848410610cb6575050505050508383038685015280835285830192868260051b820101938389925b89858510610c8657505050505050508161016493927fb25fe8e833c47cb186483982b4f2f778aa2f38c644be53123589397650b703e9920390a190610a8d565b80610ca689601f19856001969798999a9b9c030188526105868b88613686565b9801940194019294939190610c46565b80610cf58a7fffffffffffffffffffffffffffffffffffffffffffffffffffffffffffffffa08d6001969798999a9b9c9d030187526105be8a87613654565b99989701959491909101920190610c1d565b610d118287613539565b869291925b818110610d6b5750505050610d4c7f2befc5f117311dbd6cabfd7bc4cec09eeefc83a55c9140bbf298951571f5cb869186613539565b610d616040519283928784528784019161378f565b0390a13880610a75565b8083610d7e6109e4610d9094868961407a565b16895260d38852886040812055613a16565b610d16565b610dcd81610bec610dc77f0f1800fbca5c51a50ca47d2d359d89a9872ebc0d41b791582770add9d9d7e7bc948a613539565b90614098565b610de26040519283928884528884019161378f565b0390a138610a5d565b610e4f610e2b82610e25610e207f94882eaeb9096621809ce0a70444da5f387f4763a9b4e0e5918d73997b428984958b613610565b613b19565b88613610565b610e5c610e3b60c487018a6135ae565b6040519485946040865260408601906136f7565b918483038a8601526136d6565b0390a138610a47565b610ea381610e9d610e977fa22a853196a129f951085238393763195d8916dc54e3234dc400d7489da4a53b94896135ae565b90613cac565b866135ae565b610eb8604051928392878452878401916136d6565b0390a1386109d2565b610eec7fefafb90526da1636e1335eac0151301742fb755d986954c613b90e891778ba3991866135ae565b610f01604051928392878452878401916136d6565b0390a138610990565b610f7183610f6c610f3b7fbc6c72d7791c961f1d6512e4f3262d03f19dd0571eef8f5ec54a5acdf2977013966135ff565b63ffffffff167fffffffffffffffffffffffffffffffffffffffffffffffffffffffff0000000060cd54161760cd55565b6135ff565b60405191168152a138828161094c565b610f93610f8d876135ff565b916135ff565b6040517fc564bfaf00000000000000000000000000000000000000000000000000000000815263ffffffff928316600482015291166024820152604490fd5b0390fd5b610fdf856135ff565b8180610fe9613853565b169116141560001461103f57611006611001866135ff565b613ab5565b7fa596cfacd06610b4e094472b3f6712f263b9a8af5fbd18924780c678a4fc55e683611031876135ff565b8360405191168152a161092a565b602482018361104d826135ff565b8380611057613853565b16911603611067575b505061092a565b61109d82610f6c6110987f50b3808988e8880c34e4b58088d8eeeb40410dd2a2238a299db9187644259b05956135ff565b613a32565b8360405191168152a13883611060565b506110ba602483016135ff565b81806110c4613853565b169116141561084f565b50346107555760a0600319360112610755576110e8612fcc565b6003604435101561074d5767ffffffffffffffff6064351161074d5736602360643501121561074d5767ffffffffffffffff606435600401351161074d573660246064356004013560051b60643501011161074d5760843567ffffffffffffffff81116107515761115d903690600401613010565b9033845260d360205260408420541561164557602435845260d4602052611186604085206138d2565b91611190836140eb565b63ffffffff60808401511643101561161b5763ffffffff60208401511643106115f15760a08301516111c181612f93565b6111ca81612f93565b6115c757602435855260d66020526040852073ffffffffffffffffffffffffffffffffffffffff851660005260205260406000205461159d57602435855260d66020526040852073ffffffffffffffffffffffffffffffffffffffff8516600052602052600160406000205560e063ffffffff6020850151169301519261125c60643560040135602460643501614120565b859386915b6064356004013583106113bc57505050821561139257602435855260d560205260408520611290604435612f93565b6044358652602052604085206112a7848254613a25565b9055806113155750507fb83d25c6a5d258561330739951487acb4bd09ba5190b5d32c4f261817d9067929160809173ffffffffffffffffffffffffffffffffffffffff604051926024358452166020830152611304604435612f93565b60443560408301526060820152a180f35b7f7b68c21d3d55ce8b9e79a27874bb03fa18c398a4bc9cb89b4a75fb6fbeb14198939161138c9173ffffffffffffffffffffffffffffffffffffffff94604051958695602435875216602086015261136e604435612f93565b6044356040860152606085015260a0608085015260a08401916136d6565b0390a180f35b60046040517fdf0cf4fb000000000000000000000000000000000000000000000000000000008152fd5b90919460ff6113da610ade8860643560040135602460643501613dd8565b166001811b84161561156c57885260cf602052604088206040519081604081011067ffffffffffffffff60408401111761153d5773ffffffffffffffffffffffffffffffffffffffff888a866114cd61146f6114668661144b600160209a60408d01604052838154168d520161315c565b998a8a82015251169560643560040135602460643501613dd8565b878101906135ae565b6114bb604051998a98899788977f871d81b70000000000000000000000000000000000000000000000000000000089526004890152166024870152608060448701526084860190613203565b916003198584030160648601526136d6565b03915afa9081156115325789916114fa575b506114ed906114f392613a25565b95613a16565b9190611261565b90506020813d60201161152a575b8161151560209383613093565b8101031261152657516114f36114df565b8880fd5b3d9150611508565b6040513d8b823e3d90fd5b7f4e487b7100000000000000000000000000000000000000000000000000000000600052604160045260246000fd5b602490604051907ff3e4f1b40000000000000000000000000000000000000000000000000000000082526004820152fd5b60046040517f38ec5213000000000000000000000000000000000000000000000000000000008152fd5b60046040517fac18c457000000000000000000000000000000000000000000000000000000008152fd5b60046040517f688c575a000000000000000000000000000000000000000000000000000000008152fd5b60046040517f6613a282000000000000000000000000000000000000000000000000000000008152fd5b60046040517fb33ebb5e000000000000000000000000000000000000000000000000000000008152fd5b503461075557806003193601126107555773ffffffffffffffffffffffffffffffffffffffff60d154166040519060008260d254916116ad83613109565b8083529260019081811690811561174657506001146116e7575b506116d492500383613093565b6116e360405192839283613243565b0390f35b60d2600090815291507ff2192e1030363415d7b4fb0406540a0060e8e2fc8982f3f32289379e11fa65465b84831061172b57506116d49350508101602001856116c7565b81935090816020925483858a01015201910190918592611712565b602093506116d495925060ff1991501682840152151560051b820101856116c7565b503461075557608060031936011261075557611782612fcc565b67ffffffffffffffff90602435828111611ca0576117a4903690600401613010565b9190928060443511611c0557604060031960443536030112611c0557606435908111611c05576117d8903690600401613010565b33865260d36020526040862054156116455773ffffffffffffffffffffffffffffffffffffffff60d1541690866040519384927f0721609500000000000000000000000000000000000000000000000000000000845273ffffffffffffffffffffffffffffffffffffffff871660048501526060602485015260009160d25461186081613109565b90816064880152600181169081600014611c7c5750600114611c1c575b5061189c836020979593879593600319878096030160448601526136d6565b03925af1908115611c11578591611bd2575b5015611ba85773ffffffffffffffffffffffffffffffffffffffff81611b9a611980611b79611b8b611ba2987ff8da673e3fac9fbd1c74ccfca5e1de23da9b2d616a790f0aeb2ba3f575c04ff19761191463ffffffff60cd541663ffffffff43166139cf565b63ffffffff60cb548161193881611930818560201c16876139cf565b9316856139cf565b916119576119506024604435016044356004016135ae565b36916130d2565b6020815191012094828e61196f60443560040161358d565b16918f60ce54996040519e8f61303e565b168d521660208c015260408b01521660608901521660808701528c60a087015260c086015260e085015260cc548b5260d460205260408b20878551167fffffffffffffffffffffffff00000000000000000000000000000000000000009081835416178255611a3d63ffffffff60208801511683907fffffffffffffffff00000000ffffffffffffffffffffffffffffffffffffffff77ffffffff000000000000000000000000000000000000000083549260a01b169116179055565b60018201908960408801511690825416178155611aa863ffffffff60608801511682907fffffffffffffffff00000000ffffffffffffffffffffffffffffffffffffffff77ffffffff000000000000000000000000000000000000000083549260a01b169116179055565b608086015181547fffffff0000000000ffffffffffffffffffffffffffffffffffffffffffffffff7bffffffff0000000000000000000000000000000000000000000000007cff0000000000000000000000000000000000000000000000000000000060a08b0151611b1981612f93565b611b2281612f93565b60e01b169360c01b1691161717905560c08501516002820155600360e086015191015560cc5498611b5d6024604435016044356004016135ae565b949095604051998a998d8b521660208a01526040890190613958565b610180806101408901528701916136d6565b918483036101608601526136d6565b0390a1613a16565b60cc5580f35b60046040517f78b51a90000000000000000000000000000000000000000000000000000000008152fd5b90506020813d602011611c09575b81611bed60209383613093565b81010312611c0557518015158103611c0557386118ae565b8480fd5b3d9150611be0565b6040513d87823e3d90fd5b60d260009081529193507ff2192e1030363415d7b4fb0406540a0060e8e2fc8982f3f32289379e11fa65465b818310611c5f57505084016084019161189c61187d565b80546084848b0101528896508c9550602090920191600101611c48565b60ff191660848089019190915291151560051b8701909101935061189c905061187d565b8380fd5b5034610755578060031936011261075557602060ce54604051908152f35b5034610755578060031936011261075557602063ffffffff60cb5416604051908152f35b5034610755578060031936011261075557602073ffffffffffffffffffffffffffffffffffffffff60975416604051908152f35b5034610755576040600319360112610755576024359073ffffffffffffffffffffffffffffffffffffffff8216809203610b8057604090600435815260d660205220906000526020526020604060002054604051908152f35b503461075557602060031936011261075557604060209173ffffffffffffffffffffffffffffffffffffffff611da7612fcc565b16815260d383522054604051908152f35b5034610755578060031936011261075557611dd1613273565b600073ffffffffffffffffffffffffffffffffffffffff6097547fffffffffffffffffffffffff00000000000000000000000000000000000000008116609755167f8be0079c531659141344cd1fd0a4f28419497f9722a3daafe3b4186f6b6457e08280a380f35b5034610755578060031936011261075557604051600060ca54611e5b81613109565b80845290600190818116908115611ef45750600114611e99575b6116e384611e8581860382613093565b604051918291602083526020830190613203565b60ca600090815292507f42d72674974f694b5f5159593243114d38a5c39c89d6b62fee061ff523240ee15b828410611edc575050508101602001611e8582611e75565b80546020858701810191909152909301928101611ec4565b60ff191660208087019190915292151560051b85019092019250611e859150839050611e75565b5034610755578060031936011261075557602060cb5463ffffffff60405191831c168152f35b5034610755576020600319360112610755576004359060ff8216809203610b8057604091815260cf60205220611f91600173ffffffffffffffffffffffffffffffffffffffff835416920161315c565b906116e360405192839283613243565b5034610755578060031936011261075557602060d754604051908152f35b50346107555760406003193601126107555760043567ffffffffffffffff602435818111611ca057611ff5903690600401613010565b9091600260c9541461224d57600260c95583855260209260d484526040862090612026612021836138d2565b6140eb565b61202f826138d2565b60c081015161203f3687856130d2565b878151910120036122235760a081015161205881612f93565b61206181612f93565b6115c75773ffffffffffffffffffffffffffffffffffffffff60018994018054907c01000000000000000000000000000000000000000000000000000000007fffffff00ffffffffffffffffffffffffffffffffffffffffffffffffffffffff8316179055169087845260d587526040842060018552875260408420549588855260d58852604085208580528852604085205489865260d5895260408620600287528952604086205490843b1561221f5761215a9587938c93612180936040519c8d9a8b998a987fa1908c6a000000000000000000000000000000000000000000000000000000008a5260048a01526024890190613958565b6101248701526101448601526101648501526101a06101848501526101a48401916136d6565b03925af18015611c11576121c2575b50507f712ae1383f79ac853f8d882153778e0260ef8f03b504e2866e0593e04d2b291f91604051908152a1600160c95580f35b81116121f2576040527f712ae1383f79ac853f8d882153778e0260ef8f03b504e2866e0593e04d2b291f3861218f565b6024847f4e487b710000000000000000000000000000000000000000000000000000000081526041600452fd5b8680fd5b60046040517f7c6953f9000000000000000000000000000000000000000000000000000000008152fd5b606460405162461bcd60e51b815260206004820152601f60248201527f5265656e7472616e637947756172643a207265656e7472616e742063616c6c006044820152fd5b503461075557806003193601126107555773ffffffffffffffffffffffffffffffffffffffff7f00000000000000000000000000000000000000000000000000000000000000001630036123095760206040517f360894a13ba1a3210667c828492db98dca3e2076cc3735a920a3ca505d382bbc8152f35b608460405162461bcd60e51b815260206004820152603860248201527f555550535570677261646561626c653a206d757374206e6f742062652063616c60448201527f6c6564207468726f7567682064656c656761746563616c6c00000000000000006064820152fd5b50604060031936011261075557612388612fcc565b9060243567ffffffffffffffff811161074d573660238201121561074d576123ba9036906024816004013591016130d2565b9173ffffffffffffffffffffffffffffffffffffffff807f0000000000000000000000000000000000000000000000000000000000000000169061240082301415613345565b61242f7f360894a13ba1a3210667c828492db98dca3e2076cc3735a920a3ca505d382bbc9282845416146133b6565b612437613273565b7f4910fdfa16fed3260ed0e7147f7cc6da11a60208b5b9406d12a635614ffd91435460ff161561246e57505061079f919250613427565b8291939216604051937f52d1902d0000000000000000000000000000000000000000000000000000000085526020948581600481865afa8591816126f8575b5061251c576084866040519062461bcd60e51b82526004820152602e60248201527f45524331393637557067726164653a206e657720696d706c656d656e7461746960448201527f6f6e206973206e6f7420555550530000000000000000000000000000000000006064820152fd5b9493940361268e5761252d82613427565b604051907fbc7cd75a20ee27fd9adebab32041f755214dbc6bffa90cc0225b39da2e5c2d3b8580a2845115801590612686575b61256d575b505050905080f35b813b1561261f575091808461260d94848397519201905af43d15612617573d90612596826130b6565b916125a46040519384613093565b82523d858484013e5b7f416464726573733a206c6f772d6c6576656c2064656c65676174652063616c6c604051936125db8561305b565b602785528401527f206661696c65640000000000000000000000000000000000000000000000000060408401526134f9565b5080388080612565565b6060906125ad565b808362461bcd60e51b608493526004820152602660248201527f416464726573733a2064656c65676174652063616c6c20746f206e6f6e2d636f60448201527f6e747261637400000000000000000000000000000000000000000000000000006064820152fd5b506001612560565b6084836040519062461bcd60e51b82526004820152602960248201527f45524331393637557067726164653a20756e737570706f727465642070726f7860448201527f6961626c655555494400000000000000000000000000000000000000000000006064820152fd5b9091508681813d8311612724575b6127108183613093565b81010312612720575190386124ad565b8580fd5b503d612706565b503461075557602060031936011261075557600435612748613273565b80825260d4602052600160408320612762612021826138d2565b019081549060ff8260e01c1661277781612f93565b6115c7577f416e669c63d9a3a5e36ee7cc7e2104b8db28ccd286aa18966e98fa230c73b08c927c02000000000000000000000000000000000000000000000000000000007fffffff00ffffffffffffffffffffffffffffffffffffffffffffffffffffffff60209416179055604051908152a180f35b503461075557602090816003193601126107555760043580825260d48352826128ba61016461281e604086206138d2565b612827816140eb565b73ffffffffffffffffffffffffffffffffffffffff60408201511685875260d585526040872060018852855260408720549580885260d58652604088208880528652604088205490885260d586526040882060028952865260408820549060405197889687957fea8f8c4b0000000000000000000000000000000000000000000000000000000087526004870190613958565b6101048501526101248401526101448301525afa90811561295257829161291c575b506040519160078210156128ef57508152f35b807f4e487b7100000000000000000000000000000000000000000000000000000000602492526021600452fd5b90508281813d831161294b575b6129338183613093565b8101031261074d5751600781101561074d57386128dc565b503d612929565b6040513d84823e3d90fd5b5034610755578060031936011261075557602063ffffffff60cd5416604051908152f35b50346107555760208060031936011261074d5761299c612fcc565b9073ffffffffffffffffffffffffffffffffffffffff807f0000000000000000000000000000000000000000000000000000000000000000166129e181301415613345565b612a107f360894a13ba1a3210667c828492db98dca3e2076cc3735a920a3ca505d382bbc9183835416146133b6565b612a18613273565b604051908382019282841067ffffffffffffffff851117612ca9578360405286835260ff7f4910fdfa16fed3260ed0e7147f7cc6da11a60208b5b9406d12a635614ffd91435416600014612a7457505050505061079f90613427565b8596949516906040517f52d1902d0000000000000000000000000000000000000000000000000000000081528681600481865afa869181612c7a575b50612b1f576084876040519062461bcd60e51b82526004820152602e60248201527f45524331393637557067726164653a206e657720696d706c656d656e7461746960448201527f6f6e206973206e6f7420555550530000000000000000000000000000000000006064820152fd5b95949503612c1057612b3086613427565b604051907fbc7cd75a20ee27fd9adebab32041f755214dbc6bffa90cc0225b39da2e5c2d3b8680a2815115801590612c09575b612b71575b50505050905080f35b853b15612ba257509280948192612b979551915af43d15612617573d90612596826130b6565b508038808080612b68565b808462461bcd60e51b608493526004820152602660248201527f416464726573733a2064656c65676174652063616c6c20746f206e6f6e2d636f60448201527f6e747261637400000000000000000000000000000000000000000000000000006064820152fd5b5084612b63565b6084846040519062461bcd60e51b82526004820152602960248201527f45524331393637557067726164653a20756e737570706f727465642070726f7860448201527f6961626c655555494400000000000000000000000000000000000000000000006064820152fd5b9091508781813d8311612ca2575b612c928183613093565b8101031261221f57519038612ab0565b503d612c88565b6024877f4e487b710000000000000000000000000000000000000000000000000000000081526041600452fd5b50346107555760206003193601126107555760043560d75580f35b5034610755578060031936011261075557602060cc54604051908152f35b50346107555760031960808136011261074d57612d2a612fcc565b9060243560443567ffffffffffffffff808211612720576040826004019483360301126127205760643590811161272057612d69903690600401613010565b33875260d36020526040872054156116455783875260d46020526040872092612d94612021856138d2565b600184019081549060ff8260e01c16612dac81612f93565b6115c757855473ffffffffffffffffffffffffffffffffffffffff998a808316911603612ea95760a01c63ffffffff16431015612e7f577f3ed3909a2444f4afb9f14bf6e61874cebc207fa08f5034e074afe13065c812579861138c966002612e3c61195060247fffffffffffffffffffffffff000000000000000000000000000000000000000096018d6135ae565b60208151910120910155612e4f8961358d565b169116179055612e7160405195869586526060602087015260608601906136f7565b9184830360408601526136d6565b60046040517fb05d2fa9000000000000000000000000000000000000000000000000000000008152fd5b60046040517f48f5c3ed000000000000000000000000000000000000000000000000000000008152fd5b5034610755578060031936011261075557602060ff60d05416604051908152f35b90503461074d57602060031936011261074d57604061010092600435815260d46020522080549060018101549160ff8360e01c1690600360028401549301549373ffffffffffffffffffffffffffffffffffffffff808316875263ffffffff809360a01c16602088015281166040870152818160a01c16606087015260c01c166080850152612f8281612f93565b60a084015260c083015260e0820152f35b60031115612f9d57565b7f4e487b7100000000000000000000000000000000000000000000000000000000600052602160045260246000fd5b6004359073ffffffffffffffffffffffffffffffffffffffff82168203610b8057565b359073ffffffffffffffffffffffffffffffffffffffff82168203610b8057565b9181601f84011215610b805782359167ffffffffffffffff8311610b805760208381860195010111610b8057565b610100810190811067ffffffffffffffff82111761153d57604052565b6060810190811067ffffffffffffffff82111761153d57604052565b6040810190811067ffffffffffffffff82111761153d57604052565b90601f601f19910116810190811067ffffffffffffffff82111761153d57604052565b67ffffffffffffffff811161153d57601f01601f191660200190565b9291926130de826130b6565b916130ec6040519384613093565b829481845281830111610b80578281602093846000960137010152565b90600182811c92168015613152575b602083101461312357565b7f4e487b7100000000000000000000000000000000000000000000000000000000600052602260045260246000fd5b91607f1691613118565b906040519182600082549261317084613109565b9081845260019485811690816000146131df575060011461319c575b505061319a92500383613093565b565b9093915060005260209081600020936000915b8183106131c757505061319a9350820101388061318c565b855488840185015294850194879450918301916131af565b905061319a95506020935060ff1991501682840152151560051b820101388061318c565b919082519283825260005b84811061322f575050601f19601f8460006020809697860101520116010190565b60208183018101518483018201520161320e565b60409073ffffffffffffffffffffffffffffffffffffffff61327094931681528160208201520190613203565b90565b73ffffffffffffffffffffffffffffffffffffffff60975416330361329457565b606460405162461bcd60e51b815260206004820152602060248201527f4f776e61626c653a2063616c6c6572206973206e6f7420746865206f776e65726044820152fd5b6097549073ffffffffffffffffffffffffffffffffffffffff80911691827fffffffffffffffffffffffff0000000000000000000000000000000000000000821617609755167f8be0079c531659141344cd1fd0a4f28419497f9722a3daafe3b4186f6b6457e0600080a3565b1561334c57565b608460405162461bcd60e51b815260206004820152602c60248201527f46756e6374696f6e206d7573742062652063616c6c6564207468726f7567682060448201527f64656c656761746563616c6c00000000000000000000000000000000000000006064820152fd5b156133bd57565b608460405162461bcd60e51b815260206004820152602c60248201527f46756e6374696f6e206d7573742062652063616c6c6564207468726f7567682060448201527f6163746976652070726f787900000000000000000000000000000000000000006064820152fd5b803b1561348f5773ffffffffffffffffffffffffffffffffffffffff7f360894a13ba1a3210667c828492db98dca3e2076cc3735a920a3ca505d382bbc91167fffffffffffffffffffffffff0000000000000000000000000000000000000000825416179055565b608460405162461bcd60e51b815260206004820152602d60248201527f455243313936373a206e657720696d706c656d656e746174696f6e206973206e60448201527f6f74206120636f6e7472616374000000000000000000000000000000000000006064820152fd5b90919015613505575090565b8151156135155750805190602001fd5b610fd29060405191829162461bcd60e51b8352602060048401526024830190613203565b9035907fffffffffffffffffffffffffffffffffffffffffffffffffffffffffffffffe181360301821215610b80570180359067ffffffffffffffff8211610b8057602001918160051b36038313610b8057565b3573ffffffffffffffffffffffffffffffffffffffff81168103610b805790565b9035907fffffffffffffffffffffffffffffffffffffffffffffffffffffffffffffffe181360301821215610b80570180359067ffffffffffffffff8211610b8057602001918136038313610b8057565b3563ffffffff81168103610b805790565b9035907fffffffffffffffffffffffffffffffffffffffffffffffffffffffffffffffc181360301821215610b80570190565b359063ffffffff82168203610b8057565b90357fffffffffffffffffffffffffffffffffffffffffffffffffffffffffffffffc182360301811215610b80570190565b90357fffffffffffffffffffffffffffffffffffffffffffffffffffffffffffffffe182360301811215610b8057016020813591019167ffffffffffffffff8211610b80578136038313610b8057565b601f8260209493601f19938186528686013760008582860101520116010190565b90604061372c6132709373ffffffffffffffffffffffffffffffffffffffff61371f82612fef565b1684526020810190613686565b91909281602082015201916136d6565b90357fffffffffffffffffffffffffffffffffffffffffffffffffffffffffffffffe182360301811215610b8057016020813591019167ffffffffffffffff8211610b80578160051b36038313610b8057565b91908082526020809201929160005b8281106137ac575050505090565b90919293828060019273ffffffffffffffffffffffffffffffffffffffff6137d389612fef565b1681520195019392910161379e565b156137e957565b608460405162461bcd60e51b815260206004820152602b60248201527f496e697469616c697a61626c653a20636f6e7472616374206973206e6f74206960448201527f6e697469616c697a696e670000000000000000000000000000000000000000006064820152fd5b60405160208101907f4e6f20757064617465000000000000000000000000000000000000000000000082526009815261388b81613077565b51902060e01c90565b60405160208101907f4e6f2075706461746500000000000000000000000000000000000000000000008252600981526138cc81613077565b51902090565b906040516138df8161303e565b60e06003829460ff815473ffffffffffffffffffffffffffffffffffffffff90818116875263ffffffff809160a01c16602088015260018401549182166040880152808260a01c1660608801528160c01c166080870152841c1661394281612f93565b60a0850152600281015460c08501520154910152565b60e0809173ffffffffffffffffffffffffffffffffffffffff80825116855263ffffffff908160208401511660208701526040830151166040860152806060830151166060860152608082015116608085015260a08101516139b981612f93565b60a085015260c081015160c08501520151910152565b91909163ffffffff808094169116019182116139e757565b7f4e487b7100000000000000000000000000000000000000000000000000000000600052601160045260246000fd5b60001981146139e75760010190565b919082018092116139e757565b60cb5463ffffffff91828260201c1692811692808410613a765750507fffffffffffffffffffffffffffffffffffffffffffffffffffffffff00000000161760cb55565b6040517fc564bfaf00000000000000000000000000000000000000000000000000000000815263ffffffff918216600482015291166024820152604490fd5b60cb549063ffffffff8083168091831611610f93575067ffffffff000000007fffffffffffffffffffffffffffffffffffffffffffffffff00000000ffffffff9160201b1691161760cb55565b818110613b0d575050565b60008155600101613b02565b9073ffffffffffffffffffffffffffffffffffffffff613b388361358d565b167fffffffffffffffffffffffff000000000000000000000000000000000000000060d154161760d155613b71602092838101906135ae565b9067ffffffffffffffff821161153d57613b8c60d254613109565b601f8111613c53575b50600093601f8311600114613bd2575092819293600092613bc7575b50506000198260011b9260031b1c19161760d255565b013590503880613bb1565b90601f1983169460d281527ff2192e1030363415d7b4fb0406540a0060e8e2fc8982f3f32289379e11fa65469281905b878210613c3b575050836001959610613c21575b505050811b0160d255565b60001960f88560031b161c19910135169055388080613c16565b80600184968294958701358155019501920190613c02565b613c9c9060d26000527ff2192e1030363415d7b4fb0406540a0060e8e2fc8982f3f32289379e11fa6546601f850160051c810191878610613ca2575b601f0160051c0190613b02565b38613b95565b9091508190613c8f565b919067ffffffffffffffff811161153d57613cc860ca54613109565b601f8111613d89575b506000601f8211600114613d0b57819293600092613d00575b50506000198260011b9260031b1c19161760ca55565b013590503880613cea565b601f1982169360ca82527f42d72674974f694b5f5159593243114d38a5c39c89d6b62fee061ff523240ee191805b868110613d715750836001959610613d57575b505050811b0160ca55565b60001960f88560031b161c19910135169055388080613d4c565b90926020600181928686013581550194019101613d39565b613dd29060ca6000527f42d72674974f694b5f5159593243114d38a5c39c89d6b62fee061ff523240ee1601f840160051c81019160208510613ca257601f0160051c0190613b02565b38613cd1565b90821015613def576132709160051b810190613610565b7f4e487b7100000000000000000000000000000000000000000000000000000000600052603260045260246000fd5b60ff1660ff81146139e75760010190565b60ce5460ff928360d05416926101008281039081116139e75784101561405057906000915b818310613e6f5750505060ce551660ff1960d054161760d055565b90919373ffffffffffffffffffffffffffffffffffffffff80613e966109e4888787613dd8565b1615614026578682169060019586831b1795613eb3888787613dd8565b92600052613f048160209360cf8552604060002090613ed18761358d565b167fffffffffffffffffffffffff00000000000000000000000000000000000000008254161781550193838101906135ae565b929067ffffffffffffffff841161153d57613f1f8554613109565b91601f92838111613fee575b506000928511600114613f805750918380613f6c979593613f669795600093613f73575b505060001991921b9260031b1c1916179055613e1e565b94613a16565b9190613e54565b0135915060001938613f4f565b91601f19859495168682528382209382905b828210613fd757505091613f6c9795939185613f6698969410613fbd575b505050811b019055613e1e565b60001960f88560031b161c19910135169055388080613fb0565b808885978294968801358155019601930190613f92565b614017908760005282600020600586808a01821c830193868b1061401d575b01901c0190613b02565b38613f2b565b9350829361400d565b60046040517fd92e233d000000000000000000000000000000000000000000000000000000008152fd5b60046040517fb0807411000000000000000000000000000000000000000000000000000000008152fd5b9190811015613def5760051b0190565b3560ff81168103610b805790565b90600090815b8181106140ab5750505050565b8073ffffffffffffffffffffffffffffffffffffffff6140d26109e46140e694868961407a565b16845260d360205260016040852055613a16565b61409e565b60c00151156140f657565b60046040517fee032808000000000000000000000000000000000000000000000000000000008152fd5b90600281106141ab57600091825b82841061413b5750505050565b60ff9060018261414f610ade888888613dd8565b161b9182821661416b5750179261416590613a16565b9261412e565b60249061417c610ade888888613dd8565b6040517f1ed4de8300000000000000000000000000000000000000000000000000000000815291166004820152fd5b505056fea164736f6c6343000812000a","linkReferences":{}},"methodIdentifiers":{"activeVotingStrategies()":"a44c31d5","authenticators(address)":"791eb854","cancel(uint256)":"40e58ee5","daoURI()":"7034731b","execute(uint256,bytes)":"59efcb15","getMagicNumber()":"59ff5b55","getProposalStatus(uint256)":"401853b7","initialize((address,uint32,uint32,uint32,(address,bytes),string,string,string,(address,bytes)[],string[],address[]))":"f8b669d6","maxVotingDuration()":"9d49257c","minVotingDuration()":"6df7bab3","nextProposalId()":"2ab09d14","nextVotingStrategyIndex()":"05337104","owner()":"8da5cb5b","proposalValidationStrategy()":"ab1d89a7","proposals(uint256)":"013cf08b","propose(address,string,(address,bytes),bytes)":"aad83f3b","proxiableUUID()":"52d1902d","renounceOwnership()":"715018a6","setMagicNumber(uint256)":"2ba2ed98","transferOwnership(address)":"f2fde38b","updateProposal(address,uint256,(address,bytes),string)":"0b515570","updateSettings((uint32,uint32,uint32,string,string,(address,bytes),string,address[],address[],(address,bytes)[],string[],uint8[]))":"d830616c","upgradeTo(address)":"3659cfe6","upgradeToAndCall(address,bytes)":"4f1ef286","vote(address,uint256,uint8,(uint8,bytes)[],string)":"bc7e56f0","votePower(uint256,uint8)":"de7c3c44","voteRegistry(uint256,address)":"792cb5a3","votingDelay()":"3932abb1","votingStrategies(uint8)":"61ae2978"},"id":161}