{"abi":[{"type":"constructor","inputs":[],"stateMutability":"nonpayable"},{"type":"receive","stateMutability":"payable"},{"type":"function","name":"disableSpace","inputs":[{"name":"space","type":"address","internalType":"address"}],"outputs":[],"stateMutability":"nonpayable"},{"type":"function","name":"enableSpace","inputs":[{"name":"space","type":"address","internalType":"address"}],"outputs":[],"stateMutability":"nonpayable"},{"type":"function","name":"execute","inputs":[{"name":"","type":"uint256","internalType":"uint256"},{"name":"proposal","type":"tuple","internalType":"struct Proposal","components":[{"name":"author","type":"address","internalType":"address"},{"name":"startBlockNumber","type":"uint32","internalType":"uint32"},{"name":"executionStrategy","type":"address","internalType":"contract IExecutionStrategy"},{"name":"minEndBlockNumber","type":"uint32","internalType":"uint32"},{"name":"maxEndBlockNumber","type":"uint32","internalType":"uint32"},{"name":"finalizationStatus","type":"uint8","internalType":"enum FinalizationStatus"},{"name":"executionPayloadHash","type":"bytes32","internalType":"bytes32"},{"name":"activeVotingStrategies","type":"uint256","internalType":"uint256"}]},{"name":"votesFor","type":"uint256","internalType":"uint256"},{"name":"votesAgainst","type":"uint256","internalType":"uint256"},{"name":"votesAbstain","type":"uint256","internalType":"uint256"},{"name":"payload","type":"bytes","internalType":"bytes"}],"outputs":[],"stateMutability":"nonpayable"},{"type":"function","name":"executeQueuedProposal","inputs":[{"name":"payload","type":"bytes","internalType":"bytes"}],"outputs":[],"stateMutability":"nonpayable"},{"type":"function","name":"getProposalStatus","inputs":[{"name":"proposal","type":"tuple","internalType":"struct Proposal","components":[{"name":"author","type":"address","internalType":"address"},{"name":"startBlockNumber","type":"uint32","internalType":"uint32"},{"name":"executionStrategy","type":"address","internalType":"contract IExecutionStrategy"},{"name":"minEndBlockNumber","type":"uint32","internalType":"uint32"},{"name":"maxEndBlockNumber","type":"uint32","internalType":"uint32"},{"name":"finalizationStatus","type":"uint8","internalType":"enum FinalizationStatus"},{"name":"executionPayloadHash","type":"bytes32","internalType":"bytes32"},{"name":"activeVotingStrategies","type":"uint256","internalType":"uint256"}]},{"name":"","type":"uint256","internalType":"uint256"},{"name":"votesAgainst","type":"uint256","internalType":"uint256"},{"name":"","type":"uint256","internalType":"uint256"}],"outputs":[{"name":"","type":"uint8","internalType":"enum ProposalStatus"}],"stateMutability":"view"},{"type":"function","name":"getStrategyType","inputs":[],"outputs":[{"name":"","type":"string","internalType":"string"}],"stateMutability":"pure"},{"type":"function","name":"isSpaceEnabled","inputs":[{"name":"space","type":"address","internalType":"address"}],"outputs":[{"name":"","type":"uint256","internalType":"uint256"}],"stateMutability":"view"},{"type":"function","name":"onERC1155BatchReceived","inputs":[{"name":"","type":"address","internalType":"address"},{"name":"","type":"address","internalType":"address"},{"name":"","type":"uint256[]","internalType":"uint256[]"},{"name":"","type":"uint256[]","internalType":"uint256[]"},{"name":"","type":"bytes","internalType":"bytes"}],"outputs":[{"name":"","type":"bytes4","internalType":"bytes4"}],"stateMutability":"pure"},{"type":"function","name":"onERC1155Received","inputs":[{"name":"","type":"address","internalType":"address"},{"name":"","type":"address","internalType":"address"},{"name":"","type":"uint256","internalType":"uint256"},{"name":"","type":"uint256","internalType":"uint256"},{"name":"","type":"bytes","internalType":"bytes"}],"outputs":[{"name":"","type":"bytes4","internalType":"bytes4"}],"stateMutability":"pure"},{"type":"function","name":"onERC721Received","inputs":[{"name":"","type":"address","internalType":"address"},{"name":"","type":"address","internalType":"address"},{"name":"","type":"uint256","internalType":"uint256"},{"name":"","type":"bytes","internalType":"bytes"}],"outputs":[{"name":"","type":"bytes4","internalType":"bytes4"}],"stateMutability":"pure"},{"type":"function","name":"owner","inputs":[],"outputs":[{"name":"","type":"address","internalType":"address"}],"stateMutability":"view"},{"type":"function","name":"proposalExecutionTime","inputs":[{"name":"","type":"bytes32","internalType":"bytes32"}],"outputs":[{"name":"","type":"uint256","internalType":"uint256"}],"stateMutability":"view"},{"type":"function","name":"quorum","inputs":[],"outputs":[{"name":"","type":"uint256","internalType":"uint256"}],"stateMutability":"view"},{"type":"function","name":"renounceOwnership","inputs":[],"outputs":[],"stateMutability":"nonpayable"},{"type":"function","name":"setQuorum","inputs":[{"name":"_quorum","type":"uint256","internalType":"uint256"}],"outputs":[],"stateMutability":"nonpayable"},{"type":"function","name":"setTimelockDelay","inputs":[{"name":"newTimelockDelay","type":"uint256","internalType":"uint256"}],"outputs":[],"stateMutability":"nonpayable"},{"type":"function","name":"setUp","inputs":[{"name":"initParams","type":"bytes","internalType":"bytes"}],"outputs":[],"stateMutability":"nonpayable"},{"type":"function","name":"setVetoGuardian","inputs":[{"name":"newVetoGuardian","type":"address","internalType":"address"}],"outputs":[],"stateMutability":"nonpayable"},{"type":"function","name":"supportsInterface","inputs":[{"name":"interfaceId","type":"bytes4","internalType":"bytes4"}],"outputs":[{"name":"","type":"bool","internalType":"bool"}],"stateMutability":"pure"},{"type":"function","name":"timelockDelay","inputs":[],"outputs":[{"name":"","type":"uint256","internalType":"uint256"}],"stateMutability":"view"},{"type":"function","name":"transferOwnership","inputs":[{"name":"newOwner","type":"address","internalType":"address"}],"outputs":[],"stateMutability":"nonpayable"},{"type":"function","name":"veto","inputs":[{"name":"executionPayloadHash","type":"bytes32","internalType":"bytes32"}],"outputs":[],"stateMutability":"nonpayable"},{"type":"function","name":"vetoGuardian","inputs":[],"outputs":[{"name":"","type":"address","internalType":"address"}],"stateMutability":"view"},{"type":"event","name":"Initialized","inputs":[{"name":"version","type":"uint8","indexed":false,"internalType":"uint8"}],"anonymous":false},{"type":"event","name":"OptimisticTimelockExecutionStrategySetUp","inputs":[{"name":"owner","type":"address","indexed":false,"internalType":"address"},{"name":"vetoGuardian","type":"address","indexed":false,"internalType":"address"},{"name":"spaces","type":"address[]","indexed":false,"internalType":"address[]"},{"name":"quorum","type":"uint256","indexed":false,"internalType":"uint256"},{"name":"timelockDelay","type":"uint256","indexed":false,"internalType":"uint256"}],"anonymous":false},{"type":"event","name":"OwnershipTransferred","inputs":[{"name":"previousOwner","type":"address","indexed":true,"internalType":"address"},{"name":"newOwner","type":"address","indexed":true,"internalType":"address"}],"anonymous":false},{"type":"event","name":"ProposalExecuted","inputs":[{"name":"executionPayloadHash","type":"bytes32","indexed":false,"internalType":"bytes32"}],"anonymous":false},{"type":"event","name":"ProposalQueued","inputs":[{"name":"executionPayloadHash","type":"bytes32","indexed":false,"internalType":"bytes32"}],"anonymous":false},{"type":"event","name":"ProposalVetoed","inputs":[{"name":"executionPayloadHash","type":"bytes32","indexed":false,"internalType":"bytes32"}],"anonymous":false},{"type":"event","name":"QuorumUpdated","inputs":[{"name":"newQuorum","type":"uint256","indexed":false,"internalType":"uint256"}],"anonymous":false},{"type":"event","name":"SpaceDisabled","inputs":[{"name":"space","type":"address","indexed":false,"internalType":"address"}],"anonymous":false},{"type":"event","name":"SpaceEnabled","inputs":[{"name":"space","type":"address","indexed":false,"internalType":"address"}],"anonymous":false},{"type":"event","name":"TimelockDelaySet","inputs":[{"name":"timelockDelay","type":"uint256","indexed":false,"internalType":"uint256"},{"name":"newTimelockDelay","type":"uint256","indexed":false,"internalType":"uint256"}],"anonymous":false},{"type":"event","name":"TransactionExecuted","inputs":[{"name":"transaction","type":"tuple","indexed":false,"internalType":"struct MetaTransaction","components":[{"name":"to","type":"address","internalType":"address"},{"name":"value","type":"uint256","internalType":"uint256"},{"name":"data","type":"bytes","internalType":"bytes"},{"name":"operation","type":"uint8","internalType":"enum Enum.Operation"},{"name":"salt","type":"uint256","internalType":"uint256"}]}],"anonymous":false},{"type":"event","name":"TransactionQueued","inputs":[{"name":"transaction","type":"tuple","indexed":false,"internalType":"struct MetaTransaction","components":[{"name":"to","type":"address","internalType":"address"},{"name":"value","type":"uint256","internalType":"uint256"},{"name":"data","type":"bytes","internalType":"bytes"},{"name":"operation","type":"uint8","internalType":"enum Enum.Operation"},{"name":"salt","type":"uint256","internalType":"uint256"}]},{"name":"executionTime","type":"uint256","indexed":false,"internalType":"uint256"}],"anonymous":false},{"type":"event","name":"VetoGuardianSet","inputs":[{"name":"vetoGuardian","type":"address","indexed":false,"internalType":"address"},{"name":"newVetoGuardian","type":"address","indexed":false,"internalType":"address"}],"anonymous":false},{"type":"error","name":"DuplicateExecutionPayloadHash","inputs":[]},{"type":"error","name":"ExecutionFailed","inputs":[]},{"type":"error","name":"InvalidProposalStatus","inputs":[{"name":"status","type":"uint8","internalType":"enum ProposalStatus"}]},{"type":"error","name":"InvalidSpace","inputs":[]},{"type":"error","name":"OnlyVetoGuardian","inputs":[]},{"type":"error","name":"ProposalNotQueued","inputs":[]},{"type":"error","name":"TimelockDelayNotMet","inputs":[]}],"bytecode":{"object":"0x60803462000456576020818101916001600160401b03919082841181851017620004405760409384526000808252845193838501926001938481528787019085825262000059606089019360a0855260c08a01906200047f565b9060808901908682526200007e8a60a081019489865203601f1981018c528b6200045b565b86549560ff9a8b8860081c16159788809962000434575b80156200041d575b15620003c25760ff1981168b178a5588620003b0575b50805181019260a0828d8601950312620003ac57620000d6620000dd91620004be565b96620004be565b965190828211620003ac570182603f82011215620003a8578a8101519182116200039457918c96959493918b93600598828a1b92620001218251978501886200045b565b86528d86019282010192831162000390578e01905b8282106200036b575050505191519260018060a01b03808092169516956200016f8c8a5460081c166200016981620004d3565b620004d3565b6200017a3362000534565b3382603354160362000329578515620002d65789808e620001be8f620001a08b62000534565b606980546001600160a01b0319168d1790558d5460081c16620004d3565b8b925b62000288575b5050505050906200022c7f79e3a9f8c9f5a46b91efd1876a50dec21737fbe1523ea7144503873b31ffeae5959493926200020889549c8d60081c16620004d3565b83606655826067558c5195869586528b86015260a08d86015260a08501906200047f565b91606084015260808301520390a16200024f575b8451611bbe90816200057e8239f35b7f7f26b83ff96e1f2b6a682f133852f6798a09c465da95921460cefb38474024989361ff00191690558351908152a13880808062000240565b8d8651841015620002cf5783851b870181015186168d52606590528b20556000198114620002bb578a018a8e81620001c1565b634e487b7160e01b8a52601160045260248afd5b50620001c7565b8c5162461bcd60e51b8152600481018c9052602660248201527f4f776e61626c653a206e6577206f776e657220697320746865207a65726f206160448201526564647265737360d01b6064820152608490fd5b60648b8e519062461bcd60e51b825280600483015260248201527f4f776e61626c653a2063616c6c6572206973206e6f7420746865206f776e65726044820152fd5b81516001600160a01b03811681036200038c578152908c01908c0162000136565b8b80fd5b8a80fd5b634e487b7160e01b89526041600452602489fd5b8880fd5b8980fd5b61ffff191661010117895538620000b3565b8d5162461bcd60e51b8152600481018d9052602e60248201527f496e697469616c697a61626c653a20636f6e747261637420697320616c72656160448201526d191e481a5b9a5d1a585b1a5e995960921b6064820152608490fd5b50303b1580156200009d57508a8d8216146200009d565b508a8d82161062000095565b634e487b7160e01b600052604160045260246000fd5b600080fd5b601f909101601f19168101906001600160401b038211908210176200044057604052565b90815180825260208080930193019160005b828110620004a0575050505090565b83516001600160a01b03168552938101939281019260010162000491565b51906001600160a01b03821682036200045657565b15620004db57565b60405162461bcd60e51b815260206004820152602b60248201527f496e697469616c697a61626c653a20636f6e7472616374206973206e6f74206960448201526a6e697469616c697a696e6760a81b6064820152608490fd5b603380546001600160a01b039283166001600160a01b0319821681179092559091167f8be0079c531659141344cd1fd0a4f28419497f9722a3daafe3b4186f6b6457e0600080a356fe6080604081815260049081361015610022575b505050361561002057600080fd5b005b600092833560e01c90816301ffc9a7146113ad575080630eb9b15a1461131057806312513b45146112db578063150b7a021461126b5780631703a0181461124c578063220f5fd9146111b35780634a1cead11461118b5780636efd971c14611147578063715018a6146110c75780638da5cb5b146110925780639e33d8111461100e578063a1908c6a14610d20578063a4f9edbf146108a1578063ad32287f14610638578063af267f8f146105e4578063bc197c8114610541578063c1ba4e59146104f3578063d92d4ea014610437578063ea8f8c4b1461035e578063eef09bad1461033b578063f23a6e61146102c8578063f2fde38b146101f85763fb6f93f90361001257346101f45760206003193601126101f45781359173ffffffffffffffffffffffffffffffffffffffff6069541633036101cd57828452606860205281842054156101a65750816020917f0c8bf601915d1f39ef591226bc69b3becc23fcb3616673c419062aa44beb42da93855260688352848181205551908152a180f35b90517f599fb1a3000000000000000000000000000000000000000000000000000000008152fd5b90517ffa5e8f94000000000000000000000000000000000000000000000000000000008152fd5b8280fd5b5090346101f45760206003193601126101f4576102136114e3565b9161021c6116da565b73ffffffffffffffffffffffffffffffffffffffff831615610245578361024284611759565b80f35b90602060849251917f08c379a0000000000000000000000000000000000000000000000000000000008352820152602660248201527f4f776e61626c653a206e6577206f776e657220697320746865207a65726f206160448201527f64647265737300000000000000000000000000000000000000000000000000006064820152fd5b5082346103385760a0600319360112610338576102e36114e3565b506102ec61150b565b506084359067ffffffffffffffff821161033857506020926103109136910161152e565b5050517ff23a6e61000000000000000000000000000000000000000000000000000000008152f35b80fd5b83823461035a578160031936011261035a576020906067549051908152f35b5080fd5b508234610338576003193601610160811261035a57610100136103385761038361155c565b923573ffffffffffffffffffffffffffffffffffffffff9081811681036101f457845263ffffffff90602435828116810361043357602086015260443590811681036101f4578385015260643581811681036101f4576060850152608435908116810361035a57608084015260a4359060038210156103385750826104249160a061042f95015260c43560c082015260e43560e082015261012435906117c6565b905191829182611698565b0390f35b8380fd5b50346101f45760206003193601126101f45773ffffffffffffffffffffffffffffffffffffffff6104666114e3565b61046e6116da565b1691821580156104df575b6104b85750816020917fc3dc08a46232e8d0a95510120799f1e68e0aa28c88730b8b0127d5ff4565b4b09385526065835260018186205551908152a180f35b90517fc3b48cf1000000000000000000000000000000000000000000000000000000008152fd5b508284526065602052818420541515610479565b5090346101f45760206003193601126101f4577ff18f88786aae85a652aadb99a82462616489a33370c9bcc7b245906812ef7cd19160209135906105356116da565b8160665551908152a180f35b5082346103385760a06003193601126103385761055c6114e3565b5061056561150b565b5067ffffffffffffffff9060443582811161035a576105879036908601611667565b505060643582811161035a576105a09036908601611667565b505060843591821161033857506020926105bc9136910161152e565b5050517fbc197c81000000000000000000000000000000000000000000000000000000008152f35b5090346101f45760206003193601126101f4577fe9a548e67315439ac624f727fe691585c5cce7759aa57bfbed0e8138cb90d41d9035916106236116da565b6067548151908152836020820152a160675580f35b508234610338576020908160031936011261033857833567ffffffffffffffff811161035a5761066b903690860161162a565b9384518386019081209586845260688552858420541561087957868452606885528584205442106108515790846106b292888652606882528588812055805101019061191c565b91805b83518110156108245760606106ca8286611aea565b51015160028110156107f8576001036107a057818073ffffffffffffffffffffffffffffffffffffffff6106fe8488611aea565b5151168861070c8589611aea565b510151908882519201905af4610720611b8b565b505b1561077857807f2968e6e48e1461dc6f6934a21a5ea27fad9b6786850ad93f47c2caa4f95fde1361076b6107596107739488611aea565b5189519182918a83528a830190611b2d565b0390a1611a8e565b6106b5565b8286517facfdb444000000000000000000000000000000000000000000000000000000008152fd5b818073ffffffffffffffffffffffffffffffffffffffff6107c18488611aea565b515116876107cf8589611aea565b51015190896107de868a611aea565b510151918983519301915af16107f2611b8b565b50610722565b6024836021867f4e487b7100000000000000000000000000000000000000000000000000000000835252fd5b507f7b1bcf1ccf901a11589afff5504d59fd0a53780eed2a952adade0348985139e084878751908152a180f35b8286517f65aecf1d000000000000000000000000000000000000000000000000000000008152fd5b8286517f599fb1a3000000000000000000000000000000000000000000000000000000008152fd5b50346101f457602090816003193601126104335767ffffffffffffffff908335828111610d1c576108d5903690860161162a565b9385549260ff95868560081c161592838094610d10575b8015610cfa575b15610c785760019584877fffffffffffffffffffffffffffffffffffffffffffffffffffffffffffffff008316178b55610c4a575b50815182019260a083898601950312610c4657610946888401611858565b610951878501611858565b916060850151908111610c4257840185603f82011215610c4257898101519561098161097c88611879565b6115ac565b918b8389815201908a829960051b820101928311610c3e57908c8f99989796959493928c01915b838310610c16575050505060a06080860151950151936109f18d73ffffffffffffffffffffffffffffffffffffffff808096169616995460081c166109ec81611891565b611891565b6109fa33611759565b610a026116da565b8315610b945750610a508c8e610a1c8695969a999a611759565b887fffffffffffffffffffffffff000000000000000000000000000000000000000060695416176069555460081c16611891565b898d80825b610b49575b50610a6c9150549c8d60081c16611891565b836066558460675588519560a087019287528b87015260a0898701525180915260c0850195918c905b8a8c848410610b31575050505050509282917f79e3a9f8c9f5a46b91efd1876a50dec21737fbe1523ea7144503873b31ffeae594606084015260808301520390a1610ade578480f35b7fffffffffffffffffffffffffffffffffffffffffffffffffffffffffffff00ff7f7f26b83ff96e1f2b6a682f133852f6798a09c465da95921460cefb38474024989416855551908152a1388080808480f35b855183168a5298890198909401939190910190610a95565b8d8c859b9a9b97969751831015610b8757610b79936065869389610b6d878b611aea565b51168352522055611a8e565b8e9082999899959495610a55565b5050989798949394610a5a565b6084908c8b51917f08c379a0000000000000000000000000000000000000000000000000000000008352820152602660248201527f4f776e61626c653a206e6577206f776e657220697320746865207a65726f206160448201527f64647265737300000000000000000000000000000000000000000000000000006064820152fd5b82939495969798999a50610c2a8293611858565b81520191018c8f99989796959493926109a8565b8e80fd5b8b80fd5b8980fd5b7fffffffffffffffffffffffffffffffffffffffffffffffffffffffffffff00001661010117895538610928565b608490878651917f08c379a0000000000000000000000000000000000000000000000000000000008352820152602e60248201527f496e697469616c697a61626c653a20636f6e747261637420697320616c72656160448201527f647920696e697469616c697a65640000000000000000000000000000000000006064820152fd5b50303b1580156108f357506001888716146108f3565b506001888716106108ec565b8580fd5b5090346101f4576101a06003193601126101f4576101007fffffffffffffffffffffffffffffffffffffffffffffffffffffffffffffffdc3601126101f457610d6761155c565b916024359373ffffffffffffffffffffffffffffffffffffffff94858116810361035a5784526044359463ffffffff9081871687036101f4576020968787015260643590811681036101f4578386015260843581811681036101f457606086015260a435908116810361035a57608085015260c435600381101561035a5760a085015260c084019360e43585526101043560e08201526101843567ffffffffffffffff81116101f457610e1d903690860161162a565b90338352606587528383205415610fe557610e3c9061014435906117c6565b6007811015610fb957600381141580610fae575b610f775750845182526068865282822054610f4f57606754420193844211610f235750610e92908551835260688752848484205586808251830101910161191c565b90805b8251811015610ef457807f43bc9641fb109444334c2b11fbab28e69b005b810a5449bbf63c36d64277ffe5610ee2610ed0610eef9487611aea565b51875191829189835289830190611b2d565b898c8301520390a1611a8e565b610e95565b507f4e8c9d52084f3373dec7c4e5c6bd10b8b97fe0a107841ed1de3fbc8f0cc9e984868487519051908152a180f35b8260116024927f4e487b7100000000000000000000000000000000000000000000000000000000835252fd5b5050517fa65ca451000000000000000000000000000000000000000000000000000000008152fd5b84610faa85519283927fe6ace38e0000000000000000000000000000000000000000000000000000000084528301611698565b0390fd5b506002811415610e50565b6024836021877f4e487b7100000000000000000000000000000000000000000000000000000000835252fd5b505050517fc3b48cf1000000000000000000000000000000000000000000000000000000008152fd5b50346101f45760206003193601126101f45773ffffffffffffffffffffffffffffffffffffffff61103d6114e3565b6110456116da565b1691828452606560205281842054156104b85750816020917f665604bfe8ee87044ba1f1fd2fb47fe92983c9e187acbb442debf97d3e58192193855260658352848181205551908152a180f35b83823461035a578160031936011261035a5760209073ffffffffffffffffffffffffffffffffffffffff603354169051908152f35b83346103385780600319360112610338576110e06116da565b8073ffffffffffffffffffffffffffffffffffffffff6033547fffffffffffffffffffffffff00000000000000000000000000000000000000008116603355167f8be0079c531659141344cd1fd0a4f28419497f9722a3daafe3b4186f6b6457e08280a380f35b83823461035a57602060031936011261035a578060209273ffffffffffffffffffffffffffffffffffffffff61117b6114e3565b1681526065845220549051908152f35b5090346101f45760206003193601126101f45760209282913581526068845220549051908152f35b83823461035a57602060031936011261035a577fffffffffffffffffffffffff00000000000000000000000000000000000000006111ef6114e3565b916111f86116da565b7fcf29bde14aae78ac738504abe3fd1a25675f3c52c42e5d2d7e85b549cd0c4b806069549180519473ffffffffffffffffffffffffffffffffffffffff9081851687521694856020820152a1161760695580f35b83823461035a578160031936011261035a576020906066549051908152f35b508234610338576080600319360112610338576112866114e3565b5061128f61150b565b506064359067ffffffffffffffff821161033857506020926112b39136910161152e565b5050517f150b7a02000000000000000000000000000000000000000000000000000000008152f35b83823461035a578160031936011261035a5760209073ffffffffffffffffffffffffffffffffffffffff606954169051908152f35b5082903461035a578160031936011261035a578051918183019083821067ffffffffffffffff831117611381575061042f93508152601882527f4f7074696d697374696351756f72756d54696d656c6f636b00000000000000006020830152519182916020835260208301906114a0565b806041867f4e487b71000000000000000000000000000000000000000000000000000000006024945252fd5b849084346101f45760206003193601126101f457357fffffffff0000000000000000000000000000000000000000000000000000000081168091036101f457602092507f150b7a02000000000000000000000000000000000000000000000000000000008114908115611453575b8115611429575b5015158152f35b7f01ffc9a70000000000000000000000000000000000000000000000000000000091501483611422565b7f4e2312e0000000000000000000000000000000000000000000000000000000008114915061141b565b60005b8381106114905750506000910152565b8181015183820152602001611480565b907fffffffffffffffffffffffffffffffffffffffffffffffffffffffffffffffe0601f6020936114dc8151809281875287808801910161147d565b0116010190565b6004359073ffffffffffffffffffffffffffffffffffffffff8216820361150657565b600080fd5b6024359073ffffffffffffffffffffffffffffffffffffffff8216820361150657565b9181601f840112156115065782359167ffffffffffffffff8311611506576020838186019501011161150657565b60405190610100820182811067ffffffffffffffff82111761157d57604052565b7f4e487b7100000000000000000000000000000000000000000000000000000000600052604160045260246000fd5b907fffffffffffffffffffffffffffffffffffffffffffffffffffffffffffffffe0601f604051930116820182811067ffffffffffffffff82111761157d57604052565b67ffffffffffffffff811161157d57601f017fffffffffffffffffffffffffffffffffffffffffffffffffffffffffffffffe01660200190565b81601f820112156115065780359061164461097c836115f0565b928284526020838301011161150657816000926020809301838601378301015290565b9181601f840112156115065782359167ffffffffffffffff8311611506576020808501948460051b01011161150657565b9190602083019260078210156116ab5752565b7f4e487b7100000000000000000000000000000000000000000000000000000000600052602160045260246000fd5b73ffffffffffffffffffffffffffffffffffffffff6033541633036116fb57565b60646040517f08c379a000000000000000000000000000000000000000000000000000000000815260206004820152602060248201527f4f776e61626c653a2063616c6c6572206973206e6f7420746865206f776e65726044820152fd5b6033549073ffffffffffffffffffffffffffffffffffffffff80911691827fffffffffffffffffffffffff0000000000000000000000000000000000000000821617603355167f8be0079c531659141344cd1fd0a4f28419497f9722a3daafe3b4186f6b6457e0600080a3565b9060665411159060a08101805160038110156116ab576002036117eb57505050600690565b5160038110156116ab57600103611803575050600490565b63ffffffff9182602083015116431060001461182157505050600090565b1561182d575050600590565b60608101518216431015611842575050600190565b608001511643101561185357600290565b600390565b519073ffffffffffffffffffffffffffffffffffffffff8216820361150657565b67ffffffffffffffff811161157d5760051b60200190565b1561189857565b60846040517f08c379a000000000000000000000000000000000000000000000000000000000815260206004820152602b60248201527f496e697469616c697a61626c653a20636f6e7472616374206973206e6f74206960448201527f6e697469616c697a696e670000000000000000000000000000000000000000006064820152fd5b602090818184031261150657805167ffffffffffffffff9182821161150657019083601f8301121561150657815161195661097c82611879565b94848087848152019260051b8501019381851161150657858101925b858410611983575050505050505090565b83518581116115065782019060a090817fffffffffffffffffffffffffffffffffffffffffffffffffffffffffffffffe08487030112611506576040918251908082018281108a821117611a605784526119de8b8601611858565b8252838501518b830152606093848601518a81116115065786019088603f83011215611506578c82015191611a1561097c846115f0565b928084528a83828401011161150657611a34918f84908601910161147d565b83015260809081860151956002871015611506578c968796850152015190820152815201930192611972565b602460007f4e487b710000000000000000000000000000000000000000000000000000000081526041600452fd5b7fffffffffffffffffffffffffffffffffffffffffffffffffffffffffffffffff8114611abb5760010190565b7f4e487b7100000000000000000000000000000000000000000000000000000000600052601160045260246000fd5b8051821015611afe5760209160051b010190565b7f4e487b7100000000000000000000000000000000000000000000000000000000600052603260045260246000fd5b9073ffffffffffffffffffffffffffffffffffffffff825116815260208201516020820152611b6b604083015160a0604084015260a08301906114a0565b91606081015160028110156116ab57606083015260809081015191015290565b3d15611bac573d90611b9f61097c836115f0565b9182523d6000602084013e565b60609056fea164736f6c6343000812000a","linkReferences":{}},"methodIdentifiers":{"disableSpace(address)":"9e33d811","enableSpace(address)":"d92d4ea0","execute(uint256,(address,uint32,address,uint32,uint32,uint8,bytes32,uint256),uint256,uint256,uint256,bytes)":"a1908c6a","executeQueuedProposal(bytes)":"ad32287f","getProposalStatus((address,uint32,address,uint32,uint32,uint8,bytes32,uint256),uint256,uint256,uint256)":"ea8f8c4b","getStrategyType()":"0eb9b15a","isSpaceEnabled(address)":"6efd971c","onERC1155BatchReceived(address,address,uint256[],uint256[],bytes)":"bc197c81","onERC1155Received(address,address,uint256,uint256,bytes)":"f23a6e61","onERC721Received(address,address,uint256,bytes)":"150b7a02","owner()":"8da5cb5b","proposalExecutionTime(bytes32)":"4a1cead1","quorum()":"1703a018","renounceOwnership()":"715018a6","setQuorum(uint256)":"c1ba4e59","setTimelockDelay(uint256)":"af267f8f","setUp(bytes)":"a4f9edbf","setVetoGuardian(address)":"220f5fd9","supportsInterface(bytes4)":"01ffc9a7","timelockDelay()":"eef09bad","transferOwnership(address)":"f2fde38b","veto(bytes32)":"fb6f93f9","vetoGuardian()":"12513b45"},"id":94}