{"abi":[{"type":"constructor","inputs":[{"name":"_owner","type":"address","internalType":"address"},{"name":"_quorum","type":"uint256","internalType":"uint256"}],"stateMutability":"nonpayable"},{"type":"function","name":"disableSpace","inputs":[{"name":"space","type":"address","internalType":"address"}],"outputs":[],"stateMutability":"nonpayable"},{"type":"function","name":"enableSpace","inputs":[{"name":"space","type":"address","internalType":"address"}],"outputs":[],"stateMutability":"nonpayable"},{"type":"function","name":"execute","inputs":[{"name":"proposalId","type":"uint256","internalType":"uint256"},{"name":"proposal","type":"tuple","internalType":"struct Proposal","components":[{"name":"author","type":"address","internalType":"address"},{"name":"startBlockNumber","type":"uint32","internalType":"uint32"},{"name":"executionStrategy","type":"address","internalType":"contract IExecutionStrategy"},{"name":"minEndBlockNumber","type":"uint32","internalType":"uint32"},{"name":"maxEndBlockNumber","type":"uint32","internalType":"uint32"},{"name":"finalizationStatus","type":"uint8","internalType":"enum FinalizationStatus"},{"name":"executionPayloadHash","type":"bytes32","internalType":"bytes32"},{"name":"activeVotingStrategies","type":"uint256","internalType":"uint256"}]},{"name":"votesFor","type":"uint256","internalType":"uint256"},{"name":"votesAgainst","type":"uint256","internalType":"uint256"},{"name":"votesAbstain","type":"uint256","internalType":"uint256"},{"name":"payload","type":"bytes","internalType":"bytes"}],"outputs":[],"stateMutability":"nonpayable"},{"type":"function","name":"getProposalStatus","inputs":[{"name":"proposal","type":"tuple","internalType":"struct Proposal","components":[{"name":"author","type":"address","internalType":"address"},{"name":"startBlockNumber","type":"uint32","internalType":"uint32"},{"name":"executionStrategy","type":"address","internalType":"contract IExecutionStrategy"},{"name":"minEndBlockNumber","type":"uint32","internalType":"uint32"},{"name":"maxEndBlockNumber","type":"uint32","internalType":"uint32"},{"name":"finalizationStatus","type":"uint8","internalType":"enum FinalizationStatus"},{"name":"executionPayloadHash","type":"bytes32","internalType":"bytes32"},{"name":"activeVotingStrategies","type":"uint256","internalType":"uint256"}]},{"name":"votesFor","type":"uint256","internalType":"uint256"},{"name":"votesAgainst","type":"uint256","internalType":"uint256"},{"name":"votesAbstain","type":"uint256","internalType":"uint256"}],"outputs":[{"name":"","type":"uint8","internalType":"enum ProposalStatus"}],"stateMutability":"view"},{"type":"function","name":"getStrategyType","inputs":[],"outputs":[{"name":"","type":"string","internalType":"string"}],"stateMutability":"pure"},{"type":"function","name":"isSpaceEnabled","inputs":[{"name":"space","type":"address","internalType":"address"}],"outputs":[{"name":"","type":"uint256","internalType":"uint256"}],"stateMutability":"view"},{"type":"function","name":"owner","inputs":[],"outputs":[{"name":"","type":"address","internalType":"address"}],"stateMutability":"view"},{"type":"function","name":"quorum","inputs":[],"outputs":[{"name":"","type":"uint256","internalType":"uint256"}],"stateMutability":"view"},{"type":"function","name":"renounceOwnership","inputs":[],"outputs":[],"stateMutability":"nonpayable"},{"type":"function","name":"setQuorum","inputs":[{"name":"_quorum","type":"uint256","internalType":"uint256"}],"outputs":[],"stateMutability":"nonpayable"},{"type":"function","name":"setUp","inputs":[{"name":"initParams","type":"bytes","internalType":"bytes"}],"outputs":[],"stateMutability":"nonpayable"},{"type":"function","name":"transferOwnership","inputs":[{"name":"newOwner","type":"address","internalType":"address"}],"outputs":[],"stateMutability":"nonpayable"},{"type":"event","name":"Initialized","inputs":[{"name":"version","type":"uint8","indexed":false,"internalType":"uint8"}],"anonymous":false},{"type":"event","name":"OwnershipTransferred","inputs":[{"name":"previousOwner","type":"address","indexed":true,"internalType":"address"},{"name":"newOwner","type":"address","indexed":true,"internalType":"address"}],"anonymous":false},{"type":"event","name":"QuorumUpdated","inputs":[{"name":"newQuorum","type":"uint256","indexed":false,"internalType":"uint256"}],"anonymous":false},{"type":"event","name":"SpaceDisabled","inputs":[{"name":"space","type":"address","indexed":false,"internalType":"address"}],"anonymous":false},{"type":"event","name":"SpaceEnabled","inputs":[{"name":"space","type":"address","indexed":false,"internalType":"address"}],"anonymous":false},{"type":"error","name":"ExecutionFailed","inputs":[]},{"type":"error","name":"InvalidProposalStatus","inputs":[{"name":"status","type":"uint8","internalType":"enum ProposalStatus"}]},{"type":"error","name":"InvalidSpace","inputs":[]}],"bytecode":{"object":"0x608034620002c757620011c7906001600160401b0390601f38849003908101601f191682019083821183831017620002b15780839160409687948552833981010312620002c75780516001600160a01b039283821691829003620002c7576020928301518551808501938452808701918252868152926060840192831184841017620002b157828752600093845460ff8160081c161594858096620002a3575b80156200028a575b1562000233575060ff19811660011786558891908562000221575b508051810103126200021d5751908582168092036200021d575194620000fa60ff855460081c16620000f481620002cc565b620002cc565b62000105336200032d565b33906033541603620001db578015620001885762000123906200032d565b8154936200013760ff8660081c16620002cc565b6066556200014f575b8351610e509081620003778239f35b7f7f26b83ff96e1f2b6a682f133852f6798a09c465da95921460cefb38474024989261ff0019169055825160018152a138808062000140565b855162461bcd60e51b815260048101859052602660248201527f4f776e61626c653a206e6577206f776e657220697320746865207a65726f206160448201526564647265737360d01b6064820152608490fd5b60648487519062461bcd60e51b825280600483015260248201527f4f776e61626c653a2063616c6c6572206973206e6f7420746865206f776e65726044820152fd5b8380fd5b61ffff191661010117865538620000c2565b6084906d191e481a5b9a5d1a585b1a5e995960921b60c4858b62461bcd60e51b85526064820152602e858201527f496e697469616c697a61626c653a20636f6e747261637420697320616c72656160a48201520152fd5b50303b158015620000a75750600160ff831614620000a7565b50600160ff8316106200009f565b634e487b7160e01b600052604160045260246000fd5b600080fd5b15620002d457565b60405162461bcd60e51b815260206004820152602b60248201527f496e697469616c697a61626c653a20636f6e7472616374206973206e6f74206960448201526a6e697469616c697a696e6760a81b6064820152608490fd5b603380546001600160a01b039283166001600160a01b0319821681179092559091167f8be0079c531659141344cd1fd0a4f28419497f9722a3daafe3b4186f6b6457e0600080a356fe6080604081815260048036101561001557600080fd5b600092833560e01c9081630eb9b15a146109c0575080631703a018146109a15780636efd971c1461095d578063715018a6146108dd5780638da5cb5b146108a85780639e33d81114610823578063a1908c6a1461062c578063a4f9edbf1461036d578063c1ba4e5914610320578063d92d4ea014610263578063ea8f8c4b146101795763f2fde38b146100a757600080fd5b34610175576020600319360112610175576100c0610aa9565b916100c9610be4565b73ffffffffffffffffffffffffffffffffffffffff8316156100f257836100ef84610c63565b80f35b90602060849251917f08c379a0000000000000000000000000000000000000000000000000000000008352820152602660248201527f4f776e61626c653a206e6577206f776e657220697320746865207a65726f206160448201527f64647265737300000000000000000000000000000000000000000000000000006064820152fd5b8280fd5b509134610258576003193601610160811261025b57610100136102585761019e610ad1565b923573ffffffffffffffffffffffffffffffffffffffff90818116810361017557845263ffffffff90602435828116810361025f576020860152604435908116810361017557838501526064358181168103610175576060850152608435908116810361025b57608084015260a4359060038210156102585750826102499160a061025495015260c43560c082015260e43560e0820152610144359061012435906101043590610cd0565b905191829182610ba2565b0390f35b80fd5b5080fd5b8380fd5b5090346101755760206003193601126101755773ffffffffffffffffffffffffffffffffffffffff610293610aa9565b61029b610be4565b16918215801561030c575b6102e55750816020917fc3dc08a46232e8d0a95510120799f1e68e0aa28c88730b8b0127d5ff4565b4b09385526065835260018186205551908152a180f35b90517fc3b48cf1000000000000000000000000000000000000000000000000000000008152fd5b5082845260656020528184205415156102a6565b5034610175576020600319360112610175577ff18f88786aae85a652aadb99a82462616489a33370c9bcc7b245906812ef7cd1916020913590610361610be4565b8160665551908152a180f35b503461017557602060031936011261017557803567ffffffffffffffff811161025f5761039d9036908301610b21565b83549060ff8260081c16159182809361061f575b8015610608575b15610585578260017fffffffffffffffffffffffffffffffffffffffffffffffffffffffffffffff008316178755610557575b5083818051810103126105535760208101519073ffffffffffffffffffffffffffffffffffffffff821680920361054f578401519261043960ff875460081c1661043481610db8565b610db8565b61044233610c63565b61044a610be4565b81156104cc575061045a90610c63565b83549161046c60ff8460081c16610db8565b606655610477578280f35b7f7f26b83ff96e1f2b6a682f133852f6798a09c465da95921460cefb3847402498917fffffffffffffffffffffffffffffffffffffffffffffffffffffffffffff00ff6020921684555160018152a138808280f35b60849060208651917f08c379a0000000000000000000000000000000000000000000000000000000008352820152602660248201527f4f776e61626c653a206e6577206f776e657220697320746865207a65726f206160448201527f64647265737300000000000000000000000000000000000000000000000000006064820152fd5b8580fd5b8480fd5b7fffffffffffffffffffffffffffffffffffffffffffffffffffffffffffff000016610101178555386103eb565b60848460208751917f08c379a0000000000000000000000000000000000000000000000000000000008352820152602e60248201527f496e697469616c697a61626c653a20636f6e747261637420697320616c72656160448201527f647920696e697469616c697a65640000000000000000000000000000000000006064820152fd5b50303b1580156103b85750600160ff8216146103b8565b50600160ff8216106103b1565b5091903461025b576101a060031936011261025b576101007fffffffffffffffffffffffffffffffffffffffffffffffffffffffffffffffdc36011261025b57610674610ad1565b73ffffffffffffffffffffffffffffffffffffffff602435818116810361055357825263ffffffff90604435828116810361054f57602084015260643590811681036105535783830152608435818116810361055357606083015260a435908116810361025f57608082015260c435600381101561025f5760a082015260e43560c08201526101043560e08201526101843567ffffffffffffffff811161025f579061072661073b9236908701610b21565b50610164359061014435906101243590610cd0565b9060078210156107f7576003821415806107ec575b6107b55750506067547fffffffffffffffffffffffffffffffffffffffffffffffffffffffffffffffff81146107895760010160675580f35b5060116024927f4e487b7100000000000000000000000000000000000000000000000000000000835252fd5b6107e88491519283927fe6ace38e0000000000000000000000000000000000000000000000000000000084528301610ba2565b0390fd5b506002821415610750565b6024836021867f4e487b7100000000000000000000000000000000000000000000000000000000835252fd5b5090346101755760206003193601126101755773ffffffffffffffffffffffffffffffffffffffff610853610aa9565b61085b610be4565b1691828452606560205281842054156102e55750816020917f665604bfe8ee87044ba1f1fd2fb47fe92983c9e187acbb442debf97d3e58192193855260658352848181205551908152a180f35b50503461025b578160031936011261025b5760209073ffffffffffffffffffffffffffffffffffffffff603354169051908152f35b83346102585780600319360112610258576108f6610be4565b8073ffffffffffffffffffffffffffffffffffffffff6033547fffffffffffffffffffffffff00000000000000000000000000000000000000008116603355167f8be0079c531659141344cd1fd0a4f28419497f9722a3daafe3b4186f6b6457e08280a380f35b50503461025b57602060031936011261025b578060209273ffffffffffffffffffffffffffffffffffffffff610991610aa9565b1681526065845220549051908152f35b50503461025b578160031936011261025b576020906066549051908152f35b9190503461025f578360031936011261025f578282019082821067ffffffffffffffff831117610a7d57508252601381526020907f53696d706c6551756f72756d56616e696c6c61000000000000000000000000008282015282519382859384528251928382860152825b848110610a6757505050828201840152601f017fffffffffffffffffffffffffffffffffffffffffffffffffffffffffffffffe0168101030190f35b8181018301518882018801528795508201610a2b565b8460416024927f4e487b7100000000000000000000000000000000000000000000000000000000835252fd5b6004359073ffffffffffffffffffffffffffffffffffffffff82168203610acc57565b600080fd5b60405190610100820182811067ffffffffffffffff821117610af257604052565b7f4e487b7100000000000000000000000000000000000000000000000000000000600052604160045260246000fd5b81601f82011215610acc5780359067ffffffffffffffff92838311610af257604051937fffffffffffffffffffffffffffffffffffffffffffffffffffffffffffffffe0603f81601f870116011685019085821090821117610af25760405282845260208383010111610acc57816000926020809301838601378301015290565b919060208301926007821015610bb55752565b7f4e487b7100000000000000000000000000000000000000000000000000000000600052602160045260246000fd5b73ffffffffffffffffffffffffffffffffffffffff603354163303610c0557565b60646040517f08c379a000000000000000000000000000000000000000000000000000000000815260206004820152602060248201527f4f776e61626c653a2063616c6c6572206973206e6f7420746865206f776e65726044820152fd5b6033549073ffffffffffffffffffffffffffffffffffffffff80911691827fffffffffffffffffffffffff0000000000000000000000000000000000000000821617603355167f8be0079c531659141344cd1fd0a4f28419497f9722a3daafe3b4186f6b6457e0600080a3565b919092606654908401808511610d895710159283610d7f575b505060a0810180516003811015610bb557600203610d0957505050600690565b516003811015610bb557600103610d21575050600490565b63ffffffff90816020820151164310600014610d3f57505050600090565b60608101518216431015610d5557505050600190565b6080015116431015610d705715610d6b57600290565b600190565b15610d7a57600390565b600590565b1191503880610ce9565b7f4e487b7100000000000000000000000000000000000000000000000000000000600052601160045260246000fd5b15610dbf57565b60846040517f08c379a000000000000000000000000000000000000000000000000000000000815260206004820152602b60248201527f496e697469616c697a61626c653a20636f6e7472616374206973206e6f74206960448201527f6e697469616c697a696e670000000000000000000000000000000000000000006064820152fdfea164736f6c6343000812000a","linkReferences":{}},"methodIdentifiers":{"disableSpace(address)":"9e33d811","enableSpace(address)":"d92d4ea0","execute(uint256,(address,uint32,address,uint32,uint32,uint8,bytes32,uint256),uint256,uint256,uint256,bytes)":"a1908c6a","getProposalStatus((address,uint32,address,uint32,uint32,uint8,bytes32,uint256),uint256,uint256,uint256)":"ea8f8c4b","getStrategyType()":"0eb9b15a","isSpaceEnabled(address)":"6efd971c","owner()":"8da5cb5b","quorum()":"1703a018","renounceOwnership()":"715018a6","setQuorum(uint256)":"c1ba4e59","setUp(bytes)":"a4f9edbf","transferOwnership(address)":"f2fde38b"},"id":91}